{
  "_format": "hh-sol-artifact-1",
  "contractName": "BedroomNft",
  "sourceName": "contracts/Nfts/BedroomNft.sol",
  "abi": [
    {
      "inputs": [
        {
          "internalType": "uint64",
          "name": "_subscriptionId",
          "type": "uint64"
        },
        {
          "internalType": "address",
          "name": "_vrfCoordinator",
          "type": "address"
        },
        {
          "internalType": "address",
          "name": "_dexAddress",
          "type": "address"
        },
        {
          "internalType": "address",
          "name": "_devWallet",
          "type": "address"
        },
        {
          "internalType": "bytes32",
          "name": "_keyHash",
          "type": "bytes32"
        }
      ],
      "stateMutability": "nonpayable",
      "type": "constructor"
    },
    {
      "inputs": [
        {
          "internalType": "address",
          "name": "have",
          "type": "address"
        },
        {
          "internalType": "address",
          "name": "want",
          "type": "address"
        }
      ],
      "name": "OnlyCoordinatorCanFulfill",
      "type": "error"
    },
    {
      "inputs": [
        {
          "internalType": "address",
          "name": "caller",
          "type": "address"
        }
      ],
      "name": "RestrictedAccess",
      "type": "error"
    },
    {
      "anonymous": false,
      "inputs": [
        {
          "indexed": true,
          "internalType": "address",
          "name": "account",
          "type": "address"
        },
        {
          "indexed": true,
          "internalType": "address",
          "name": "operator",
          "type": "address"
        },
        {
          "indexed": false,
          "internalType": "bool",
          "name": "approved",
          "type": "bool"
        }
      ],
      "name": "ApprovalForAll",
      "type": "event"
    },
    {
      "anonymous": false,
      "inputs": [
        {
          "indexed": false,
          "internalType": "string",
          "name": "baseURI",
          "type": "string"
        }
      ],
      "name": "BaseURIChanged",
      "type": "event"
    },
    {
      "anonymous": false,
      "inputs": [
        {
          "indexed": true,
          "internalType": "address",
          "name": "owner",
          "type": "address"
        },
        {
          "indexed": true,
          "internalType": "uint256",
          "name": "requestID",
          "type": "uint256"
        },
        {
          "indexed": false,
          "internalType": "uint256",
          "name": "tokenId",
          "type": "uint256"
        },
        {
          "indexed": false,
          "internalType": "uint16",
          "name": "ambiance",
          "type": "uint16"
        },
        {
          "indexed": false,
          "internalType": "uint16",
          "name": "quality",
          "type": "uint16"
        },
        {
          "indexed": false,
          "internalType": "uint16",
          "name": "luck",
          "type": "uint16"
        },
        {
          "indexed": false,
          "internalType": "uint16",
          "name": "comfortability",
          "type": "uint16"
        }
      ],
      "name": "BedroomNftMinted",
      "type": "event"
    },
    {
      "anonymous": false,
      "inputs": [
        {
          "indexed": true,
          "internalType": "address",
          "name": "owner",
          "type": "address"
        },
        {
          "indexed": true,
          "internalType": "uint256",
          "name": "tokenId",
          "type": "uint256"
        },
        {
          "indexed": false,
          "internalType": "uint256",
          "name": "timestamp",
          "type": "uint256"
        }
      ],
      "name": "BedroomNftUpdated",
      "type": "event"
    },
    {
      "anonymous": false,
      "inputs": [
        {
          "indexed": false,
          "internalType": "uint32",
          "name": "callbackGasLimit",
          "type": "uint32"
        },
        {
          "indexed": false,
          "internalType": "uint64",
          "name": "subscriptionId",
          "type": "uint64"
        },
        {
          "indexed": false,
          "internalType": "bytes32",
          "name": "keyHash",
          "type": "bytes32"
        },
        {
          "indexed": false,
          "internalType": "uint16",
          "name": "requestConfirmations",
          "type": "uint16"
        }
      ],
      "name": "ChainlinkDataUpdated",
      "type": "event"
    },
    {
      "anonymous": false,
      "inputs": [
        {
          "indexed": true,
          "internalType": "address",
          "name": "previousOwner",
          "type": "address"
        },
        {
          "indexed": true,
          "internalType": "address",
          "name": "newOwner",
          "type": "address"
        }
      ],
      "name": "OwnershipTransferred",
      "type": "event"
    },
    {
      "anonymous": false,
      "inputs": [
        {
          "indexed": true,
          "internalType": "uint256",
          "name": "requestId",
          "type": "uint256"
        },
        {
          "indexed": false,
          "internalType": "address",
          "name": "invoker",
          "type": "address"
        },
        {
          "indexed": true,
          "internalType": "uint256",
          "name": "tokenId",
          "type": "uint256"
        }
      ],
      "name": "RequestedRandomness",
      "type": "event"
    },
    {
      "anonymous": false,
      "inputs": [
        {
          "indexed": false,
          "internalType": "uint256[]",
          "name": "randomWords",
          "type": "uint256[]"
        },
        {
          "indexed": true,
          "internalType": "uint256",
          "name": "requestId",
          "type": "uint256"
        },
        {
          "indexed": true,
          "internalType": "uint256",
          "name": "tokenId",
          "type": "uint256"
        }
      ],
      "name": "ReturnedRandomness",
      "type": "event"
    },
    {
      "anonymous": false,
      "inputs": [
        {
          "indexed": true,
          "internalType": "address",
          "name": "operator",
          "type": "address"
        },
        {
          "indexed": true,
          "internalType": "address",
          "name": "from",
          "type": "address"
        },
        {
          "indexed": true,
          "internalType": "address",
          "name": "to",
          "type": "address"
        },
        {
          "indexed": false,
          "internalType": "uint256[]",
          "name": "ids",
          "type": "uint256[]"
        },
        {
          "indexed": false,
          "internalType": "uint256[]",
          "name": "values",
          "type": "uint256[]"
        }
      ],
      "name": "TransferBatch",
      "type": "event"
    },
    {
      "anonymous": false,
      "inputs": [
        {
          "indexed": true,
          "internalType": "address",
          "name": "operator",
          "type": "address"
        },
        {
          "indexed": true,
          "internalType": "address",
          "name": "from",
          "type": "address"
        },
        {
          "indexed": true,
          "internalType": "address",
          "name": "to",
          "type": "address"
        },
        {
          "indexed": false,
          "internalType": "uint256",
          "name": "id",
          "type": "uint256"
        },
        {
          "indexed": false,
          "internalType": "uint256",
          "name": "value",
          "type": "uint256"
        }
      ],
      "name": "TransferSingle",
      "type": "event"
    },
    {
      "anonymous": false,
      "inputs": [
        {
          "indexed": false,
          "internalType": "string",
          "name": "value",
          "type": "string"
        },
        {
          "indexed": true,
          "internalType": "uint256",
          "name": "id",
          "type": "uint256"
        }
      ],
      "name": "URI",
      "type": "event"
    },
    {
      "anonymous": false,
      "inputs": [
        {
          "indexed": true,
          "internalType": "address",
          "name": "owner",
          "type": "address"
        },
        {
          "indexed": false,
          "internalType": "uint256",
          "name": "amount",
          "type": "uint256"
        }
      ],
      "name": "WithdrawMoney",
      "type": "event"
    },
    {
      "inputs": [
        {
          "internalType": "address",
          "name": "account",
          "type": "address"
        },
        {
          "internalType": "uint256",
          "name": "id",
          "type": "uint256"
        }
      ],
      "name": "balanceOf",
      "outputs": [
        {
          "internalType": "uint256",
          "name": "",
          "type": "uint256"
        }
      ],
      "stateMutability": "view",
      "type": "function"
    },
    {
      "inputs": [
        {
          "internalType": "address[]",
          "name": "accounts",
          "type": "address[]"
        },
        {
          "internalType": "uint256[]",
          "name": "ids",
          "type": "uint256[]"
        }
      ],
      "name": "balanceOfBatch",
      "outputs": [
        {
          "internalType": "uint256[]",
          "name": "",
          "type": "uint256[]"
        }
      ],
      "stateMutability": "view",
      "type": "function"
    },
    {
      "inputs": [],
      "name": "dexAddress",
      "outputs": [
        {
          "internalType": "address",
          "name": "",
          "type": "address"
        }
      ],
      "stateMutability": "view",
      "type": "function"
    },
    {
      "inputs": [
        {
          "internalType": "uint256",
          "name": "_tokenId",
          "type": "uint256"
        }
      ],
      "name": "getData",
      "outputs": [
        {
          "internalType": "uint16",
          "name": "_ambiance",
          "type": "uint16"
        },
        {
          "internalType": "uint16",
          "name": "_quality",
          "type": "uint16"
        },
        {
          "internalType": "uint16",
          "name": "_luck",
          "type": "uint16"
        },
        {
          "internalType": "uint16",
          "name": "_comfortability",
          "type": "uint16"
        },
        {
          "internalType": "address",
          "name": "_owner",
          "type": "address"
        },
        {
          "internalType": "uint256",
          "name": "_level",
          "type": "uint256"
        },
        {
          "internalType": "uint256",
          "name": "_value",
          "type": "uint256"
        }
      ],
      "stateMutability": "view",
      "type": "function"
    },
    {
      "inputs": [
        {
          "internalType": "uint256[]",
          "name": "_tokenIds",
          "type": "uint256[]"
        }
      ],
      "name": "getDataBatch",
      "outputs": [
        {
          "internalType": "uint16[]",
          "name": "_ambiance",
          "type": "uint16[]"
        },
        {
          "internalType": "uint16[]",
          "name": "_quality",
          "type": "uint16[]"
        },
        {
          "internalType": "uint16[]",
          "name": "_luck",
          "type": "uint16[]"
        },
        {
          "internalType": "uint16[]",
          "name": "_comfortability",
          "type": "uint16[]"
        },
        {
          "internalType": "address[]",
          "name": "_owners",
          "type": "address[]"
        },
        {
          "internalType": "uint256[]",
          "name": "_levels",
          "type": "uint256[]"
        },
        {
          "internalType": "uint256[]",
          "name": "_values",
          "type": "uint256[]"
        }
      ],
      "stateMutability": "view",
      "type": "function"
    },
    {
      "inputs": [],
      "name": "getNftsNumber",
      "outputs": [
        {
          "internalType": "uint256",
          "name": "nftsNumber",
          "type": "uint256"
        }
      ],
      "stateMutability": "view",
      "type": "function"
    },
    {
      "inputs": [
        {
          "internalType": "uint256",
          "name": "_tokenId",
          "type": "uint256"
        }
      ],
      "name": "getSpecifications",
      "outputs": [
        {
          "components": [
            {
              "internalType": "address",
              "name": "owner",
              "type": "address"
            },
            {
              "internalType": "uint64",
              "name": "scores",
              "type": "uint64"
            },
            {
              "internalType": "uint256",
              "name": "level",
              "type": "uint256"
            },
            {
              "internalType": "uint256",
              "name": "value",
              "type": "uint256"
            }
          ],
          "internalType": "struct BedroomNft.NftSpecifications",
          "name": "nftSpecifications",
          "type": "tuple"
        }
      ],
      "stateMutability": "view",
      "type": "function"
    },
    {
      "inputs": [
        {
          "internalType": "uint256[]",
          "name": "_tokenIds",
          "type": "uint256[]"
        }
      ],
      "name": "getSpecificationsBatch",
      "outputs": [
        {
          "components": [
            {
              "internalType": "address",
              "name": "owner",
              "type": "address"
            },
            {
              "internalType": "uint64",
              "name": "scores",
              "type": "uint64"
            },
            {
              "internalType": "uint256",
              "name": "level",
              "type": "uint256"
            },
            {
              "internalType": "uint256",
              "name": "value",
              "type": "uint256"
            }
          ],
          "internalType": "struct BedroomNft.NftSpecifications[]",
          "name": "nftSpecifications",
          "type": "tuple[]"
        }
      ],
      "stateMutability": "view",
      "type": "function"
    },
    {
      "inputs": [
        {
          "internalType": "address",
          "name": "account",
          "type": "address"
        },
        {
          "internalType": "address",
          "name": "operator",
          "type": "address"
        }
      ],
      "name": "isApprovedForAll",
      "outputs": [
        {
          "internalType": "bool",
          "name": "",
          "type": "bool"
        }
      ],
      "stateMutability": "view",
      "type": "function"
    },
    {
      "inputs": [
        {
          "internalType": "address",
          "name": "_owner",
          "type": "address"
        }
      ],
      "name": "mintBedroomNft",
      "outputs": [
        {
          "internalType": "uint256",
          "name": "_tokenId",
          "type": "uint256"
        }
      ],
      "stateMutability": "nonpayable",
      "type": "function"
    },
    {
      "inputs": [
        {
          "internalType": "address[]",
          "name": "_owners",
          "type": "address[]"
        }
      ],
      "name": "mintBedroomNfts",
      "outputs": [
        {
          "internalType": "uint256[]",
          "name": "_tokenIds",
          "type": "uint256[]"
        }
      ],
      "stateMutability": "nonpayable",
      "type": "function"
    },
    {
      "inputs": [],
      "name": "owner",
      "outputs": [
        {
          "internalType": "address",
          "name": "",
          "type": "address"
        }
      ],
      "stateMutability": "view",
      "type": "function"
    },
    {
      "inputs": [
        {
          "internalType": "uint256",
          "name": "requestId",
          "type": "uint256"
        },
        {
          "internalType": "uint256[]",
          "name": "randomWords",
          "type": "uint256[]"
        }
      ],
      "name": "rawFulfillRandomWords",
      "outputs": [],
      "stateMutability": "nonpayable",
      "type": "function"
    },
    {
      "inputs": [],
      "name": "renounceOwnership",
      "outputs": [],
      "stateMutability": "nonpayable",
      "type": "function"
    },
    {
      "inputs": [
        {
          "internalType": "uint256",
          "name": "",
          "type": "uint256"
        }
      ],
      "name": "requestIdToTokenId",
      "outputs": [
        {
          "internalType": "uint256",
          "name": "",
          "type": "uint256"
        }
      ],
      "stateMutability": "view",
      "type": "function"
    },
    {
      "inputs": [
        {
          "internalType": "address",
          "name": "from",
          "type": "address"
        },
        {
          "internalType": "address",
          "name": "to",
          "type": "address"
        },
        {
          "internalType": "uint256[]",
          "name": "ids",
          "type": "uint256[]"
        },
        {
          "internalType": "uint256[]",
          "name": "amounts",
          "type": "uint256[]"
        },
        {
          "internalType": "bytes",
          "name": "data",
          "type": "bytes"
        }
      ],
      "name": "safeBatchTransferFrom",
      "outputs": [],
      "stateMutability": "nonpayable",
      "type": "function"
    },
    {
      "inputs": [
        {
          "internalType": "address",
          "name": "from",
          "type": "address"
        },
        {
          "internalType": "address",
          "name": "to",
          "type": "address"
        },
        {
          "internalType": "uint256",
          "name": "id",
          "type": "uint256"
        },
        {
          "internalType": "uint256",
          "name": "amount",
          "type": "uint256"
        },
        {
          "internalType": "bytes",
          "name": "data",
          "type": "bytes"
        }
      ],
      "name": "safeTransferFrom",
      "outputs": [],
      "stateMutability": "nonpayable",
      "type": "function"
    },
    {
      "inputs": [
        {
          "internalType": "address",
          "name": "operator",
          "type": "address"
        },
        {
          "internalType": "bool",
          "name": "approved",
          "type": "bool"
        }
      ],
      "name": "setApprovalForAll",
      "outputs": [],
      "stateMutability": "nonpayable",
      "type": "function"
    },
    {
      "inputs": [
        {
          "internalType": "string",
          "name": "_baseURI",
          "type": "string"
        }
      ],
      "name": "setBaseURI",
      "outputs": [],
      "stateMutability": "nonpayable",
      "type": "function"
    },
    {
      "inputs": [
        {
          "internalType": "string",
          "name": "_initialURI",
          "type": "string"
        }
      ],
      "name": "setInitialDesignURI",
      "outputs": [],
      "stateMutability": "nonpayable",
      "type": "function"
    },
    {
      "inputs": [
        {
          "internalType": "uint256",
          "name": "_tokenId",
          "type": "uint256"
        },
        {
          "internalType": "string",
          "name": "_tokenURI",
          "type": "string"
        }
      ],
      "name": "setTokenURI",
      "outputs": [],
      "stateMutability": "nonpayable",
      "type": "function"
    },
    {
      "inputs": [
        {
          "internalType": "bytes4",
          "name": "interfaceId",
          "type": "bytes4"
        }
      ],
      "name": "supportsInterface",
      "outputs": [
        {
          "internalType": "bool",
          "name": "",
          "type": "bool"
        }
      ],
      "stateMutability": "view",
      "type": "function"
    },
    {
      "inputs": [],
      "name": "trackerInstance",
      "outputs": [
        {
          "internalType": "contract ITracker",
          "name": "",
          "type": "address"
        }
      ],
      "stateMutability": "view",
      "type": "function"
    },
    {
      "inputs": [
        {
          "internalType": "address",
          "name": "newOwner",
          "type": "address"
        }
      ],
      "name": "transferOwnership",
      "outputs": [],
      "stateMutability": "nonpayable",
      "type": "function"
    },
    {
      "inputs": [
        {
          "internalType": "uint256",
          "name": "_tokenId",
          "type": "uint256"
        },
        {
          "internalType": "uint256",
          "name": "_newValue",
          "type": "uint256"
        },
        {
          "internalType": "uint256",
          "name": "_newLevel",
          "type": "uint256"
        },
        {
          "internalType": "uint64",
          "name": "_newScores",
          "type": "uint64"
        },
        {
          "internalType": "string",
          "name": "_newDesignURI",
          "type": "string"
        }
      ],
      "name": "updateBedroomNft",
      "outputs": [],
      "stateMutability": "nonpayable",
      "type": "function"
    },
    {
      "inputs": [
        {
          "internalType": "uint32",
          "name": "_callbackGasLimit",
          "type": "uint32"
        },
        {
          "internalType": "uint64",
          "name": "_subscriptionId",
          "type": "uint64"
        },
        {
          "internalType": "bytes32",
          "name": "_keyHash",
          "type": "bytes32"
        },
        {
          "internalType": "uint16",
          "name": "_requestConfirmations",
          "type": "uint16"
        }
      ],
      "name": "updateChainlink",
      "outputs": [],
      "stateMutability": "nonpayable",
      "type": "function"
    },
    {
      "inputs": [],
      "name": "upgradeNftInstance",
      "outputs": [
        {
          "internalType": "contract UpgradeNft",
          "name": "",
          "type": "address"
        }
      ],
      "stateMutability": "view",
      "type": "function"
    },
    {
      "inputs": [],
      "name": "upgraderInstance",
      "outputs": [
        {
          "internalType": "contract IUpgrader",
          "name": "",
          "type": "address"
        }
      ],
      "stateMutability": "view",
      "type": "function"
    },
    {
      "inputs": [
        {
          "internalType": "uint256",
          "name": "_tokenId",
          "type": "uint256"
        }
      ],
      "name": "uri",
      "outputs": [
        {
          "internalType": "string",
          "name": "",
          "type": "string"
        }
      ],
      "stateMutability": "view",
      "type": "function"
    },
    {
      "inputs": [
        {
          "internalType": "contract IERC20",
          "name": "_token",
          "type": "address"
        }
      ],
      "name": "withdrawMoney",
      "outputs": [],
      "stateMutability": "nonpayable",
      "type": "function"
    }
  ],
  "bytecode": "0x61016060405260006101409081526004906200001c9082620003bf565b503480156200002a57600080fd5b506040516200b4453803806200b4458339810160408190526200004d91620004a4565b604080518082019091526007815266426564726f6f6d60c81b60208201526001600160a01b0385166080526200008381620002a8565b506200008f33620002ba565b6001600160a01b038481166101205260068054600784905565ffff0000000160201b600160901b0319166a01000000000000000000006001600160401b0389160263ffffffff60201b19161766030d40000000001769ffff00000000ffffffff191668030000000000000004179055831660a0526040518390839062000115906200030c565b6001600160a01b03928316815291166020820152604001604051809103906000f08015801562000149573d6000803e3d6000fd5b506001600160a01b031660c081905260405163f2fde38b60e01b815233600482015263f2fde38b90602401600060405180830381600087803b1580156200018f57600080fd5b505af1158015620001a4573d6000803e3d6000fd5b5050505060c0516001600160a01b031663753c37556040518163ffffffff1660e01b8152600401602060405180830381865afa158015620001e9573d6000803e3d6000fd5b505050506040513d601f19601f820116820180604052508101906200020f919062000523565b6001600160a01b031660e0816001600160a01b03168152505060c0516001600160a01b031663ad53a1ca6040518163ffffffff1660e01b8152600401602060405180830381865afa15801562000269573d6000803e3d6000fd5b505050506040513d601f19601f820116820180604052508101906200028f919062000523565b6001600160a01b031661010052506200054a9350505050565b6002620002b68282620003bf565b5050565b600380546001600160a01b038381166001600160a01b0319831681179093556040519116919082907f8be0079c531659141344cd1fd0a4f28419497f9722a3daafe3b4186f6b6457e090600090a35050565b616aeb806200495a83390190565b634e487b7160e01b600052604160045260246000fd5b600181811c908216806200034557607f821691505b6020821081036200036657634e487b7160e01b600052602260045260246000fd5b50919050565b601f821115620003ba57600081815260208120601f850160051c81016020861015620003955750805b601f850160051c820191505b81811015620003b657828155600101620003a1565b5050505b505050565b81516001600160401b03811115620003db57620003db6200031a565b620003f381620003ec845462000330565b846200036c565b602080601f8311600181146200042b5760008415620004125750858301515b600019600386901b1c1916600185901b178555620003b6565b600085815260208120601f198616915b828110156200045c578886015182559484019460019091019084016200043b565b50858210156200047b5787850151600019600388901b60f8161c191681555b5050505050600190811b01905550565b6001600160a01b0381168114620004a157600080fd5b50565b600080600080600060a08688031215620004bd57600080fd5b85516001600160401b0381168114620004d557600080fd5b6020870151909550620004e8816200048b565b6040870151909450620004fb816200048b565b60608701519093506200050e816200048b565b80925050608086015190509295509295909350565b6000602082840312156200053657600080fd5b815162000543816200048b565b9392505050565b60805160a05160c05160e0516101005161012051614373620005e7600039600081816114a301526118e80152600081816105c2015261080e0152600081816104a60152818161165501528181611a560152818161226d0152818161234c015281816126b2015261275f015260006103bf01526000818161047f0152818161137401526117ff015260008181610a050152610a6001526143736000f3fe608060405234801561001057600080fd5b50600436106101d95760003560e01c8063715018a611610104578063a22cb465116100a2578063c8492dbc11610071578063c8492dbc146105ff578063e985e9c514610612578063f242432a1461064e578063f2fde38b1461066157600080fd5b8063a22cb465146105aa578063ad53a1ca146105bd578063b2ca4250146105e4578063c0404a89146105ec57600080fd5b80638169743a116100de5780638169743a146104c8578063866cc99e146104db5780638da5cb5b14610586578063938666551461059757600080fd5b8063715018a614610472578063745fba841461047a578063753c3755146104a157600080fd5b80631fe543e31161017c5780633d600e9e1161014b5780633d600e9e146103f95780633e115a8a1461041f5780634e1273f41461043f57806355f804b31461045f57600080fd5b80631fe543e3146103815780632eb2c2d6146103945780632f971029146103a757806330b67cb3146103ba57600080fd5b806304e8d61b116101b857806304e8d61b146103195780630750b1631461032e5780630e89341c1461034e578063162094c41461036e57600080fd5b8062fdd58e146101de5780630178fe3f1461020457806301ffc9a7146102f6575b600080fd5b6101f16101ec36600461344e565b610674565b6040519081526020015b60405180910390f35b6102a961021236600461347a565b6000908152600b6020908152604091829020825160808101845281546001600160a01b0381168083527401000000000000000000000000000000000000000090910467ffffffffffffffff8116838601819052600185015496840187905260029094015460609093018390529295601084901c65ffffffffffff16959484901c63ffffffff169460309490941c61ffff1693919290565b6040805161ffff98891681529688166020880152948716948601949094529490911660608401526001600160a01b0316608083015260a082019290925260c081019190915260e0016101fb565b6103096103043660046134c1565b610720565b60405190151581526020016101fb565b61032c6103273660046135cb565b610803565b005b6101f161033c36600461347a565b600a6020526000908152604090205481565b61036161035c36600461347a565b6109d9565b6040516101fb9190613686565b61032c61037c366004613699565b6109e4565b61032c61038f366004613775565b6109fa565b61032c6103a23660046137b2565b610a97565b61032c6103b5366004613853565b610b39565b6103e17f000000000000000000000000000000000000000000000000000000000000000081565b6040516001600160a01b0390911681526020016101fb565b61040c6104073660046138bc565b610c53565b6040516101fb979695949392919061396d565b61043261042d3660046138bc565b611048565b6040516101fb9190613a31565b61045261044d366004613ab3565b611182565b6040516101fb9190613b76565b61032c61046d366004613b89565b6112c0565b61032c61130b565b6103e17f000000000000000000000000000000000000000000000000000000000000000081565b6103e17f000000000000000000000000000000000000000000000000000000000000000081565b61032c6104d6366004613bbe565b61131f565b6105796104e936600461347a565b604080516080810182526000808252602082018190529181018290526060810191909152506000908152600b6020908152604091829020825160808101845281546001600160a01b038116825274010000000000000000000000000000000000000000900467ffffffffffffffff1692810192909252600181015492820192909252600290910154606082015290565b6040516101fb9190613c30565b6003546001600160a01b03166103e1565b6104526105a53660046138bc565b611339565b61032c6105b8366004613c7c565b6117a9565b6103e17f000000000000000000000000000000000000000000000000000000000000000081565b6101f16117b4565b6101f16105fa366004613853565b6117c4565b61032c61060d366004613cb5565b611b01565b610309610620366004613d16565b6001600160a01b03918216600090815260016020908152604080832093909416825291909152205460ff1690565b61032c61065c366004613d44565b611c12565b61032c61066f366004613853565b611cad565b60006001600160a01b0383166106f75760405162461bcd60e51b815260206004820152602a60248201527f455243313135353a2061646472657373207a65726f206973206e6f742061207660448201527f616c6964206f776e65720000000000000000000000000000000000000000000060648201526084015b60405180910390fd5b506000818152602081815260408083206001600160a01b03861684529091529020545b92915050565b60007fffffffff0000000000000000000000000000000000000000000000000000000082167fd9b67a260000000000000000000000000000000000000000000000000000000014806107b357507fffffffff0000000000000000000000000000000000000000000000000000000082167f0e89341c00000000000000000000000000000000000000000000000000000000145b8061071a57507f01ffc9a7000000000000000000000000000000000000000000000000000000007fffffffff0000000000000000000000000000000000000000000000000000000083161461071a565b336001600160a01b037f00000000000000000000000000000000000000000000000000000000000000001614610867576040517ffd0dd63f0000000000000000000000000000000000000000000000000000000081523360048201526024016106ee565b6000858152600b6020908152604091829020825160808101845281546001600160a01b038116825274010000000000000000000000000000000000000000900467ffffffffffffffff169281019290925260018101549282018390526002015460608201529084146108e8576000868152600b602052604090206001018490555b84816060015114610908576000868152600b602052604090206002018590555b8267ffffffffffffffff16816020015167ffffffffffffffff161461097f576000868152600b6020526040902080547fffffffff0000000000000000ffffffffffffffffffffffffffffffffffffffff167401000000000000000000000000000000000000000067ffffffffffffffff8616021790555b815115610990576109908683611d3d565b805160405142815287916001600160a01b0316907f1ee27d980020350834a62db5723a7ab60cf5c56b1c1c52ac519b61c025f3c5d99060200160405180910390a3505050505050565b606061071a82611d8e565b6109ec611e6e565b6109f68282611d3d565b5050565b336001600160a01b037f00000000000000000000000000000000000000000000000000000000000000001614610a8d576040517f1cf993f40000000000000000000000000000000000000000000000000000000081523360048201526001600160a01b037f00000000000000000000000000000000000000000000000000000000000000001660248201526044016106ee565b6109f68282611ec8565b6001600160a01b038516331480610ab35750610ab38533610620565b610b255760405162461bcd60e51b815260206004820152602f60248201527f455243313135353a2063616c6c6572206973206e6f7420746f6b656e206f776e60448201527f6572206e6f7220617070726f766564000000000000000000000000000000000060648201526084016106ee565b610b32858585858561220b565b5050505050565b6003546001600160a01b03163314610b7f576040517ffd0dd63f0000000000000000000000000000000000000000000000000000000081523360048201526024016106ee565b6040517f70a082310000000000000000000000000000000000000000000000000000000081523060048201526000906001600160a01b038316906370a0823190602401602060405180830381865afa158015610bdf573d6000803e3d6000fd5b505050506040513d601f19601f82011682018060405250810190610c039190613da1565b9050610c196001600160a01b0383163383612427565b60405181815233907f9fe2db218b58c00ab3556f2be44b2769b37978368c63313d82d78306568e4776906020015b60405180910390a25050565b60608080808080808767ffffffffffffffff811115610c7457610c746134fb565b604051908082528060200260200182016040528015610c9d578160200160208202803683370190505b5096508767ffffffffffffffff811115610cb957610cb96134fb565b604051908082528060200260200182016040528015610ce2578160200160208202803683370190505b5095508767ffffffffffffffff811115610cfe57610cfe6134fb565b604051908082528060200260200182016040528015610d27578160200160208202803683370190505b5094508767ffffffffffffffff811115610d4357610d436134fb565b604051908082528060200260200182016040528015610d6c578160200160208202803683370190505b5093508767ffffffffffffffff811115610d8857610d886134fb565b604051908082528060200260200182016040528015610db1578160200160208202803683370190505b5092508767ffffffffffffffff811115610dcd57610dcd6134fb565b604051908082528060200260200182016040528015610df6578160200160208202803683370190505b5091508767ffffffffffffffff811115610e1257610e126134fb565b604051908082528060200260200182016040528015610e3b578160200160208202803683370190505b50905060005b8881101561103b576000600b60008c8c85818110610e6157610e61613dba565b60209081029290920135835250818101929092526040908101600020815160808101835281546001600160a01b038116825274010000000000000000000000000000000000000000900467ffffffffffffffff169381018490526001820154928101929092526002015460608201528a519092508a9084908110610ee757610ee7613dba565b602002602001019061ffff16908161ffff16815250506010816020015167ffffffffffffffff16901c888381518110610f2257610f22613dba565b602002602001019061ffff16908161ffff16815250506020816020015167ffffffffffffffff16901c878381518110610f5d57610f5d613dba565b602002602001019061ffff16908161ffff16815250506030816020015167ffffffffffffffff16901c868381518110610f9857610f98613dba565b602002602001019061ffff16908161ffff16815250508060000151858381518110610fc557610fc5613dba565b60200260200101906001600160a01b031690816001600160a01b0316815250508060400151848381518110610ffc57610ffc613dba565b602002602001018181525050806060015183838151811061101f5761101f613dba565b60209081029190910101525061103481613e18565b9050610e41565b5092959891949750929550565b60608167ffffffffffffffff811115611063576110636134fb565b6040519080825280602002602001820160405280156110b557816020015b6040805160808101825260008082526020808301829052928201819052606082015282526000199092019101816110815790505b50905060005b8281101561117b57600b60008585848181106110d9576110d9613dba565b60209081029290920135835250818101929092526040908101600020815160808101835281546001600160a01b038116825274010000000000000000000000000000000000000000900467ffffffffffffffff1693810193909352600181015491830191909152600201546060820152825183908390811061115d5761115d613dba565b6020026020010181905250808061117390613e18565b9150506110bb565b5092915050565b606081518351146111fb5760405162461bcd60e51b815260206004820152602960248201527f455243313135353a206163636f756e747320616e6420696473206c656e67746860448201527f206d69736d61746368000000000000000000000000000000000000000000000060648201526084016106ee565b6000835167ffffffffffffffff811115611217576112176134fb565b604051908082528060200260200182016040528015611240578160200160208202803683370190505b50905060005b84518110156112b85761128b85828151811061126457611264613dba565b602002602001015185838151811061127e5761127e613dba565b6020026020010151610674565b82828151811061129d5761129d613dba565b60209081029190910101526112b181613e18565b9050611246565b509392505050565b6112c8611e6e565b6112d1816124a7565b7f5411e8ebf1636d9e83d5fc4900bf80cbac82e8790da2a4c94db4895e889eedf6816040516113009190613686565b60405180910390a150565b611313611e6e565b61131d60006124b3565b565b611327611e6e565b6008611334828483613ecb565b505050565b606061134d6003546001600160a01b031690565b6001600160a01b0316336001600160a01b0316141580156113975750336001600160a01b037f00000000000000000000000000000000000000000000000000000000000000001614155b156113d0576040517ffd0dd63f0000000000000000000000000000000000000000000000000000000081523360048201526024016106ee565b8167ffffffffffffffff8111156113e9576113e96134fb565b604051908082528060200260200182016040528015611412578160200160208202803683370190505b506007546006546040517f5d3b1d30000000000000000000000000000000000000000000000000000000008152600481019290925267ffffffffffffffff6a0100000000000000000000820416602483015261ffff68010000000000000000820416604483015263ffffffff6401000000008204811660648401521660848201529091506000906001600160a01b037f00000000000000000000000000000000000000000000000000000000000000001690635d3b1d309060a4016020604051808303816000875af11580156114ec573d6000803e3d6000fd5b505050506040513d601f19601f820116820180604052508101906115109190613da1565b905060005b838110156117a15760095483828151811061153257611532613dba565b60200260200101818152505061154c600980546001019055565b604051806080016040528086868481811061156957611569613dba565b905060200201602081019061157e9190613853565b6001600160a01b03168152602001600067ffffffffffffffff168152602001600181526020016000815250600b60008584815181106115bf576115bf613dba565b6020908102919091018101518252818101929092526040908101600020835181549385015167ffffffffffffffff1674010000000000000000000000000000000000000000027fffffffff000000000000000000000000000000000000000000000000000000009094166001600160a01b03918216179390931781559083015160018201556060909201516002909201919091557f000000000000000000000000000000000000000000000000000000000000000016636508b1b786868481811061168c5761168c613dba565b90506020020160208101906116a19190613853565b8584815181106116b3576116b3613dba565b60200260200101516040518363ffffffff1660e01b81526004016116ec9291906001600160a01b03929092168252602082015260400190565b6020604051808303816000875af115801561170b573d6000803e3d6000fd5b505050506040513d601f19601f8201168201806040525081019061172f9190613f8b565b5082818151811061174257611742613dba565b6020026020010151827fbb51508954384c7c10547a438d09785c754ccebce445b6f002149af48b41f8ca3360405161178991906001600160a01b0391909116815260200190565b60405180910390a361179a81613e18565b9050611515565b505092915050565b6109f633838361251d565b60006117bf60095490565b905090565b60006117d86003546001600160a01b031690565b6001600160a01b0316336001600160a01b0316141580156118225750336001600160a01b037f00000000000000000000000000000000000000000000000000000000000000001614155b1561185b576040517ffd0dd63f0000000000000000000000000000000000000000000000000000000081523360048201526024016106ee565b6007546006546040517f5d3b1d30000000000000000000000000000000000000000000000000000000008152600481019290925267ffffffffffffffff6a0100000000000000000000820416602483015261ffff68010000000000000000820416604483015263ffffffff6401000000008204811660648401521660848201526000906001600160a01b037f00000000000000000000000000000000000000000000000000000000000000001690635d3b1d309060a4016020604051808303816000875af1158015611931573d6000803e3d6000fd5b505050506040513d601f19601f820116820180604052508101906119559190613da1565b905061196060095490565b9150611970600980546001019055565b6000818152600a6020908152604080832085905580516080810182526001600160a01b038781168083528285018681526001848601818152606086018981528b8a52600b9098529786902094518554925167ffffffffffffffff1674010000000000000000000000000000000000000000027fffffffff00000000000000000000000000000000000000000000000000000000909316908516179190911784559551958301959095559251600290910155517f6508b1b70000000000000000000000000000000000000000000000000000000081526004810192909252602482018490527f00000000000000000000000000000000000000000000000000000000000000001690636508b1b7906044016020604051808303816000875af1158015611a9f573d6000803e3d6000fd5b505050506040513d601f19601f82011682018060405250810190611ac39190613f8b565b50604051338152829082907fbb51508954384c7c10547a438d09785c754ccebce445b6f002149af48b41f8ca9060200160405180910390a350919050565b611b09611e6e565b60068054600784905561ffff83166801000000000000000081027fffffffffffffffffffffffffffffffffffffffffffff0000ffffffffffffffff63ffffffff891664010000000081027fffffffffffffffffffffffffffffffffffffffffffffffff00000000ffffffff67ffffffffffffffff8b166a01000000000000000000008102919091167fffffffffffffffffffffffffffff0000000000000000ffff00000000ffffffff9097169690961717919091169190911790935560408051938452602084019290925290820184905260608201527f02dff9ae62795eb5f42e1611cdb6bd7b72a2d319c1d4d3078a62bea1b7fb069b9060800160405180910390a150505050565b6001600160a01b038516331480611c2e5750611c2e8533610620565b611ca05760405162461bcd60e51b815260206004820152602f60248201527f455243313135353a2063616c6c6572206973206e6f7420746f6b656e206f776e60448201527f6572206e6f7220617070726f766564000000000000000000000000000000000060648201526084016106ee565b610b32858585858561262f565b611cb5611e6e565b6001600160a01b038116611d315760405162461bcd60e51b815260206004820152602660248201527f4f776e61626c653a206e6577206f776e657220697320746865207a65726f206160448201527f646472657373000000000000000000000000000000000000000000000000000060648201526084016106ee565b611d3a816124b3565b50565b6000828152600560205260409020611d558282613fa8565b50817f6bb7ff708619ba0610cba295a58592e0451dee2622938c8755667688daf3529b611d81846109d9565b604051610c479190613686565b600081815260056020526040812080546060929190611dac90613e32565b80601f0160208091040260200160405190810160405280929190818152602001828054611dd890613e32565b8015611e255780601f10611dfa57610100808354040283529160200191611e25565b820191906000526020600020905b815481529060010190602001808311611e0857829003601f168201915b505050505090506000815111611e4357611e3e836127da565b611e67565b600481604051602001611e57929190614068565b6040516020818303038152906040525b9392505050565b6003546001600160a01b0316331461131d5760405162461bcd60e51b815260206004820181905260248201527f4f776e61626c653a2063616c6c6572206973206e6f7420746865206f776e657260448201526064016106ee565b6000828152600a602052604090819020549051819084907fb468063b83843c54cde4c18b23fbb532f016d0ade05074cc72ea4263615ffd0190611f0c908690613b76565b60405180910390a36000606483600081518110611f2b57611f2b613dba565b6020026020010151611f3d919061410d565b611f48906001614148565b90506000606484600181518110611f6157611f61613dba565b6020026020010151611f73919061410d565b611f7e906001614148565b90506000606485600281518110611f9757611f97613dba565b6020026020010151611fa9919061410d565b611fb4906001614148565b90506000606486600381518110611fcd57611fcd613dba565b6020026020010151611fdf919061410d565b611fea906001614148565b90506dffffffffffffffff000000000000603082901b166bffffffffffffffff00000000602084901b1661202e69ffffffffffffffff0000601087901b168761415b565b612038919061415b565b612042919061415b565b6000868152600b60205260409020805467ffffffffffffffff9290921674010000000000000000000000000000000000000000027fffffffff0000000000000000ffffffffffffffffffffffffffffffffffffffff90921691909117905580826120ac858761415b565b6120b6919061415b565b6120c0919061415b565b6000868152600b6020908152604080832067ffffffffffffffff949094166002850155925483519182019093529081526001600160a01b039091169061210c908290889060019061286e565b6121a0866008805461211d90613e32565b80601f016020809104026020016040519081016040528092919081815260200182805461214990613e32565b80156121965780601f1061216b57610100808354040283529160200191612196565b820191906000526020600020905b81548152906001019060200180831161217957829003601f168201915b5050505050611d3d565b6040805187815261ffff878116602083015286811682840152858116606083015284166080820152905189916001600160a01b038416917f17398b3495e6a614298983700b5dc2b64c155e12eda7aef3a1f23004b8e109a09181900360a00190a35050505050505050565b60005b83518110156124195784600b600086848151811061222e5761222e613dba565b6020026020010151815260200190815260200160002060000160006101000a8154816001600160a01b0302191690836001600160a01b031602179055507f00000000000000000000000000000000000000000000000000000000000000006001600160a01b0316635ce7eacd87878785815181106122ae576122ae613dba565b60209081029190910101516040517fffffffff0000000000000000000000000000000000000000000000000000000060e086901b1681526001600160a01b03938416600482015292909116602483015260448201526064016020604051808303816000875af1158015612325573d6000803e3d6000fd5b505050506040513d601f19601f820116820180604052508101906123499190613f8b565b507f00000000000000000000000000000000000000000000000000000000000000006001600160a01b0316636508b1b78686848151811061238c5761238c613dba565b60200260200101516040518363ffffffff1660e01b81526004016123c59291906001600160a01b03929092168252602082015260400190565b6020604051808303816000875af11580156123e4573d6000803e3d6000fd5b505050506040513d601f19601f820116820180604052508101906124089190613f8b565b5061241281613e18565b905061220e565b50610b32858585858561299e565b604080516001600160a01b038416602482015260448082018490528251808303909101815260649091019091526020810180517bffffffffffffffffffffffffffffffffffffffffffffffffffffffff167fa9059cbb00000000000000000000000000000000000000000000000000000000179052611334908490612c3c565b60046109f68282613fa8565b600380546001600160a01b038381167fffffffffffffffffffffffff0000000000000000000000000000000000000000831681179093556040519116919082907f8be0079c531659141344cd1fd0a4f28419497f9722a3daafe3b4186f6b6457e090600090a35050565b816001600160a01b0316836001600160a01b0316036125a45760405162461bcd60e51b815260206004820152602960248201527f455243313135353a2073657474696e6720617070726f76616c2073746174757360448201527f20666f722073656c66000000000000000000000000000000000000000000000060648201526084016106ee565b6001600160a01b0383811660008181526001602090815260408083209487168084529482529182902080547fffffffffffffffffffffffffffffffffffffffffffffffffffffffffffffff001686151590811790915591519182527f17307eab39ab6107e8899845ad3d59bd9653f200f220920489ca2b5937696c31910160405180910390a3505050565b6000838152600b60205260409081902080547fffffffffffffffffffffffff0000000000000000000000000000000000000000166001600160a01b0387811691821790925591517f5ce7eacd00000000000000000000000000000000000000000000000000000000815287821660048201526024810192909252604482018590527f00000000000000000000000000000000000000000000000000000000000000001690635ce7eacd906064016020604051808303816000875af11580156126fb573d6000803e3d6000fd5b505050506040513d601f19601f8201168201806040525081019061271f9190613f8b565b506040517f6508b1b70000000000000000000000000000000000000000000000000000000081526001600160a01b038581166004830152602482018590527f00000000000000000000000000000000000000000000000000000000000000001690636508b1b7906044016020604051808303816000875af11580156127a8573d6000803e3d6000fd5b505050506040513d601f19601f820116820180604052508101906127cc9190613f8b565b50610b328585858585612d21565b6060600280546127e990613e32565b80601f016020809104026020016040519081016040528092919081815260200182805461281590613e32565b80156128625780601f1061283757610100808354040283529160200191612862565b820191906000526020600020905b81548152906001019060200180831161284557829003601f168201915b50505050509050919050565b6001600160a01b0384166128ea5760405162461bcd60e51b815260206004820152602160248201527f455243313135353a206d696e7420746f20746865207a65726f2061646472657360448201527f730000000000000000000000000000000000000000000000000000000000000060648201526084016106ee565b3360006128f685612ef7565b9050600061290385612ef7565b90506000868152602081815260408083206001600160a01b038b16845290915281208054879290612935908490614148565b909155505060408051878152602081018790526001600160a01b03808a1692600092918716917fc3d58168c5ae7397731d063d5bbf3d657854427343f4c083240f7aacaa2d0f62910160405180910390a461299583600089898989612f42565b50505050505050565b8151835114612a155760405162461bcd60e51b815260206004820152602860248201527f455243313135353a2069647320616e6420616d6f756e7473206c656e6774682060448201527f6d69736d6174636800000000000000000000000000000000000000000000000060648201526084016106ee565b6001600160a01b038416612a915760405162461bcd60e51b815260206004820152602560248201527f455243313135353a207472616e7366657220746f20746865207a65726f20616460448201527f647265737300000000000000000000000000000000000000000000000000000060648201526084016106ee565b3360005b8451811015612bce576000858281518110612ab257612ab2613dba565b602002602001015190506000858381518110612ad057612ad0613dba565b602090810291909101810151600084815280835260408082206001600160a01b038e168352909352919091205490915081811015612b765760405162461bcd60e51b815260206004820152602a60248201527f455243313135353a20696e73756666696369656e742062616c616e636520666f60448201527f72207472616e736665720000000000000000000000000000000000000000000060648201526084016106ee565b6000838152602081815260408083206001600160a01b038e8116855292528083208585039055908b16825281208054849290612bb3908490614148565b9250508190555050505080612bc790613e18565b9050612a95565b50846001600160a01b0316866001600160a01b0316826001600160a01b03167f4a39dc06d4c0dbc64b70af90fd698a233a518aa5d07e595d983b8c0526c8f7fb8787604051612c1e92919061417c565b60405180910390a4612c34818787878787613146565b505050505050565b6000612c91826040518060400160405280602081526020017f5361666545524332303a206c6f772d6c6576656c2063616c6c206661696c6564815250856001600160a01b03166132a19092919063ffffffff16565b8051909150156113345780806020019051810190612caf9190613f8b565b6113345760405162461bcd60e51b815260206004820152602a60248201527f5361666545524332303a204552433230206f7065726174696f6e20646964206e60448201527f6f7420737563636565640000000000000000000000000000000000000000000060648201526084016106ee565b6001600160a01b038416612d9d5760405162461bcd60e51b815260206004820152602560248201527f455243313135353a207472616e7366657220746f20746865207a65726f20616460448201527f647265737300000000000000000000000000000000000000000000000000000060648201526084016106ee565b336000612da985612ef7565b90506000612db685612ef7565b90506000868152602081815260408083206001600160a01b038c16845290915290205485811015612e4f5760405162461bcd60e51b815260206004820152602a60248201527f455243313135353a20696e73756666696369656e742062616c616e636520666f60448201527f72207472616e736665720000000000000000000000000000000000000000000060648201526084016106ee565b6000878152602081815260408083206001600160a01b038d8116855292528083208985039055908a16825281208054889290612e8c908490614148565b909155505060408051888152602081018890526001600160a01b03808b16928c821692918816917fc3d58168c5ae7397731d063d5bbf3d657854427343f4c083240f7aacaa2d0f62910160405180910390a4612eec848a8a8a8a8a612f42565b505050505050505050565b60408051600180825281830190925260609160009190602080830190803683370190505090508281600081518110612f3157612f31613dba565b602090810291909101015292915050565b6001600160a01b0384163b15612c34576040517ff23a6e610000000000000000000000000000000000000000000000000000000081526001600160a01b0385169063f23a6e6190612f9f90899089908890889088906004016141aa565b6020604051808303816000875af1925050508015612fda575060408051601f3d908101601f19168201909252612fd7918101906141e2565b60015b61308f57612fe66141ff565b806308c379a00361301f5750612ffa61421b565b806130055750613021565b8060405162461bcd60e51b81526004016106ee9190613686565b505b60405162461bcd60e51b815260206004820152603460248201527f455243313135353a207472616e7366657220746f206e6f6e204552433131353560448201527f526563656976657220696d706c656d656e74657200000000000000000000000060648201526084016106ee565b7fffffffff0000000000000000000000000000000000000000000000000000000081167ff23a6e6100000000000000000000000000000000000000000000000000000000146129955760405162461bcd60e51b815260206004820152602860248201527f455243313135353a204552433131353552656365697665722072656a6563746560448201527f6420746f6b656e7300000000000000000000000000000000000000000000000060648201526084016106ee565b6001600160a01b0384163b15612c34576040517fbc197c810000000000000000000000000000000000000000000000000000000081526001600160a01b0385169063bc197c81906131a390899089908890889088906004016142c3565b6020604051808303816000875af19250505080156131de575060408051601f3d908101601f191682019092526131db918101906141e2565b60015b6131ea57612fe66141ff565b7fffffffff0000000000000000000000000000000000000000000000000000000081167fbc197c8100000000000000000000000000000000000000000000000000000000146129955760405162461bcd60e51b815260206004820152602860248201527f455243313135353a204552433131353552656365697665722072656a6563746560448201527f6420746f6b656e7300000000000000000000000000000000000000000000000060648201526084016106ee565b60606132b084846000856132b8565b949350505050565b6060824710156133305760405162461bcd60e51b815260206004820152602660248201527f416464726573733a20696e73756666696369656e742062616c616e636520666f60448201527f722063616c6c000000000000000000000000000000000000000000000000000060648201526084016106ee565b6001600160a01b0385163b6133875760405162461bcd60e51b815260206004820152601d60248201527f416464726573733a2063616c6c20746f206e6f6e2d636f6e747261637400000060448201526064016106ee565b600080866001600160a01b031685876040516133a39190614321565b60006040518083038185875af1925050503d80600081146133e0576040519150601f19603f3d011682016040523d82523d6000602084013e6133e5565b606091505b50915091506133f5828286613400565b979650505050505050565b6060831561340f575081611e67565b82511561341f5782518084602001fd5b8160405162461bcd60e51b81526004016106ee9190613686565b6001600160a01b0381168114611d3a57600080fd5b6000806040838503121561346157600080fd5b823561346c81613439565b946020939093013593505050565b60006020828403121561348c57600080fd5b5035919050565b7fffffffff0000000000000000000000000000000000000000000000000000000081168114611d3a57600080fd5b6000602082840312156134d357600080fd5b8135611e6781613493565b803567ffffffffffffffff811681146134f657600080fd5b919050565b7f4e487b7100000000000000000000000000000000000000000000000000000000600052604160045260246000fd5b601f19601f830116810181811067ffffffffffffffff82111715613550576135506134fb565b6040525050565b600082601f83011261356857600080fd5b813567ffffffffffffffff811115613582576135826134fb565b6040516135996020601f19601f850116018261352a565b8181528460208386010111156135ae57600080fd5b816020850160208301376000918101602001919091529392505050565b600080600080600060a086880312156135e357600080fd5b853594506020860135935060408601359250613601606087016134de565b9150608086013567ffffffffffffffff81111561361d57600080fd5b61362988828901613557565b9150509295509295909350565b60005b83811015613651578181015183820152602001613639565b50506000910152565b60008151808452613672816020860160208601613636565b601f01601f19169290920160200192915050565b602081526000611e67602083018461365a565b600080604083850312156136ac57600080fd5b82359150602083013567ffffffffffffffff8111156136ca57600080fd5b6136d685828601613557565b9150509250929050565b600067ffffffffffffffff8211156136fa576136fa6134fb565b5060051b60200190565b600082601f83011261371557600080fd5b81356020613722826136e0565b60405161372f828261352a565b83815260059390931b850182019282810191508684111561374f57600080fd5b8286015b8481101561376a5780358352918301918301613753565b509695505050505050565b6000806040838503121561378857600080fd5b82359150602083013567ffffffffffffffff8111156137a657600080fd5b6136d685828601613704565b600080600080600060a086880312156137ca57600080fd5b85356137d581613439565b945060208601356137e581613439565b9350604086013567ffffffffffffffff8082111561380257600080fd5b61380e89838a01613704565b9450606088013591508082111561382457600080fd5b61383089838a01613704565b9350608088013591508082111561384657600080fd5b5061362988828901613557565b60006020828403121561386557600080fd5b8135611e6781613439565b60008083601f84011261388257600080fd5b50813567ffffffffffffffff81111561389a57600080fd5b6020830191508360208260051b85010111156138b557600080fd5b9250929050565b600080602083850312156138cf57600080fd5b823567ffffffffffffffff8111156138e657600080fd5b6138f285828601613870565b90969095509350505050565b600081518084526020808501945080840160005b8381101561393257815161ffff1687529582019590820190600101613912565b509495945050505050565b600081518084526020808501945080840160005b8381101561393257815187529582019590820190600101613951565b60e08152600061398060e083018a6138fe565b602083820381850152613993828b6138fe565b915083820360408501526139a7828a6138fe565b915083820360608501526139bb82896138fe565b8481036080860152875180825282890193509082019060005b818110156139f95784516001600160a01b0316835293830193918301916001016139d4565b505084810360a0860152613a0d818861393d565b9250505082810360c0840152613a23818561393d565b9a9950505050505050505050565b6020808252825182820181905260009190848201906040850190845b81811015613aa757613a948385516001600160a01b03815116825267ffffffffffffffff602082015116602083015260408101516040830152606081015160608301525050565b9284019260809290920191600101613a4d565b50909695505050505050565b60008060408385031215613ac657600080fd5b823567ffffffffffffffff80821115613ade57600080fd5b818501915085601f830112613af257600080fd5b81356020613aff826136e0565b604051613b0c828261352a565b83815260059390931b8501820192828101915089841115613b2c57600080fd5b948201945b83861015613b53578535613b4481613439565b82529482019490820190613b31565b96505086013592505080821115613b6957600080fd5b506136d685828601613704565b602081526000611e67602083018461393d565b600060208284031215613b9b57600080fd5b813567ffffffffffffffff811115613bb257600080fd5b6132b084828501613557565b60008060208385031215613bd157600080fd5b823567ffffffffffffffff80821115613be957600080fd5b818501915085601f830112613bfd57600080fd5b813581811115613c0c57600080fd5b866020828501011115613c1e57600080fd5b60209290920196919550909350505050565b81516001600160a01b0316815260208083015167ffffffffffffffff169082015260408083015190820152606080830151908201526080810161071a565b8015158114611d3a57600080fd5b60008060408385031215613c8f57600080fd5b8235613c9a81613439565b91506020830135613caa81613c6e565b809150509250929050565b60008060008060808587031215613ccb57600080fd5b843563ffffffff81168114613cdf57600080fd5b9350613ced602086016134de565b925060408501359150606085013561ffff81168114613d0b57600080fd5b939692955090935050565b60008060408385031215613d2957600080fd5b8235613d3481613439565b91506020830135613caa81613439565b600080600080600060a08688031215613d5c57600080fd5b8535613d6781613439565b94506020860135613d7781613439565b93506040860135925060608601359150608086013567ffffffffffffffff81111561361d57600080fd5b600060208284031215613db357600080fd5b5051919050565b7f4e487b7100000000000000000000000000000000000000000000000000000000600052603260045260246000fd5b7f4e487b7100000000000000000000000000000000000000000000000000000000600052601160045260246000fd5b60006000198203613e2b57613e2b613de9565b5060010190565b600181811c90821680613e4657607f821691505b602082108103613e7f577f4e487b7100000000000000000000000000000000000000000000000000000000600052602260045260246000fd5b50919050565b601f82111561133457600081815260208120601f850160051c81016020861015613eac5750805b601f850160051c820191505b81811015612c3457828155600101613eb8565b67ffffffffffffffff831115613ee357613ee36134fb565b613ef783613ef18354613e32565b83613e85565b6000601f841160018114613f2b5760008515613f135750838201355b600019600387901b1c1916600186901b178355610b32565b600083815260209020601f19861690835b82811015613f5c5786850135825560209485019460019092019101613f3c565b5086821015613f795760001960f88860031b161c19848701351681555b505060018560011b0183555050505050565b600060208284031215613f9d57600080fd5b8151611e6781613c6e565b815167ffffffffffffffff811115613fc257613fc26134fb565b613fd681613fd08454613e32565b84613e85565b602080601f83116001811461400b5760008415613ff35750858301515b600019600386901b1c1916600185901b178555612c34565b600085815260208120601f198616915b8281101561403a5788860151825594840194600190910190840161401b565b50858210156140585787850151600019600388901b60f8161c191681555b5050505050600190811b01905550565b600080845461407681613e32565b6001828116801561408e57600181146140c1576140f0565b7fffffffffffffffffffffffffffffffffffffffffffffffffffffffffffffff00841687528215158302870194506140f0565b8860005260208060002060005b858110156140e75781548a8201529084019082016140ce565b50505082870194505b505050508351614104818360208801613636565b01949350505050565b600082614143577f4e487b7100000000000000000000000000000000000000000000000000000000600052601260045260246000fd5b500690565b8082018082111561071a5761071a613de9565b67ffffffffffffffff81811683821601908082111561117b5761117b613de9565b60408152600061418f604083018561393d565b82810360208401526141a1818561393d565b95945050505050565b60006001600160a01b03808816835280871660208401525084604083015283606083015260a060808301526133f560a083018461365a565b6000602082840312156141f457600080fd5b8151611e6781613493565b600060033d11156142185760046000803e5060005160e01c5b90565b600060443d10156142295790565b6040517ffffffffffffffffffffffffffffffffffffffffffffffffffffffffffffffffc803d016004833e81513d67ffffffffffffffff816024840111818411171561427757505050505090565b828501915081518181111561428f5750505050505090565b843d87010160208285010111156142a95750505050505090565b6142b86020828601018761352a565b509095945050505050565b60006001600160a01b03808816835280871660208401525060a060408301526142ef60a083018661393d565b8281036060840152614301818661393d565b90508281036080840152614315818561365a565b98975050505050505050565b60008251614333818460208701613636565b919091019291505056fea2646970667358221220909e5462917f2f3d744a69d74829a19116bf4ccf5e2f171303f9aed1fcc06b6e64736f6c6343000811003361012060405260006101009081526004906200001c90826200027f565b503480156200002a57600080fd5b5060405162006aeb38038062006aeb8339810160408190526200004d9162000364565b604080516020810190915260008152620000678162000168565b5062000073336200017a565b6001600160a01b03828116608052600780546001600160a01b0319169183169190911790553360a08190526040518390620000ae90620001cc565b6001600160a01b03928316815291166020820152604001604051809103906000f080158015620000e2573d6000803e3d6000fd5b506001600160a01b031660e08190526040805163753c375560e01b8152905163753c3755916004808201926020929091908290030181865afa1580156200012d573d6000803e3d6000fd5b505050506040513d601f19601f82011682018060405250810190620001539190620003a3565b6001600160a01b031660c05250620003ca9050565b60026200017682826200027f565b5050565b600380546001600160a01b038381166001600160a01b0319831681179093556040519116919082907f8be0079c531659141344cd1fd0a4f28419497f9722a3daafe3b4186f6b6457e090600090a35050565b612dd18062003d1a83390190565b634e487b7160e01b600052604160045260246000fd5b600181811c908216806200020557607f821691505b6020821081036200022657634e487b7160e01b600052602260045260246000fd5b50919050565b601f8211156200027a57600081815260208120601f850160051c81016020861015620002555750805b601f850160051c820191505b81811015620002765782815560010162000261565b5050505b505050565b81516001600160401b038111156200029b576200029b620001da565b620002b381620002ac8454620001f0565b846200022c565b602080601f831160018114620002eb5760008415620002d25750858301515b600019600386901b1c1916600185901b17855562000276565b600085815260208120601f198616915b828110156200031c57888601518255948401946001909101908401620002fb565b50858210156200033b5787850151600019600388901b60f8161c191681555b5050505050600190811b01905550565b6001600160a01b03811681146200036157600080fd5b50565b600080604083850312156200037857600080fd5b825162000385816200034b565b602084015190925062000398816200034b565b809150509250929050565b600060208284031215620003b657600080fd5b8151620003c3816200034b565b9392505050565b60805160a05160c05160e0516138c96200045160003960006104110152600081816103c60152818161085c01528181610d47015281816110db015281816114a6015281816115df0152818161170b01528181611bdd01528181611cd80152611dc10152600061047e01526000818161038701528181610c80015261102201526138c96000f3fe608060405234801561001057600080fd5b50600436106101a25760003560e01c8063745fba84116100ee578063bd85b03911610097578063e7d3fe6b11610071578063e7d3fe6b146104a0578063e985e9c5146104b3578063f242432a146104ef578063f2fde38b1461050257600080fd5b8063bd85b03914610446578063d0d41fe114610466578063db6f3d6e1461047957600080fd5b8063a22cb465116100c8578063a22cb465146103f9578063ad53a1ca1461040c578063b3b74eef1461043357600080fd5b8063745fba8414610382578063753c3755146103c15780638da5cb5b146103e857600080fd5b80632eb2c2d6116101505780634f558e791161012a5780634f558e791461034557806355f804b314610367578063715018a61461037a57600080fd5b80632eb2c2d6146102ff5780632f971029146103125780634e1273f41461032557600080fd5b80630c39104e116101815780630c39104e146102b75780630e89341c146102cc578063162094c4146102ec57600080fd5b8062fdd58e146101a75780630178fe3f146101cd57806301ffc9a714610294575b600080fd5b6101ba6101b5366004612b6d565b610515565b6040519081526020015b60405180910390f35b6102496101db366004612b99565b60009081526008602052604090819020546bffffffffffffffffffffffff811692601882901c68ffffffffffffffffff1692602883901c66ffffffffffffff1692603881901c64ffffffffff16929181901c63ffffffff1691604882901c62ffffff169160501c61ffff1690565b6040805162ffffff909816885261ffff96871660208901529486169487019490945293909116606085015260ff908116608085015291821660a08401521660c082015260e0016101c4565b6102a76102a2366004612be0565b6105c1565b60405190151581526020016101c4565b6102ca6102c5366004612cee565b6106a4565b005b6102df6102da366004612b99565b610911565b6040516101c49190612dfa565b6102ca6102fa366004612e0d565b61091c565b6102ca61030d366004612ee9565b610932565b6102ca610320366004612f97565b6109d4565b610338610333366004612fb4565b610aee565b6040516101c491906130b2565b6102a7610353366004612b99565b600090815260066020526040902054151590565b6102ca6103753660046130c5565b610c2c565b6102ca610c40565b6103a97f000000000000000000000000000000000000000000000000000000000000000081565b6040516001600160a01b0390911681526020016101c4565b6103a97f000000000000000000000000000000000000000000000000000000000000000081565b6003546001600160a01b03166103a9565b6102ca610407366004613108565b610c54565b6103a97f000000000000000000000000000000000000000000000000000000000000000081565b6102ca61044136600461318d565b610c5f565b6101ba610454366004612b99565b60009081526006602052604090205490565b6102ca610474366004612f97565b610fbf565b6103a97f000000000000000000000000000000000000000000000000000000000000000081565b6102ca6104ae366004613227565b611001565b6102a76104c1366004613260565b6001600160a01b03918216600090815260016020908152604080832093909416825291909152205460ff1690565b6102ca6104fd36600461328e565b6111e2565b6102ca610510366004612f97565b61127d565b60006001600160a01b0383166105985760405162461bcd60e51b815260206004820152602a60248201527f455243313135353a2061646472657373207a65726f206973206e6f742061207660448201527f616c6964206f776e65720000000000000000000000000000000000000000000060648201526084015b60405180910390fd5b506000818152602081815260408083206001600160a01b03861684529091529020545b92915050565b60007fffffffff0000000000000000000000000000000000000000000000000000000082167fd9b67a2600000000000000000000000000000000000000000000000000000000148061065457507fffffffff0000000000000000000000000000000000000000000000000000000082167f0e89341c00000000000000000000000000000000000000000000000000000000145b806105bb57507f01ffc9a7000000000000000000000000000000000000000000000000000000007fffffffff000000000000000000000000000000000000000000000000000000008316146105bb565b6003546001600160a01b031633148015906106ca57506007546001600160a01b03163314155b15610703576040517ffd0dd63f00000000000000000000000000000000000000000000000000000000815233600482015260240161058f565b75ffffffffffffffffffffffff00000000000000000000605082901b1674ffffffffffffffffffffffff000000000000000000604884901b1673ffffffffffffffffffffffff0000000000000000604086901b1672ffffffffffffffffffffffff00000000000000603888901b1670ffffffffffffffffffffffff000000000060288a901b166107a86effffffffffffffffffffffff00000060188d901b168d613326565b6107b29190613326565b6107bc9190613326565b6107c69190613326565b6107d09190613326565b6107da9190613326565b60008a815260086020526040902080547fffffffffffffffffffffffffffffffffffffffff000000000000000000000000166bffffffffffffffffffffffff9290921691909117905561082d898961130a565b6040517f88c53627000000000000000000000000000000000000000000000000000000008152600481018a90527f00000000000000000000000000000000000000000000000000000000000000006001600160a01b0316906388c5362790602401600060405180830381600087803b1580156108a857600080fd5b505af11580156108bc573d6000803e3d6000fd5b50505050887f257681ae6335d781e5634c5e7213868bceb37bc4d3c6d92d9072f65488cb985b89898989898989896040516108fe989796959493929190613352565b60405180910390a2505050505050505050565b60606105bb8261135b565b61092461143b565b61092e828261130a565b5050565b6001600160a01b03851633148061094e575061094e85336104c1565b6109c05760405162461bcd60e51b815260206004820152602f60248201527f455243313135353a2063616c6c6572206973206e6f7420746f6b656e206f776e60448201527f6572206e6f7220617070726f7665640000000000000000000000000000000000606482015260840161058f565b6109cd8585858585611495565b5050505050565b6003546001600160a01b03163314610a1a576040517ffd0dd63f00000000000000000000000000000000000000000000000000000000815233600482015260240161058f565b6040517f70a082310000000000000000000000000000000000000000000000000000000081523060048201526000906001600160a01b038316906370a0823190602401602060405180830381865afa158015610a7a573d6000803e3d6000fd5b505050506040513d601f19601f82011682018060405250810190610a9e91906133b1565b9050610ab46001600160a01b0383163383611856565b60405181815233907f9fe2db218b58c00ab3556f2be44b2769b37978368c63313d82d78306568e4776906020015b60405180910390a25050565b60608151835114610b675760405162461bcd60e51b815260206004820152602960248201527f455243313135353a206163636f756e747320616e6420696473206c656e67746860448201527f206d69736d617463680000000000000000000000000000000000000000000000606482015260840161058f565b6000835167ffffffffffffffff811115610b8357610b83612bfd565b604051908082528060200260200182016040528015610bac578160200160208202803683370190505b50905060005b8451811015610c2457610bf7858281518110610bd057610bd06133ca565b6020026020010151858381518110610bea57610bea6133ca565b6020026020010151610515565b828281518110610c0957610c096133ca565b6020908102919091010152610c1d816133f9565b9050610bb2565b509392505050565b610c3461143b565b610c3d816118db565b50565b610c4861143b565b610c5260006118e7565b565b61092e338383611951565b6003546001600160a01b03163314801590610ca35750336001600160a01b037f00000000000000000000000000000000000000000000000000000000000000001614155b8015610cba57506007546001600160a01b03163314155b15610cf3576040517ffd0dd63f00000000000000000000000000000000000000000000000000000000815233600482015260240161058f565b848314801590610d035750828114155b15610d3a576040517fd9183d2b00000000000000000000000000000000000000000000000000000000815260040160405180910390fd5b60005b81811015610fb6577f00000000000000000000000000000000000000000000000000000000000000006001600160a01b031663309c22cd848484818110610d8657610d866133ca565b9050602002016020810190610d9b9190612f97565b898985818110610dad57610dad6133ca565b90506020020135888886818110610dc657610dc66133ca565b6040517fffffffff0000000000000000000000000000000000000000000000000000000060e088901b1681526001600160a01b0390951660048601526024850193909352506020909102013560448201526064016020604051808303816000875af1158015610e39573d6000803e3d6000fd5b505050506040513d601f19601f82011682018060405250810190610e5d9190613431565b610e93576040517f98c03fbf00000000000000000000000000000000000000000000000000000000815260040160405180910390fd5b610f04838383818110610ea857610ea86133ca565b9050602002016020810190610ebd9190612f97565b888884818110610ecf57610ecf6133ca565b90506020020135878785818110610ee857610ee86133ca565b9050602002013560405180602001604052806000815250611a63565b828282818110610f1657610f166133ca565b9050602002016020810190610f2b9190612f97565b6001600160a01b03167f27f0c069917c460d1c0026d3ffe261d73cba2faaf0f49d150a60dd53a0f7ca62888884818110610f6757610f676133ca565b90506020020135878785818110610f8057610f806133ca565b90506020020135604051610f9e929190918252602082015260400190565b60405180910390a2610faf816133f9565b9050610d3d565b50505050505050565b610fc761143b565b600780547fffffffffffffffffffffffff0000000000000000000000000000000000000000166001600160a01b0392909216919091179055565b6003546001600160a01b031633148015906110455750336001600160a01b037f00000000000000000000000000000000000000000000000000000000000000001614155b801561105c57506007546001600160a01b03163314155b15611095576040517ffd0dd63f00000000000000000000000000000000000000000000000000000000815233600482015260240161058f565b6040517f309c22cd0000000000000000000000000000000000000000000000000000000081526001600160a01b03828116600483015260248201859052604482018490527f0000000000000000000000000000000000000000000000000000000000000000169063309c22cd906064016020604051808303816000875af1158015611124573d6000803e3d6000fd5b505050506040513d601f19601f820116820180604052508101906111489190613431565b61117e576040517f98c03fbf00000000000000000000000000000000000000000000000000000000815260040160405180910390fd5b61119981848460405180602001604052806000815250611a63565b60408051848152602081018490526001600160a01b038316917f27f0c069917c460d1c0026d3ffe261d73cba2faaf0f49d150a60dd53a0f7ca62910160405180910390a2505050565b6001600160a01b0385163314806111fe57506111fe85336104c1565b6112705760405162461bcd60e51b815260206004820152602f60248201527f455243313135353a2063616c6c6572206973206e6f7420746f6b656e206f776e60448201527f6572206e6f7220617070726f7665640000000000000000000000000000000000606482015260840161058f565b6109cd8585858585611b99565b61128561143b565b6001600160a01b0381166113015760405162461bcd60e51b815260206004820152602660248201527f4f776e61626c653a206e6577206f776e657220697320746865207a65726f206160448201527f6464726573730000000000000000000000000000000000000000000000000000606482015260840161058f565b610c3d816118e7565b600082815260056020526040902061132282826134e7565b50817f6bb7ff708619ba0610cba295a58592e0451dee2622938c8755667688daf3529b61134e84610911565b604051610ae29190612dfa565b6000818152600560205260408120805460609291906113799061344e565b80601f01602080910402602001604051908101604052809291908181526020018280546113a59061344e565b80156113f25780601f106113c7576101008083540402835291602001916113f2565b820191906000526020600020905b8154815290600101906020018083116113d557829003601f168201915b5050505050905060008151116114105761140b83611e71565b611434565b6004816040516020016114249291906135e3565b6040516020818303038152906040525b9392505050565b6003546001600160a01b03163314610c525760405162461bcd60e51b815260206004820181905260248201527f4f776e61626c653a2063616c6c6572206973206e6f7420746865206f776e6572604482015260640161058f565b60005b8351811015611848576000807f00000000000000000000000000000000000000000000000000000000000000006001600160a01b03166329fbc3c4898886815181106114e6576114e66133ca565b60200260200101516040518363ffffffff1660e01b815260040161151f9291906001600160a01b03929092168252602082015260400190565b6040805180830381865afa15801561153b573d6000803e3d6000fd5b505050506040513d601f19601f8201168201806040525081019061155f9190613688565b909250905061156e81836136ac565b858481518110611580576115806133ca565b602002602001015111156115dd578583815181106115a0576115a06133ca565b60200260200101516040517f1861027300000000000000000000000000000000000000000000000000000000815260040161058f91815260200190565b7f00000000000000000000000000000000000000000000000000000000000000006001600160a01b0316636bd870038988868151811061161f5761161f6133ca565b6020026020010151888781518110611639576116396133ca565b60209081029190910101516040517fffffffff0000000000000000000000000000000000000000000000000000000060e086901b1681526001600160a01b039093166004840152602483019190915260448201526064016020604051808303816000875af11580156116af573d6000803e3d6000fd5b505050506040513d601f19601f820116820180604052508101906116d39190613431565b611709576040517f98c03fbf00000000000000000000000000000000000000000000000000000000815260040160405180910390fd5b7f00000000000000000000000000000000000000000000000000000000000000006001600160a01b031663309c22cd8888868151811061174b5761174b6133ca565b6020026020010151888781518110611765576117656133ca565b60209081029190910101516040517fffffffff0000000000000000000000000000000000000000000000000000000060e086901b1681526001600160a01b039093166004840152602483019190915260448201526064016020604051808303816000875af11580156117db573d6000803e3d6000fd5b505050506040513d601f19601f820116820180604052508101906117ff9190613431565b611835576040517f98c03fbf00000000000000000000000000000000000000000000000000000000815260040160405180910390fd5b505080611841906133f9565b9050611498565b506109cd8585858585611f05565b604080516001600160a01b038416602482015260448082018490528251808303909101815260649091019091526020810180517bffffffffffffffffffffffffffffffffffffffffffffffffffffffff167fa9059cbb000000000000000000000000000000000000000000000000000000001790526118d69084906121b1565b505050565b600461092e82826134e7565b600380546001600160a01b038381167fffffffffffffffffffffffff0000000000000000000000000000000000000000831681179093556040519116919082907f8be0079c531659141344cd1fd0a4f28419497f9722a3daafe3b4186f6b6457e090600090a35050565b816001600160a01b0316836001600160a01b0316036119d85760405162461bcd60e51b815260206004820152602960248201527f455243313135353a2073657474696e6720617070726f76616c2073746174757360448201527f20666f722073656c660000000000000000000000000000000000000000000000606482015260840161058f565b6001600160a01b0383811660008181526001602090815260408083209487168084529482529182902080547fffffffffffffffffffffffffffffffffffffffffffffffffffffffffffffff001686151590811790915591519182527f17307eab39ab6107e8899845ad3d59bd9653f200f220920489ca2b5937696c31910160405180910390a3505050565b6001600160a01b038416611adf5760405162461bcd60e51b815260206004820152602160248201527f455243313135353a206d696e7420746f20746865207a65726f2061646472657360448201527f7300000000000000000000000000000000000000000000000000000000000000606482015260840161058f565b336000611aeb85612296565b90506000611af885612296565b9050611b09836000898585896122e1565b6000868152602081815260408083206001600160a01b038b16845290915281208054879290611b399084906136bf565b909155505060408051878152602081018790526001600160a01b03808a1692600092918716917fc3d58168c5ae7397731d063d5bbf3d657854427343f4c083240f7aacaa2d0f62910160405180910390a4610fb6836000898989896122ef565b6040517f29fbc3c40000000000000000000000000000000000000000000000000000000081526001600160a01b0386811660048301526024820185905260009182917f000000000000000000000000000000000000000000000000000000000000000016906329fbc3c4906044016040805180830381865afa158015611c23573d6000803e3d6000fd5b505050506040513d601f19601f82011682018060405250810190611c479190613688565b9092509050611c5681836136ac565b841115611c92576040517f186102730000000000000000000000000000000000000000000000000000000081526004810186905260240161058f565b6040517f6bd870030000000000000000000000000000000000000000000000000000000081526001600160a01b03888116600483015260248201879052604482018690527f00000000000000000000000000000000000000000000000000000000000000001690636bd87003906064016020604051808303816000875af1158015611d21573d6000803e3d6000fd5b505050506040513d601f19601f82011682018060405250810190611d459190613431565b611d7b576040517f98c03fbf00000000000000000000000000000000000000000000000000000000815260040160405180910390fd5b6040517f309c22cd0000000000000000000000000000000000000000000000000000000081526001600160a01b03878116600483015260248201879052604482018690527f0000000000000000000000000000000000000000000000000000000000000000169063309c22cd906064016020604051808303816000875af1158015611e0a573d6000803e3d6000fd5b505050506040513d601f19601f82011682018060405250810190611e2e9190613431565b611e64576040517f98c03fbf00000000000000000000000000000000000000000000000000000000815260040160405180910390fd5b610fb687878787876124f3565b606060028054611e809061344e565b80601f0160208091040260200160405190810160405280929190818152602001828054611eac9061344e565b8015611ef95780601f10611ece57610100808354040283529160200191611ef9565b820191906000526020600020905b815481529060010190602001808311611edc57829003601f168201915b50505050509050919050565b8151835114611f7c5760405162461bcd60e51b815260206004820152602860248201527f455243313135353a2069647320616e6420616d6f756e7473206c656e6774682060448201527f6d69736d61746368000000000000000000000000000000000000000000000000606482015260840161058f565b6001600160a01b038416611ff85760405162461bcd60e51b815260206004820152602560248201527f455243313135353a207472616e7366657220746f20746865207a65726f20616460448201527f6472657373000000000000000000000000000000000000000000000000000000606482015260840161058f565b336120078187878787876122e1565b60005b8451811015612143576000858281518110612027576120276133ca565b602002602001015190506000858381518110612045576120456133ca565b602090810291909101810151600084815280835260408082206001600160a01b038e1683529093529190912054909150818110156120eb5760405162461bcd60e51b815260206004820152602a60248201527f455243313135353a20696e73756666696369656e742062616c616e636520666f60448201527f72207472616e7366657200000000000000000000000000000000000000000000606482015260840161058f565b6000838152602081815260408083206001600160a01b038e8116855292528083208585039055908b168252812080548492906121289084906136bf565b925050819055505050508061213c906133f9565b905061200a565b50846001600160a01b0316866001600160a01b0316826001600160a01b03167f4a39dc06d4c0dbc64b70af90fd698a233a518aa5d07e595d983b8c0526c8f7fb87876040516121939291906136d2565b60405180910390a46121a98187878787876126d7565b505050505050565b6000612206826040518060400160405280602081526020017f5361666545524332303a206c6f772d6c6576656c2063616c6c206661696c6564815250856001600160a01b03166128329092919063ffffffff16565b8051909150156118d657808060200190518101906122249190613431565b6118d65760405162461bcd60e51b815260206004820152602a60248201527f5361666545524332303a204552433230206f7065726174696f6e20646964206e60448201527f6f74207375636365656400000000000000000000000000000000000000000000606482015260840161058f565b604080516001808252818301909252606091600091906020808301908036833701905050905082816000815181106122d0576122d06133ca565b602090810291909101015292915050565b6121a9868686868686612849565b6001600160a01b0384163b156121a9576040517ff23a6e610000000000000000000000000000000000000000000000000000000081526001600160a01b0385169063f23a6e619061234c9089908990889088908890600401613700565b6020604051808303816000875af1925050508015612387575060408051601f3d908101601f1916820190925261238491810190613738565b60015b61243c57612393613755565b806308c379a0036123cc57506123a7613771565b806123b257506123ce565b8060405162461bcd60e51b815260040161058f9190612dfa565b505b60405162461bcd60e51b815260206004820152603460248201527f455243313135353a207472616e7366657220746f206e6f6e204552433131353560448201527f526563656976657220696d706c656d656e746572000000000000000000000000606482015260840161058f565b7fffffffff0000000000000000000000000000000000000000000000000000000081167ff23a6e610000000000000000000000000000000000000000000000000000000014610fb65760405162461bcd60e51b815260206004820152602860248201527f455243313135353a204552433131353552656365697665722072656a6563746560448201527f6420746f6b656e73000000000000000000000000000000000000000000000000606482015260840161058f565b6001600160a01b03841661256f5760405162461bcd60e51b815260206004820152602560248201527f455243313135353a207472616e7366657220746f20746865207a65726f20616460448201527f6472657373000000000000000000000000000000000000000000000000000000606482015260840161058f565b33600061257b85612296565b9050600061258885612296565b90506125988389898585896122e1565b6000868152602081815260408083206001600160a01b038c1684529091529020548581101561262f5760405162461bcd60e51b815260206004820152602a60248201527f455243313135353a20696e73756666696369656e742062616c616e636520666f60448201527f72207472616e7366657200000000000000000000000000000000000000000000606482015260840161058f565b6000878152602081815260408083206001600160a01b038d8116855292528083208985039055908a1682528120805488929061266c9084906136bf565b909155505060408051888152602081018890526001600160a01b03808b16928c821692918816917fc3d58168c5ae7397731d063d5bbf3d657854427343f4c083240f7aacaa2d0f62910160405180910390a46126cc848a8a8a8a8a6122ef565b505050505050505050565b6001600160a01b0384163b156121a9576040517fbc197c810000000000000000000000000000000000000000000000000000000081526001600160a01b0385169063bc197c81906127349089908990889088908890600401613819565b6020604051808303816000875af192505050801561276f575060408051601f3d908101601f1916820190925261276c91810190613738565b60015b61277b57612393613755565b7fffffffff0000000000000000000000000000000000000000000000000000000081167fbc197c810000000000000000000000000000000000000000000000000000000014610fb65760405162461bcd60e51b815260206004820152602860248201527f455243313135353a204552433131353552656365697665722072656a6563746560448201527f6420746f6b656e73000000000000000000000000000000000000000000000000606482015260840161058f565b606061284184846000856129d7565b949350505050565b6001600160a01b0385166128d05760005b83518110156128ce57828181518110612875576128756133ca565b602002602001015160066000868481518110612893576128936133ca565b6020026020010151815260200190815260200160002060008282546128b891906136bf565b909155506128c79050816133f9565b905061285a565b505b6001600160a01b0384166121a95760005b8351811015610fb65760008482815181106128fe576128fe6133ca565b60200260200101519050600084838151811061291c5761291c6133ca565b60200260200101519050600060066000848152602001908152602001600020549050818110156129b45760405162461bcd60e51b815260206004820152602860248201527f455243313135353a206275726e20616d6f756e74206578636565647320746f7460448201527f616c537570706c79000000000000000000000000000000000000000000000000606482015260840161058f565b600092835260066020526040909220910390556129d0816133f9565b90506128e1565b606082471015612a4f5760405162461bcd60e51b815260206004820152602660248201527f416464726573733a20696e73756666696369656e742062616c616e636520666f60448201527f722063616c6c0000000000000000000000000000000000000000000000000000606482015260840161058f565b6001600160a01b0385163b612aa65760405162461bcd60e51b815260206004820152601d60248201527f416464726573733a2063616c6c20746f206e6f6e2d636f6e7472616374000000604482015260640161058f565b600080866001600160a01b03168587604051612ac29190613877565b60006040518083038185875af1925050503d8060008114612aff576040519150601f19603f3d011682016040523d82523d6000602084013e612b04565b606091505b5091509150612b14828286612b1f565b979650505050505050565b60608315612b2e575081611434565b825115612b3e5782518084602001fd5b8160405162461bcd60e51b815260040161058f9190612dfa565b6001600160a01b0381168114610c3d57600080fd5b60008060408385031215612b8057600080fd5b8235612b8b81612b58565b946020939093013593505050565b600060208284031215612bab57600080fd5b5035919050565b7fffffffff0000000000000000000000000000000000000000000000000000000081168114610c3d57600080fd5b600060208284031215612bf257600080fd5b813561143481612bb2565b7f4e487b7100000000000000000000000000000000000000000000000000000000600052604160045260246000fd5b601f19601f830116810181811067ffffffffffffffff82111715612c5257612c52612bfd565b6040525050565b600082601f830112612c6a57600080fd5b813567ffffffffffffffff811115612c8457612c84612bfd565b604051612c9b6020601f19601f8501160182612c2c565b818152846020838601011115612cb057600080fd5b816020850160208301376000918101602001919091529392505050565b80356bffffffffffffffffffffffff81168114612ce957600080fd5b919050565b60008060008060008060008060006101208a8c031215612d0d57600080fd5b8935985060208a013567ffffffffffffffff811115612d2b57600080fd5b612d378c828d01612c59565b985050612d4660408b01612ccd565b9650612d5460608b01612ccd565b9550612d6260808b01612ccd565b9450612d7060a08b01612ccd565b9350612d7e60c08b01612ccd565b9250612d8c60e08b01612ccd565b9150612d9b6101008b01612ccd565b90509295985092959850929598565b60005b83811015612dc5578181015183820152602001612dad565b50506000910152565b60008151808452612de6816020860160208601612daa565b601f01601f19169290920160200192915050565b6020815260006114346020830184612dce565b60008060408385031215612e2057600080fd5b82359150602083013567ffffffffffffffff811115612e3e57600080fd5b612e4a85828601612c59565b9150509250929050565b600067ffffffffffffffff821115612e6e57612e6e612bfd565b5060051b60200190565b600082601f830112612e8957600080fd5b81356020612e9682612e54565b604051612ea38282612c2c565b83815260059390931b8501820192828101915086841115612ec357600080fd5b8286015b84811015612ede5780358352918301918301612ec7565b509695505050505050565b600080600080600060a08688031215612f0157600080fd5b8535612f0c81612b58565b94506020860135612f1c81612b58565b9350604086013567ffffffffffffffff80821115612f3957600080fd5b612f4589838a01612e78565b94506060880135915080821115612f5b57600080fd5b612f6789838a01612e78565b93506080880135915080821115612f7d57600080fd5b50612f8a88828901612c59565b9150509295509295909350565b600060208284031215612fa957600080fd5b813561143481612b58565b60008060408385031215612fc757600080fd5b823567ffffffffffffffff80821115612fdf57600080fd5b818501915085601f830112612ff357600080fd5b8135602061300082612e54565b60405161300d8282612c2c565b83815260059390931b850182019282810191508984111561302d57600080fd5b948201945b8386101561305457853561304581612b58565b82529482019490820190613032565b9650508601359250508082111561306a57600080fd5b50612e4a85828601612e78565b600081518084526020808501945080840160005b838110156130a75781518752958201959082019060010161308b565b509495945050505050565b6020815260006114346020830184613077565b6000602082840312156130d757600080fd5b813567ffffffffffffffff8111156130ee57600080fd5b61284184828501612c59565b8015158114610c3d57600080fd5b6000806040838503121561311b57600080fd5b823561312681612b58565b91506020830135613136816130fa565b809150509250929050565b60008083601f84011261315357600080fd5b50813567ffffffffffffffff81111561316b57600080fd5b6020830191508360208260051b850101111561318657600080fd5b9250929050565b600080600080600080606087890312156131a657600080fd5b863567ffffffffffffffff808211156131be57600080fd5b6131ca8a838b01613141565b909850965060208901359150808211156131e357600080fd5b6131ef8a838b01613141565b9096509450604089013591508082111561320857600080fd5b5061321589828a01613141565b979a9699509497509295939492505050565b60008060006060848603121561323c57600080fd5b8335925060208401359150604084013561325581612b58565b809150509250925092565b6000806040838503121561327357600080fd5b823561327e81612b58565b9150602083013561313681612b58565b600080600080600060a086880312156132a657600080fd5b85356132b181612b58565b945060208601356132c181612b58565b93506040860135925060608601359150608086013567ffffffffffffffff8111156132eb57600080fd5b612f8a88828901612c59565b7f4e487b7100000000000000000000000000000000000000000000000000000000600052601160045260246000fd5b6bffffffffffffffffffffffff81811683821601908082111561334b5761334b6132f7565b5092915050565b60006101008083526133668184018c612dce565b62ffffff9a909a166020840152505061ffff9687166040820152948616606086015292909416608084015260ff90811660a084015292831660c083015290911660e090910152919050565b6000602082840312156133c357600080fd5b5051919050565b7f4e487b7100000000000000000000000000000000000000000000000000000000600052603260045260246000fd5b60007fffffffffffffffffffffffffffffffffffffffffffffffffffffffffffffffff820361342a5761342a6132f7565b5060010190565b60006020828403121561344357600080fd5b8151611434816130fa565b600181811c9082168061346257607f821691505b60208210810361349b577f4e487b7100000000000000000000000000000000000000000000000000000000600052602260045260246000fd5b50919050565b601f8211156118d657600081815260208120601f850160051c810160208610156134c85750805b601f850160051c820191505b818110156121a9578281556001016134d4565b815167ffffffffffffffff81111561350157613501612bfd565b6135158161350f845461344e565b846134a1565b602080601f83116001811461356857600084156135325750858301515b7fffffffffffffffffffffffffffffffffffffffffffffffffffffffffffffffff600386901b1c1916600185901b1785556121a9565b600085815260208120601f198616915b8281101561359757888601518255948401946001909101908401613578565b50858210156135d357878501517fffffffffffffffffffffffffffffffffffffffffffffffffffffffffffffffff600388901b60f8161c191681555b5050505050600190811b01905550565b60008084546135f18161344e565b60018281168015613609576001811461363c5761366b565b7fffffffffffffffffffffffffffffffffffffffffffffffffffffffffffffff008416875282151583028701945061366b565b8860005260208060002060005b858110156136625781548a820152908401908201613649565b50505082870194505b50505050835161367f818360208801612daa565b01949350505050565b6000806040838503121561369b57600080fd5b505080516020909101519092909150565b818103818111156105bb576105bb6132f7565b808201808211156105bb576105bb6132f7565b6040815260006136e56040830185613077565b82810360208401526136f78185613077565b95945050505050565b60006001600160a01b03808816835280871660208401525084604083015283606083015260a06080830152612b1460a0830184612dce565b60006020828403121561374a57600080fd5b815161143481612bb2565b600060033d111561376e5760046000803e5060005160e01c5b90565b600060443d101561377f5790565b6040517ffffffffffffffffffffffffffffffffffffffffffffffffffffffffffffffffc803d016004833e81513d67ffffffffffffffff81602484011181841117156137cd57505050505090565b82850191508151818111156137e55750505050505090565b843d87010160208285010111156137ff5750505050505090565b61380e60208286010187612c2c565b509095945050505050565b60006001600160a01b03808816835280871660208401525060a0604083015261384560a0830186613077565b82810360608401526138578186613077565b9050828103608084015261386b8185612dce565b98975050505050505050565b60008251613889818460208701612daa565b919091019291505056fea264697066735822122024cba3b2f44259246eb474c97d90feda234c6e68c9a088e873c19669d4cdf9a564736f6c634300081100336101006040523480156200001257600080fd5b5060405162002dd138038062002dd18339810160408190526200003591620000d2565b3360a08190526001600160a01b0383166080526040518391906200005990620000a7565b6001600160a01b03928316815291166020820152604001604051809103906000f0801580156200008d573d6000803e3d6000fd5b506001600160a01b0390811660c0521660e052506200010a565b6115da80620017f783390190565b80516001600160a01b0381168114620000cd57600080fd5b919050565b60008060408385031215620000e657600080fd5b620000f183620000b5565b91506200010160208401620000b5565b90509250929050565b60805160a05160c05160e051611653620001a46000396000818160910152818161017c01526109c701526000818160e1015281816101bd0152818161026a015281816103b3015281816108b601528181610be501526110bc01526000818161011b015281816105910152610cd1015260008181610142015281816104df015281816107ef01528181610a520152610ff501526116536000f3fe608060405234801561001057600080fd5b50600436106100725760003560e01c806384c8c3741161005057806384c8c37414610103578063c4ceb24b14610116578063d1539b241461013d57600080fd5b8063722c4d2f14610077578063745fba841461008c578063753c3755146100dc575b600080fd5b61008a61008536600461124c565b610164565b005b6100b37f000000000000000000000000000000000000000000000000000000000000000081565b60405173ffffffffffffffffffffffffffffffffffffffff909116815260200160405180910390f35b6100b37f000000000000000000000000000000000000000000000000000000000000000081565b61008a61011136600461124c565b6109af565b6100b37f000000000000000000000000000000000000000000000000000000000000000081565b6100b37f000000000000000000000000000000000000000000000000000000000000000081565b3373ffffffffffffffffffffffffffffffffffffffff7f000000000000000000000000000000000000000000000000000000000000000016148015906101e057503373ffffffffffffffffffffffffffffffffffffffff7f00000000000000000000000000000000000000000000000000000000000000001614155b1561021e576040517ffd0dd63f0000000000000000000000000000000000000000000000000000000081523360048201526024015b60405180910390fd5b6040517f9120f6e20000000000000000000000000000000000000000000000000000000081526004810184905273ffffffffffffffffffffffffffffffffffffffff86811660248301527f00000000000000000000000000000000000000000000000000000000000000001690639120f6e290604401602060405180830381865afa1580156102b1573d6000803e3d6000fd5b505050506040513d601f19601f820116820180604052508101906102d5919061132f565b61032a576040517f6a528d360000000000000000000000000000000000000000000000000000000081526004810184905273ffffffffffffffffffffffffffffffffffffffff86166024820152604401610215565b6040805161010081018252600080825260208201819052818301819052606082018190526080820181905260a0820181905260c0820181905260e082015290517f29fbc3c400000000000000000000000000000000000000000000000000000000815273ffffffffffffffffffffffffffffffffffffffff8781166004830152602482018690527f000000000000000000000000000000000000000000000000000000000000000016906329fbc3c4906044016040805180830381865afa1580156103f9573d6000803e3d6000fd5b505050506040513d601f19601f8201168201806040525081019061041d9190611358565b60e083015260c0820181905283111561046c576040517f312b00330000000000000000000000000000000000000000000000000000000081526004810185905260248101849052604401610215565b8060e001518311156104ad576040517f22576d7800000000000000000000000000000000000000000000000000000000815260048101859052602401610215565b6040517f866cc99e000000000000000000000000000000000000000000000000000000008152600481018690526000907f000000000000000000000000000000000000000000000000000000000000000073ffffffffffffffffffffffffffffffffffffffff169063866cc99e90602401608060405180830381865afa15801561053b573d6000803e3d6000fd5b505050506040513d601f19601f8201168201806040525081019061055f919061137c565b6040517f0178fe3f000000000000000000000000000000000000000000000000000000008152600481018790529091507f000000000000000000000000000000000000000000000000000000000000000073ffffffffffffffffffffffffffffffffffffffff1690630178fe3f9060240160e060405180830381865afa1580156105ed573d6000803e3d6000fd5b505050506040513d601f19601f820116820180604052508101906106119190611425565b60ff90811660408a0181905291811660208a0152909116875261ffff91821660a0880152921660608601525060041115905061085c57606082015161ffff1615610672578160600151816040015161066991906114e4565b61ffff16610678565b80604001515b604082015260a082015161ffff16156106a8578160a00151816060015161069f91906114e4565b61ffff166106ae565b80606001515b6060820152604082015160ff166002036107a357604080516080810182526020808401805161ffff9081168452815160101c8116838501528151831c8116948401949094525160301c909216606082015290830151835160ff918216918391166004811061071e5761071e611506565b6020020181815161072f91906114e4565b61ffff16905250606081015160301b67ffff000000000000166020826002602002015161ffff16901b6010836001602002015161ffff16901b836000602002015161ffff1661077e9190611535565b6107889190611535565b6107929190611535565b67ffffffffffffffff166020830152505b6060810151604080830151602084015191517f04e8d61b00000000000000000000000000000000000000000000000000000000815273ffffffffffffffffffffffffffffffffffffffff7f000000000000000000000000000000000000000000000000000000000000000016936304e8d61b93610829938c939091908a90600401611556565b600060405180830381600087803b15801561084357600080fd5b505af1158015610857573d6000803e3d6000fd5b505050505b6040517fafd6dce700000000000000000000000000000000000000000000000000000000815273ffffffffffffffffffffffffffffffffffffffff88811660048301526024820188905260448201879052606482018690527f0000000000000000000000000000000000000000000000000000000000000000169063afd6dce7906084016020604051808303816000875af11580156108ff573d6000803e3d6000fd5b505050506040513d601f19601f82011682018060405250810190610923919061132f565b610959576040517f98c03fbf00000000000000000000000000000000000000000000000000000000815260040160405180910390fd5b60405173ffffffffffffffffffffffffffffffffffffffff88168152859087907ebffb44d1013125e9210b5aebe684893dea5b3fde84ccc2cb40c332165c5bbf906020015b60405180910390a350505050505050565b3373ffffffffffffffffffffffffffffffffffffffff7f00000000000000000000000000000000000000000000000000000000000000001614610a20576040517ffd0dd63f000000000000000000000000000000000000000000000000000000008152336004820152602401610215565b6040517f866cc99e000000000000000000000000000000000000000000000000000000008152600481018590526000907f000000000000000000000000000000000000000000000000000000000000000073ffffffffffffffffffffffffffffffffffffffff169063866cc99e90602401608060405180830381865afa158015610aae573d6000803e3d6000fd5b505050506040513d601f19601f82011682018060405250810190610ad2919061137c565b90508573ffffffffffffffffffffffffffffffffffffffff16816000015173ffffffffffffffffffffffffffffffffffffffff1614610b5c576040517f6a528d360000000000000000000000000000000000000000000000000000000081526004810185905273ffffffffffffffffffffffffffffffffffffffff87166024820152604401610215565b6040805161010081018252600080825260208201819052818301819052606082018190526080820181905260a0820181905260c0820181905260e082015290517f29fbc3c400000000000000000000000000000000000000000000000000000000815273ffffffffffffffffffffffffffffffffffffffff8881166004830152602482018790527f000000000000000000000000000000000000000000000000000000000000000016906329fbc3c4906044016040805180830381865afa158015610c2b573d6000803e3d6000fd5b505050506040513d601f19601f82011682018060405250810190610c4f9190611358565b60e0830181905260c08301829052610c66916115e9565b841115610ca2576040517f18b9fd9b00000000000000000000000000000000000000000000000000000000815260048101869052602401610215565b6040517f0178fe3f000000000000000000000000000000000000000000000000000000008152600481018690527f000000000000000000000000000000000000000000000000000000000000000073ffffffffffffffffffffffffffffffffffffffff1690630178fe3f9060240160e060405180830381865afa158015610d2d573d6000803e3d6000fd5b505050506040513d601f19601f82011682018060405250810190610d519190611425565b60ff9081166040808a01919091529181166020890152909116865261ffff91821660a0870152918116608086018190529216606085015284015110159050610ddb57608081015160408084015190517fdc4bb53400000000000000000000000000000000000000000000000000000000815261ffff90921660048301526024820152604401610215565b6004816040015160ff16101561106257606081015161ffff1615610e165781604001518160600151610e0d9190611602565b61ffff16610e1c565b81604001515b604083015260a081015161ffff1615610e4c5781606001518160a00151610e439190611602565b61ffff16610e52565b81606001515b6060830152604081015160ff16600203610fa957604080516080810182526020808501805161ffff9081168452815160101c8116838501528151831c8116948401949094525160301c909216606082015290820151825160649160ff9081169184911660048110610ec557610ec5611506565b6020020151610ed49190611602565b61ffff1611610f1257816020015160ff1681836000015160ff1660048110610efe57610efe611506565b6020020151610f0d9190611602565b610f15565b60645b8251829060ff1660048110610f2c57610f2c611506565b61ffff9290921660209283029190910152606082015160301b67ffff0000000000001690826002602002015161ffff16901b6010836001602002015161ffff16901b836000602002015161ffff16610f849190611535565b610f8e9190611535565b610f989190611535565b67ffffffffffffffff166020840152505b6060820151604080840151602085015191517f04e8d61b00000000000000000000000000000000000000000000000000000000815273ffffffffffffffffffffffffffffffffffffffff7f000000000000000000000000000000000000000000000000000000000000000016936304e8d61b9361102f938c939091908a90600401611556565b600060405180830381600087803b15801561104957600080fd5b505af115801561105d573d6000803e3d6000fd5b505050505b6040517fa9c290c300000000000000000000000000000000000000000000000000000000815273ffffffffffffffffffffffffffffffffffffffff88811660048301526024820188905260448201879052606482018690527f0000000000000000000000000000000000000000000000000000000000000000169063a9c290c3906084016020604051808303816000875af1158015611105573d6000803e3d6000fd5b505050506040513d601f19601f82011682018060405250810190611129919061132f565b61115f576040517f98c03fbf00000000000000000000000000000000000000000000000000000000815260040160405180910390fd5b60405173ffffffffffffffffffffffffffffffffffffffff88168152859087907fe680b1d06467a2fb56df38631fbd1115d14fac27a8d03871c2c955576d295fbe9060200161099e565b73ffffffffffffffffffffffffffffffffffffffff811681146111cb57600080fd5b50565b7f4e487b7100000000000000000000000000000000000000000000000000000000600052604160045260246000fd5b604051601f82017fffffffffffffffffffffffffffffffffffffffffffffffffffffffffffffffe016810167ffffffffffffffff81118282101715611244576112446111ce565b604052919050565b600080600080600060a0868803121561126457600080fd5b853561126f816111a9565b945060208681013594506040870135935060608701359250608087013567ffffffffffffffff808211156112a257600080fd5b818901915089601f8301126112b657600080fd5b8135818111156112c8576112c86111ce565b6112f8847fffffffffffffffffffffffffffffffffffffffffffffffffffffffffffffffe0601f840116016111fd565b91508082528a8482850101111561130e57600080fd5b80848401858401376000848284010152508093505050509295509295909350565b60006020828403121561134157600080fd5b8151801515811461135157600080fd5b9392505050565b6000806040838503121561136b57600080fd5b505080516020909101519092909150565b60006080828403121561138e57600080fd5b6040516080810167ffffffffffffffff82821081831117156113b2576113b26111ce565b81604052845191506113c3826111a9565b90825260208401519080821682146113da57600080fd5b506020820152604083810151908201526060928301519281019290925250919050565b805161ffff8116811461140f57600080fd5b919050565b805160ff8116811461140f57600080fd5b600080600080600080600060e0888a03121561144057600080fd5b875162ffffff8116811461145357600080fd5b9650611461602089016113fd565b955061146f604089016113fd565b945061147d606089016113fd565b935061148b60808901611414565b925061149960a08901611414565b91506114a760c08901611414565b905092959891949750929550565b7f4e487b7100000000000000000000000000000000000000000000000000000000600052601160045260246000fd5b61ffff8281168282160390808211156114ff576114ff6114b5565b5092915050565b7f4e487b7100000000000000000000000000000000000000000000000000000000600052603260045260246000fd5b67ffffffffffffffff8181168382160190808211156114ff576114ff6114b5565b85815260006020868184015285604084015267ffffffffffffffff8516606084015260a0608084015283518060a085015260005b818110156115a65785810183015185820160c00152820161158a565b50600060c0828601015260c07fffffffffffffffffffffffffffffffffffffffffffffffffffffffffffffffe0601f830116850101925050509695505050505050565b818103818111156115fc576115fc6114b5565b92915050565b61ffff8181168382160190808211156114ff576114ff6114b556fea2646970667358221220a35fbab3b60c26945fed6271cd6224c50afe57199c5eebc78430a0655a667c9164736f6c6343000811003360e060405234801561001057600080fd5b506040516115da3803806115da83398101604081905261002f91610066565b6001600160a01b039182166080521660a0523360c052610099565b80516001600160a01b038116811461006157600080fd5b919050565b6000806040838503121561007957600080fd5b6100828361004a565b91506100906020840161004a565b90509250929050565b60805160a05160c0516114d36101076000396000818161033701528181610c120152610d290152600081816102eb0152818161042a0152818161090d0152610b190152600081816103910152818161046b0152818161066e01528181610828015261094e01526114d36000f3fe608060405234801561001057600080fd5b506004361061016c5760003560e01c80639120f6e2116100cd578063cc201dcd11610081578063d1539b2411610066578063d1539b241461038c578063e60f6e2c146103b3578063f0bf1ac3146103d457600080fd5b8063cc201dcd14610359578063cd845cdd1461036c57600080fd5b8063afd6dce7116100b2578063afd6dce7146102d3578063c4ceb24b146102e6578063c6d908f11461033257600080fd5b80639120f6e2146102ad578063a9c290c3146102c057600080fd5b80636508b1b7116101245780637886cbc2116101095780637886cbc2146102655780638819b54d1461028557806388c536271461029857600080fd5b80636508b1b71461023f5780636bd870031461025257600080fd5b8063309c22cd11610155578063309c22cd146101f657806339b1ac62146102195780635ce7eacd1461022c57600080fd5b80632630c5e11461017157806329fbc3c414610197575b600080fd5b61018461017f3660046111aa565b6103dc565b6040519081526020015b60405180910390f35b6101e16101a53660046111c5565b600090815260036020908152604080832073ffffffffffffffffffffffffffffffffffffffff9490941683529290522080546001909101549091565b6040805192835260208301919091520161018e565b6102096102043660046111ef565b610410565b604051901515815260200161018e565b6101846102273660046111aa565b6105b6565b61020961023a366004611222565b610654565b61020961024d3660046111c5565b61080e565b6102096102603660046111ef565b6108f3565b61027861027336600461125e565b610adb565b60405161018e91906112b2565b61020961029336600461125e565b610af5565b6102ab6102a636600461125e565b610b01565b005b6102096102bb3660046112c5565b610bc6565b6102096102ce3660046112f1565b610bf8565b6102096102e13660046112f1565b610d0f565b61030d7f000000000000000000000000000000000000000000000000000000000000000081565b60405173ffffffffffffffffffffffffffffffffffffffff909116815260200161018e565b61030d7f000000000000000000000000000000000000000000000000000000000000000081565b6102096103673660046112c5565b610e59565b61037f61037a36600461125e565b610e88565b60405161018e919061132a565b61030d7f000000000000000000000000000000000000000000000000000000000000000081565b6103c66103c13660046111aa565b610ea2565b60405161018e929190611384565b610278610f11565b73ffffffffffffffffffffffffffffffffffffffff8116600090815260026020526040812061040a90610f22565b92915050565b60003373ffffffffffffffffffffffffffffffffffffffff7f0000000000000000000000000000000000000000000000000000000000000000161480159061048e57503373ffffffffffffffffffffffffffffffffffffffff7f00000000000000000000000000000000000000000000000000000000000000001614155b156104cc576040517ffd0dd63f0000000000000000000000000000000000000000000000000000000081523360048201526024015b60405180910390fd5b73ffffffffffffffffffffffffffffffffffffffff841660009081526002602081905260409091206104ff910184610f2c565b5060008381526004602052604090206105189085610f38565b50600083815260036020908152604080832073ffffffffffffffffffffffffffffffffffffffff88168452909152812080548492906105589084906113e1565b9091555050604051828152839073ffffffffffffffffffffffffffffffffffffffff8616907fa982a55c48430a4bd21cf79bc3ce27560d518389912a86f5e9afc4d61c78e91a906020015b60405180910390a35060015b9392505050565b73ffffffffffffffffffffffffffffffffffffffff81166000908152600260208190526040822001815b6105e982610f22565b81101561064d5760006105fc8383610f5a565b600081815260036020908152604080832073ffffffffffffffffffffffffffffffffffffffff8a16845290915290205490915061063990856113e1565b93505080610646906113f4565b90506105e0565b5050919050565b60003373ffffffffffffffffffffffffffffffffffffffff7f000000000000000000000000000000000000000000000000000000000000000016146106c7576040517ffd0dd63f0000000000000000000000000000000000000000000000000000000081523360048201526024016104c3565b60005b60008381526005602052604090206106e190610f22565b8110156107845760008381526005602052604081206107009083610f5a565b600081815260036020908152604080832073ffffffffffffffffffffffffffffffffffffffff8b16845290915281205491925061073e8884846108f3565b9050600061074d888585610410565b905081158061075a575080155b1561076d576000955050505050506105af565b50505050808061077c906113f4565b9150506106ca565b5073ffffffffffffffffffffffffffffffffffffffff841660009081526002602052604090206107b49083610f66565b156108045760405173ffffffffffffffffffffffffffffffffffffffff85169083907fd27a243fb83f7fe93074f6c6be292d5ee838bdf958ee1e2b7d6f855108c6dad790600090a35060016105af565b5060009392505050565b60003373ffffffffffffffffffffffffffffffffffffffff7f00000000000000000000000000000000000000000000000000000000000000001614610881576040517ffd0dd63f0000000000000000000000000000000000000000000000000000000081523360048201526024016104c3565b60405173ffffffffffffffffffffffffffffffffffffffff84169083907f25ecfb9f7091dd39c2805cabdb0676d77fb099bc4e0253b8a4a57bb3b7cd442390600090a373ffffffffffffffffffffffffffffffffffffffff831660009081526002602052604090206105af9083610f2c565b60003373ffffffffffffffffffffffffffffffffffffffff7f0000000000000000000000000000000000000000000000000000000000000000161480159061097157503373ffffffffffffffffffffffffffffffffffffffff7f00000000000000000000000000000000000000000000000000000000000000001614155b156109aa576040517ffd0dd63f0000000000000000000000000000000000000000000000000000000081523360048201526024016104c3565b600083815260036020908152604080832073ffffffffffffffffffffffffffffffffffffffff88168452909152812080548492906109e990849061142c565b9091555050600083815260036020908152604080832073ffffffffffffffffffffffffffffffffffffffff881684529091528120549003610a925773ffffffffffffffffffffffffffffffffffffffff841660009081526002602081905260408220610a56910185610f66565b600085815260046020526040812091925090610a729087610f72565b9050811580610a7f575080155b15610a8f576000925050506105af565b50505b828473ffffffffffffffffffffffffffffffffffffffff167f66c3e671c6fc6f8a6dae2b1d2b6e6ea14bc681bd9a356b81fd584fb099d9bed8846040516105a391815260200190565b600081815260056020526040902060609061040a90610f94565b600061040a8183610fa1565b3373ffffffffffffffffffffffffffffffffffffffff7f00000000000000000000000000000000000000000000000000000000000000001614610b72576040517ffd0dd63f0000000000000000000000000000000000000000000000000000000081523360048201526024016104c3565b610b7d600082610fa1565b15610bb7576040517f285373ed000000000000000000000000000000000000000000000000000000008152600481018290526024016104c3565b610bc2600082610f2c565b5050565b73ffffffffffffffffffffffffffffffffffffffff8116600090815260026020819052604082206105af910184610fa1565b60003373ffffffffffffffffffffffffffffffffffffffff7f00000000000000000000000000000000000000000000000000000000000000001614610c6b576040517ffd0dd63f0000000000000000000000000000000000000000000000000000000081523360048201526024016104c3565b6000848152600560205260409020610c839084610f2c565b50600083815260036020908152604080832073ffffffffffffffffffffffffffffffffffffffff8916845290915281206001018054849290610cc69084906113e1565b9091555050604051828152849084907f8676c6cf9b231256bd1636849e78909bdd6bda888998709f3accdba803bf7065906020015b60405180910390a35060015b949350505050565b60003373ffffffffffffffffffffffffffffffffffffffff7f00000000000000000000000000000000000000000000000000000000000000001614610d82576040517ffd0dd63f0000000000000000000000000000000000000000000000000000000081523360048201526024016104c3565b600083815260036020908152604080832073ffffffffffffffffffffffffffffffffffffffff8916845290915281206001018054849290610dc490849061142c565b9091555050600083815260036020908152604080832073ffffffffffffffffffffffffffffffffffffffff891684529091528120600101549003610e26576000848152600560205260409020610e1a9084610f66565b610e2657506000610d07565b83837f92d8a5cbb3dd722e25d2da9798e5981f2451abada9ef8433ec7f95a445bb0d6284604051610cfb91815260200190565b73ffffffffffffffffffffffffffffffffffffffff811660009081526002602052604081206105af9084610fa1565b600081815260046020526040902060609061040a90610f94565b73ffffffffffffffffffffffffffffffffffffffff811660009081526002602052604090206060908190610ed590610f94565b73ffffffffffffffffffffffffffffffffffffffff84166000908152600260208190526040909120919350610f0a9101610f94565b9050915091565b6060610f1d6000610f94565b905090565b600061040a825490565b60006105af8383610fb9565b60006105af8373ffffffffffffffffffffffffffffffffffffffff8416610fb9565b60006105af8383611008565b60006105af8383611032565b60006105af8373ffffffffffffffffffffffffffffffffffffffff8416611032565b606060006105af83611125565b600081815260018301602052604081205415156105af565b60008181526001830160205260408120546110005750815460018181018455600084815260208082209093018490558454848252828601909352604090209190915561040a565b50600061040a565b600082600001828154811061101f5761101f61143f565b9060005260206000200154905092915050565b6000818152600183016020526040812054801561111b57600061105660018361142c565b855490915060009061106a9060019061142c565b90508181146110cf57600086600001828154811061108a5761108a61143f565b90600052602060002001549050808760000184815481106110ad576110ad61143f565b6000918252602080832090910192909255918252600188019052604090208390555b85548690806110e0576110e061146e565b60019003818190600052602060002001600090559055856001016000868152602001908152602001600020600090556001935050505061040a565b600091505061040a565b60608160000180548060200260200160405190810160405280929190818152602001828054801561117557602002820191906000526020600020905b815481526020019060010190808311611161575b50505050509050919050565b803573ffffffffffffffffffffffffffffffffffffffff811681146111a557600080fd5b919050565b6000602082840312156111bc57600080fd5b6105af82611181565b600080604083850312156111d857600080fd5b6111e183611181565b946020939093013593505050565b60008060006060848603121561120457600080fd5b61120d84611181565b95602085013595506040909401359392505050565b60008060006060848603121561123757600080fd5b61124084611181565b925061124e60208501611181565b9150604084013590509250925092565b60006020828403121561127057600080fd5b5035919050565b600081518084526020808501945080840160005b838110156112a75781518752958201959082019060010161128b565b509495945050505050565b6020815260006105af6020830184611277565b600080604083850312156112d857600080fd5b823591506112e860208401611181565b90509250929050565b6000806000806080858703121561130757600080fd5b61131085611181565b966020860135965060408601359560600135945092505050565b6020808252825182820181905260009190848201906040850190845b8181101561137857835173ffffffffffffffffffffffffffffffffffffffff1683529284019291840191600101611346565b50909695505050505050565b6040815260006113976040830185611277565b82810360208401526113a98185611277565b95945050505050565b7f4e487b7100000000000000000000000000000000000000000000000000000000600052601160045260246000fd5b8082018082111561040a5761040a6113b2565b60007fffffffffffffffffffffffffffffffffffffffffffffffffffffffffffffffff8203611425576114256113b2565b5060010190565b8181038181111561040a5761040a6113b2565b7f4e487b7100000000000000000000000000000000000000000000000000000000600052603260045260246000fd5b7f4e487b7100000000000000000000000000000000000000000000000000000000600052603160045260246000fdfea2646970667358221220d5391eada97bddc0055c20e56ab368a29b6b563758bf4d414e92f24f6477e16464736f6c63430008110033",
  "linkReferences": {},
  "deployedLinkReferences": {}
}