{
  "_format": "hh-sol-artifact-1",
  "contractName": "Dex",
  "sourceName": "contracts/Dex.sol",
  "abi": [
    {
      "inputs": [
        {
          "internalType": "address",
          "name": "caller",
          "type": "address"
        }
      ],
      "name": "RestrictedAccess",
      "type": "error"
    },
    {
      "inputs": [
        {
          "internalType": "uint256",
          "name": "tokenId",
          "type": "uint256"
        }
      ],
      "name": "UpgradeNftNotAvailable",
      "type": "error"
    },
    {
      "anonymous": false,
      "inputs": [
        {
          "indexed": false,
          "internalType": "uint256",
          "name": "price",
          "type": "uint256"
        }
      ],
      "name": "BedroomNftPurchaseCostSetted",
      "type": "event"
    },
    {
      "anonymous": false,
      "inputs": [
        {
          "indexed": true,
          "internalType": "address",
          "name": "owner",
          "type": "address"
        },
        {
          "indexed": true,
          "internalType": "uint256",
          "name": "bedroomNftId",
          "type": "uint256"
        },
        {
          "indexed": false,
          "internalType": "uint256",
          "name": "price",
          "type": "uint256"
        }
      ],
      "name": "BedroomNftPurchased",
      "type": "event"
    },
    {
      "anonymous": false,
      "inputs": [
        {
          "indexed": false,
          "internalType": "uint8",
          "name": "version",
          "type": "uint8"
        }
      ],
      "name": "Initialized",
      "type": "event"
    },
    {
      "anonymous": false,
      "inputs": [
        {
          "indexed": true,
          "internalType": "address",
          "name": "previousOwner",
          "type": "address"
        },
        {
          "indexed": true,
          "internalType": "address",
          "name": "newOwner",
          "type": "address"
        }
      ],
      "name": "OwnershipTransferred",
      "type": "event"
    },
    {
      "anonymous": false,
      "inputs": [
        {
          "indexed": false,
          "internalType": "uint256",
          "name": "packId",
          "type": "uint256"
        },
        {
          "indexed": false,
          "internalType": "uint256",
          "name": "price",
          "type": "uint256"
        }
      ],
      "name": "PackCostSetted",
      "type": "event"
    },
    {
      "anonymous": false,
      "inputs": [
        {
          "indexed": true,
          "internalType": "address",
          "name": "owner",
          "type": "address"
        },
        {
          "indexed": true,
          "internalType": "uint256",
          "name": "packId",
          "type": "uint256"
        },
        {
          "indexed": false,
          "internalType": "uint256",
          "name": "bedroomNftId",
          "type": "uint256"
        },
        {
          "indexed": false,
          "internalType": "uint256",
          "name": "price",
          "type": "uint256"
        }
      ],
      "name": "PackPurchased",
      "type": "event"
    },
    {
      "anonymous": false,
      "inputs": [
        {
          "indexed": false,
          "internalType": "uint256",
          "name": "upgradeNftId",
          "type": "uint256"
        },
        {
          "indexed": false,
          "internalType": "uint256",
          "name": "amountAvailable",
          "type": "uint256"
        },
        {
          "indexed": false,
          "internalType": "bool",
          "name": "isAvailable",
          "type": "bool"
        }
      ],
      "name": "UpgradeNftBuyingDataSetted",
      "type": "event"
    },
    {
      "anonymous": false,
      "inputs": [
        {
          "indexed": true,
          "internalType": "uint256",
          "name": "bedroomNftId",
          "type": "uint256"
        },
        {
          "indexed": true,
          "internalType": "uint256",
          "name": "upgradeNftId",
          "type": "uint256"
        },
        {
          "indexed": false,
          "internalType": "string",
          "name": "designURI",
          "type": "string"
        }
      ],
      "name": "UpgradeNftLinkedToBedroomNft",
      "type": "event"
    },
    {
      "anonymous": false,
      "inputs": [
        {
          "indexed": true,
          "internalType": "address",
          "name": "owner",
          "type": "address"
        },
        {
          "indexed": true,
          "internalType": "uint256",
          "name": "upgradeNftId",
          "type": "uint256"
        },
        {
          "indexed": false,
          "internalType": "uint256",
          "name": "price",
          "type": "uint256"
        }
      ],
      "name": "UpgradeNftPurchased",
      "type": "event"
    },
    {
      "anonymous": false,
      "inputs": [
        {
          "indexed": true,
          "internalType": "uint256",
          "name": "bedroomNftId",
          "type": "uint256"
        },
        {
          "indexed": true,
          "internalType": "uint256",
          "name": "upgradeNftId",
          "type": "uint256"
        },
        {
          "indexed": false,
          "internalType": "string",
          "name": "designURI",
          "type": "string"
        }
      ],
      "name": "UpgradeNftUnlinkedFromBedroomNft",
      "type": "event"
    },
    {
      "anonymous": false,
      "inputs": [
        {
          "indexed": true,
          "internalType": "address",
          "name": "receiver",
          "type": "address"
        },
        {
          "indexed": false,
          "internalType": "uint256",
          "name": "price",
          "type": "uint256"
        }
      ],
      "name": "WithdrawMoney",
      "type": "event"
    },
    {
      "inputs": [],
      "name": "bedroomNftInstance",
      "outputs": [
        {
          "internalType": "contract IBedroomNft",
          "name": "",
          "type": "address"
        }
      ],
      "stateMutability": "view",
      "type": "function"
    },
    {
      "inputs": [],
      "name": "bedroomNftPurchaseCost",
      "outputs": [
        {
          "internalType": "uint256",
          "name": "",
          "type": "uint256"
        }
      ],
      "stateMutability": "view",
      "type": "function"
    },
    {
      "inputs": [],
      "name": "buyBedroomNft",
      "outputs": [],
      "stateMutability": "nonpayable",
      "type": "function"
    },
    {
      "inputs": [
        {
          "internalType": "uint256",
          "name": "_packId",
          "type": "uint256"
        }
      ],
      "name": "buyPack",
      "outputs": [],
      "stateMutability": "nonpayable",
      "type": "function"
    },
    {
      "inputs": [
        {
          "internalType": "uint256",
          "name": "_upgradeId",
          "type": "uint256"
        }
      ],
      "name": "buyUpgradeNft",
      "outputs": [],
      "stateMutability": "nonpayable",
      "type": "function"
    },
    {
      "inputs": [
        {
          "internalType": "uint256",
          "name": "_packId",
          "type": "uint256"
        }
      ],
      "name": "getPackData",
      "outputs": [
        {
          "internalType": "string",
          "name": "_designURI",
          "type": "string"
        },
        {
          "internalType": "uint256",
          "name": "_price",
          "type": "uint256"
        },
        {
          "internalType": "uint256[]",
          "name": "_upgradeIds",
          "type": "uint256[]"
        }
      ],
      "stateMutability": "view",
      "type": "function"
    },
    {
      "inputs": [
        {
          "internalType": "uint256",
          "name": "_upgradeId",
          "type": "uint256"
        }
      ],
      "name": "getUpgradeNftBuyingData",
      "outputs": [
        {
          "internalType": "uint256",
          "name": "_price",
          "type": "uint256"
        },
        {
          "internalType": "uint256",
          "name": "_amountAvailable",
          "type": "uint256"
        },
        {
          "internalType": "bool",
          "name": "_isAvailable",
          "type": "bool"
        }
      ],
      "stateMutability": "view",
      "type": "function"
    },
    {
      "inputs": [],
      "name": "healthTokenInstance",
      "outputs": [
        {
          "internalType": "contract IHealth",
          "name": "",
          "type": "address"
        }
      ],
      "stateMutability": "view",
      "type": "function"
    },
    {
      "inputs": [
        {
          "internalType": "address",
          "name": "_teamWallet",
          "type": "address"
        }
      ],
      "name": "initialize",
      "outputs": [],
      "stateMutability": "nonpayable",
      "type": "function"
    },
    {
      "inputs": [
        {
          "internalType": "uint256",
          "name": "_upgradeNftId",
          "type": "uint256"
        },
        {
          "internalType": "uint256",
          "name": "_bedroomNftId",
          "type": "uint256"
        },
        {
          "internalType": "string",
          "name": "_newDesignURI",
          "type": "string"
        }
      ],
      "name": "linkUpgradeNft",
      "outputs": [],
      "stateMutability": "nonpayable",
      "type": "function"
    },
    {
      "inputs": [
        {
          "internalType": "uint256[]",
          "name": "_upgradeNftIds",
          "type": "uint256[]"
        },
        {
          "internalType": "uint256",
          "name": "_bedroomNftId",
          "type": "uint256"
        },
        {
          "internalType": "string",
          "name": "_newDesignURI",
          "type": "string"
        }
      ],
      "name": "linkUpgradeNftBatch",
      "outputs": [],
      "stateMutability": "nonpayable",
      "type": "function"
    },
    {
      "inputs": [],
      "name": "owner",
      "outputs": [
        {
          "internalType": "address",
          "name": "",
          "type": "address"
        }
      ],
      "stateMutability": "view",
      "type": "function"
    },
    {
      "inputs": [],
      "name": "paymentToken",
      "outputs": [
        {
          "internalType": "contract IERC20Upgradeable",
          "name": "",
          "type": "address"
        }
      ],
      "stateMutability": "view",
      "type": "function"
    },
    {
      "inputs": [],
      "name": "renounceOwnership",
      "outputs": [],
      "stateMutability": "nonpayable",
      "type": "function"
    },
    {
      "inputs": [
        {
          "internalType": "contract ISleep",
          "name": "_sleepToken",
          "type": "address"
        },
        {
          "internalType": "contract IHealth",
          "name": "_healthToken",
          "type": "address"
        },
        {
          "internalType": "contract IBedroomNft",
          "name": "_bedroomNft",
          "type": "address"
        },
        {
          "internalType": "contract IUpgradeNft",
          "name": "_upgradeNft",
          "type": "address"
        },
        {
          "internalType": "contract ITracker",
          "name": "_tracker",
          "type": "address"
        },
        {
          "internalType": "contract IUpgrader",
          "name": "_upgrader",
          "type": "address"
        },
        {
          "internalType": "address",
          "name": "_teamWallet",
          "type": "address"
        },
        {
          "internalType": "address",
          "name": "_devWallet",
          "type": "address"
        },
        {
          "internalType": "contract IERC20Upgradeable",
          "name": "_tokenAddress",
          "type": "address"
        }
      ],
      "name": "setAddresses",
      "outputs": [],
      "stateMutability": "nonpayable",
      "type": "function"
    },
    {
      "inputs": [
        {
          "internalType": "uint256",
          "name": "_price",
          "type": "uint256"
        }
      ],
      "name": "setBuyingPrice",
      "outputs": [],
      "stateMutability": "nonpayable",
      "type": "function"
    },
    {
      "inputs": [
        {
          "internalType": "uint256[]",
          "name": "_upgradeIds",
          "type": "uint256[]"
        },
        {
          "internalType": "string",
          "name": "_designURI",
          "type": "string"
        },
        {
          "internalType": "uint256",
          "name": "_price",
          "type": "uint256"
        },
        {
          "internalType": "uint256",
          "name": "_packId",
          "type": "uint256"
        }
      ],
      "name": "setPackPrice",
      "outputs": [],
      "stateMutability": "nonpayable",
      "type": "function"
    },
    {
      "inputs": [
        {
          "internalType": "uint256",
          "name": "_upgradeId",
          "type": "uint256"
        },
        {
          "internalType": "uint256",
          "name": "_price",
          "type": "uint256"
        },
        {
          "internalType": "uint256",
          "name": "_amountAvailable",
          "type": "uint256"
        },
        {
          "internalType": "bool",
          "name": "_isAvailable",
          "type": "bool"
        }
      ],
      "name": "setUpgradeBuyingData",
      "outputs": [],
      "stateMutability": "nonpayable",
      "type": "function"
    },
    {
      "inputs": [
        {
          "internalType": "uint256[]",
          "name": "_upgradeIds",
          "type": "uint256[]"
        },
        {
          "internalType": "uint256[]",
          "name": "_prices",
          "type": "uint256[]"
        },
        {
          "internalType": "uint256[]",
          "name": "_amountsAvailable",
          "type": "uint256[]"
        },
        {
          "internalType": "bool[]",
          "name": "_isAvailable",
          "type": "bool[]"
        }
      ],
      "name": "setUpgradePriceBatch",
      "outputs": [],
      "stateMutability": "nonpayable",
      "type": "function"
    },
    {
      "inputs": [],
      "name": "sleepTokenInstance",
      "outputs": [
        {
          "internalType": "contract ISleep",
          "name": "",
          "type": "address"
        }
      ],
      "stateMutability": "view",
      "type": "function"
    },
    {
      "inputs": [],
      "name": "teamWallet",
      "outputs": [
        {
          "internalType": "address",
          "name": "",
          "type": "address"
        }
      ],
      "stateMutability": "view",
      "type": "function"
    },
    {
      "inputs": [],
      "name": "trackerInstance",
      "outputs": [
        {
          "internalType": "contract ITracker",
          "name": "",
          "type": "address"
        }
      ],
      "stateMutability": "view",
      "type": "function"
    },
    {
      "inputs": [
        {
          "internalType": "address",
          "name": "newOwner",
          "type": "address"
        }
      ],
      "name": "transferOwnership",
      "outputs": [],
      "stateMutability": "nonpayable",
      "type": "function"
    },
    {
      "inputs": [
        {
          "internalType": "uint256",
          "name": "_upgradeNftId",
          "type": "uint256"
        },
        {
          "internalType": "uint256",
          "name": "_bedroomNftId",
          "type": "uint256"
        },
        {
          "internalType": "string",
          "name": "_newDesignURI",
          "type": "string"
        }
      ],
      "name": "unlinkUpgradeNft",
      "outputs": [],
      "stateMutability": "nonpayable",
      "type": "function"
    },
    {
      "inputs": [],
      "name": "upgradeNftInstance",
      "outputs": [
        {
          "internalType": "contract IUpgradeNft",
          "name": "",
          "type": "address"
        }
      ],
      "stateMutability": "view",
      "type": "function"
    },
    {
      "inputs": [],
      "name": "upgraderInstance",
      "outputs": [
        {
          "internalType": "contract IUpgrader",
          "name": "",
          "type": "address"
        }
      ],
      "stateMutability": "view",
      "type": "function"
    },
    {
      "inputs": [
        {
          "internalType": "contract IERC20Upgradeable",
          "name": "_token",
          "type": "address"
        }
      ],
      "name": "withdrawMoney",
      "outputs": [],
      "stateMutability": "nonpayable",
      "type": "function"
    }
  ],
  "bytecode": "0x608060405234801561001057600080fd5b506127f8806100206000396000f3fe608060405234801561001057600080fd5b50600436106101b95760003560e01c80638da5cb5b116100f9578063cc09c81c11610097578063dc45bfb311610071578063dc45bfb3146103c9578063e6cf1e14146103dc578063ec49699c146103ef578063f2fde38b1461040257600080fd5b8063cc09c81c14610381578063d2bf36c014610394578063db6f3d6e146103b657600080fd5b8063ad53a1ca116100d3578063ad53a1ca146102f9578063b9a4f1551461030c578063bf0acc4f1461031f578063c4d66de81461036e57600080fd5b80638da5cb5b146102cd578063967f9ced146102de578063a37b9d45146102f157600080fd5b80634c0139ec11610166578063715018a611610140578063715018a61461028c578063753c37551461029457806376dcd15f146102a75780638b5729f8146102ba57600080fd5b80634c0139ec146102535780635992704414610266578063662720441461027957600080fd5b80633013ce29116101975780633013ce291461020257806330b67cb31461022d5780634a9c22761461024057600080fd5b806316219b12146101be5780632cd06753146101da5780632f971029146101ef575b600080fd5b6101c760a05481565b6040519081526020015b60405180910390f35b6101ed6101e8366004611f61565b610415565b005b6101ed6101fd366004611fc9565b61053d565b609f54610215906001600160a01b031681565b6040516001600160a01b0390911681526020016101d1565b609a54610215906001600160a01b031681565b609754610215906001600160a01b031681565b609854610215906001600160a01b031681565b609d54610215906001600160a01b031681565b6101ed610287366004611fe6565b610683565b6101ed61073f565b609b54610215906001600160a01b031681565b6101ed6102b53660046120e7565b610753565b6101ed6102c83660046121ab565b610957565b6033546001600160a01b0316610215565b6101ed6102ec3660046121d2565b610ba5565b6101ed610caf565b609c54610215906001600160a01b031681565b6101ed61031a366004611f61565b610dfd565b61035161032d3660046121ab565b600090815260a160205260409020600181015460028201549154909260ff90911690565b6040805193845260208401929092521515908201526060016101d1565b6101ed61037c366004611fc9565b610f0d565b6101ed61038f3660046121ab565b6110b9565b6103a76103a23660046121ab565b6110fc565b6040516101d193929190612281565b609954610215906001600160a01b031681565b6101ed6103d73660046121ab565b611232565b6101ed6103ea3660046122dd565b6115fe565b6101ed6103fd366004612357565b611753565b6101ed610410366004611fc9565b6118b7565b60026065540361046c5760405162461bcd60e51b815260206004820152601f60248201527f5265656e7472616e637947756172643a207265656e7472616e742063616c6c0060448201526064015b60405180910390fd5b6002606555609c546040517f722c4d2f0000000000000000000000000000000000000000000000000000000081526001600160a01b039091169063722c4d2f906104c5903390879089906001908990899060040161241e565b600060405180830381600087803b1580156104df57600080fd5b505af11580156104f3573d6000803e3d6000fd5b5050505083837fbaaa1c1358d5217aa8dfec7842169e8e3523437d8bb7f49f7438777acf089a85848460405161052a92919061245f565b60405180910390a3505060016065555050565b6033546001600160a01b031633148015906105635750609e546001600160a01b03163314155b1561059c576040517ffd0dd63f000000000000000000000000000000000000000000000000000000008152336004820152602401610463565b6040517f70a082310000000000000000000000000000000000000000000000000000000081523060048201526000906001600160a01b038316906370a0823190602401602060405180830381865afa1580156105fc573d6000803e3d6000fd5b505050506040513d601f19601f820116820180604052508101906106209190612473565b609d5490915061063d906001600160a01b03848116911683611947565b609d546040518281526001600160a01b03909116907f9fe2db218b58c00ab3556f2be44b2769b37978368c63313d82d78306568e47769060200160405180910390a25050565b61068b611a13565b609780547fffffffffffffffffffffffff00000000000000000000000000000000000000009081166001600160a01b039b8c1617909155609980548216988b1698909817909755609a80548816968a1696909617909555609b8054871694891694909417909355609c8054861692881692909217909155609d80548516918716919091179055609e80548416918616919091179055609f805483169185169190911790556098805490911691909216179055565b610747611a13565b6107516000611a6d565b565b6033546001600160a01b031633148015906107795750609e546001600160a01b03163314155b156107b2576040517ffd0dd63f000000000000000000000000000000000000000000000000000000008152336004820152602401610463565b60005b8781101561094c5760405180606001604052808484848181106107da576107da61248c565b90506020020160208101906107ef91906124bb565b151581526020018888848181106108085761080861248c565b9050602002013581526020018686848181106108265761082661248c565b9050602002013581525060a160008b8b858181106108465761084661248c565b60209081029290920135835250818101929092526040908101600020835181547fffffffffffffffffffffffffffffffffffffffffffffffffffffffffffffff001690151517815591830151600183015591909101516002909101557f804a7103be4a093b878da7b6839d50e2b0288f28990db3dc9297f478f14ddb238787838181106108d5576108d561248c565b905060200201358686848181106108ee576108ee61248c565b905060200201358585858181106109075761090761248c565b905060200201602081019061091c91906124bb565b60408051938452602084019290925215159082015260600160405180910390a161094581612507565b90506107b5565b505050505050505050565b6002606554036109a95760405162461bcd60e51b815260206004820152601f60248201527f5265656e7472616e637947756172643a207265656e7472616e742063616c6c006044820152606401610463565b60026065819055600082815260a160209081526040918290208251606081018452815460ff16158015825260018301549382019390935293015491830191909152806109f757506040810151155b15610a31576040517f82433ada00000000000000000000000000000000000000000000000000000000815260048101839052602401610463565b60975460208201516040517f79cc679000000000000000000000000000000000000000000000000000000000815233600482015260248101919091526001600160a01b03909116906379cc679090604401600060405180830381600087803b158015610a9c57600080fd5b505af1158015610ab0573d6000803e3d6000fd5b5050609a546040517fe7d3fe6b00000000000000000000000000000000000000000000000000000000815260048101869052600160248201523360448201526001600160a01b03909116925063e7d3fe6b9150606401600060405180830381600087803b158015610b2057600080fd5b505af1158015610b34573d6000803e3d6000fd5b505050600083815260a160205260408120600201805460019350909190610b5c90849061253f565b9091555050602081810151604051908152839133917f28cb75bc3386c2e9d5962637dfd76213f7b4acd661ae6fb7c23084cd1dab9115910160405180910390a350506001606555565b6033546001600160a01b03163314801590610bcb5750609e546001600160a01b03163314155b15610c04576040517ffd0dd63f000000000000000000000000000000000000000000000000000000008152336004820152602401610463565b6040805160608082018352831515808352602080840188815284860188815260008b815260a18452879020955186547fffffffffffffffffffffffffffffffffffffffffffffffffffffffffffffff001690151517865590516001860155516002909401939093558351888152928301869052928201929092527f804a7103be4a093b878da7b6839d50e2b0288f28990db3dc9297f478f14ddb23910160405180910390a150505050565b600260655403610d015760405162461bcd60e51b815260206004820152601f60248201527f5265656e7472616e637947756172643a207265656e7472616e742063616c6c006044820152606401610463565b600260655560a054609f54610d25916001600160a01b039091169033903090611ad7565b6099546040517fc0404a890000000000000000000000000000000000000000000000000000000081523360048201526000916001600160a01b03169063c0404a89906024016020604051808303816000875af1158015610d89573d6000803e3d6000fd5b505050506040513d601f19601f82011682018060405250810190610dad9190612473565b905080336001600160a01b03167f1da13dc6e1135fc1e1f8e5e646d9cfea541daaac7e66f6594cea01f3d436a95c60a054604051610ded91815260200190565b60405180910390a3506001606555565b600260655403610e4f5760405162461bcd60e51b815260206004820152601f60248201527f5265656e7472616e637947756172643a207265656e7472616e742063616c6c006044820152606401610463565b6002606555609c546040517f84c8c3740000000000000000000000000000000000000000000000000000000081526001600160a01b03909116906384c8c37490610ea8903390879089906001908990899060040161241e565b600060405180830381600087803b158015610ec257600080fd5b505af1158015610ed6573d6000803e3d6000fd5b5050505083837fcf810af91477a02f6226b6592fb56789b8c4a9b5e7701901a167340618b9c26c848460405161052a92919061245f565b600054610100900460ff1615808015610f2d5750600054600160ff909116105b80610f475750303b158015610f47575060005460ff166001145b610fb95760405162461bcd60e51b815260206004820152602e60248201527f496e697469616c697a61626c653a20636f6e747261637420697320616c72656160448201527f647920696e697469616c697a65640000000000000000000000000000000000006064820152608401610463565b600080547fffffffffffffffffffffffffffffffffffffffffffffffffffffffffffffff00166001179055801561101757600080547fffffffffffffffffffffffffffffffffffffffffffffffffffffffffffff00ff166101001790555b61101f611b2e565b609d80547fffffffffffffffffffffffff0000000000000000000000000000000000000000166001600160a01b03841617905580156110b557600080547fffffffffffffffffffffffffffffffffffffffffffffffffffffffffffff00ff169055604051600181527f7f26b83ff96e1f2b6a682f133852f6798a09c465da95921460cefb38474024989060200160405180910390a15b5050565b6110c1611a13565b60a08190556040518181527f09def7a598677097ec67e16afdab67cb5e11aa8ae016500ced0c5b0696168c5c9060200160405180910390a150565b606060006060600060a2600086815260200190815260200160002060405180606001604052908160008201805461113290612558565b80601f016020809104026020016040519081016040528092919081815260200182805461115e90612558565b80156111ab5780601f10611180576101008083540402835291602001916111ab565b820191906000526020600020905b81548152906001019060200180831161118e57829003601f168201915b50505050508152602001600182015481526020016002820180548060200260200160405190810160405280929190818152602001828054801561120d57602002820191906000526020600020905b8154815260200190600101908083116111f9575b5050509190925250508151602083015160409093015190989297509550909350505050565b6002606554036112845760405162461bcd60e51b815260206004820152601f60248201527f5265656e7472616e637947756172643a207265656e7472616e742063616c6c006044820152606401610463565b6002606555600081815260a260205260408082208151606081019092528054829082906112b090612558565b80601f01602080910402602001604051908101604052809291908181526020018280546112dc90612558565b80156113295780601f106112fe57610100808354040283529160200191611329565b820191906000526020600020905b81548152906001019060200180831161130c57829003601f168201915b50505050508152602001600182015481526020016002820180548060200260200160405190810160405280929190818152602001828054801561138b57602002820191906000526020600020905b815481526020019060010190808311611377575b505050919092525050506020810151609f549192506113b7916001600160a01b03169033903090611ad7565b6099546040517fc0404a890000000000000000000000000000000000000000000000000000000081523360048201526000916001600160a01b03169063c0404a89906024016020604051808303816000875af115801561141b573d6000803e3d6000fd5b505050506040513d601f19601f8201168201806040525081019061143f9190612473565b905060005b8260400151518110156115a257609a54604084015180516001600160a01b039092169163e7d3fe6b91908490811061147e5761147e61248c565b60209081029190910101516040517fffffffff0000000000000000000000000000000000000000000000000000000060e084901b168152600481019190915260016024820152336044820152606401600060405180830381600087803b1580156114e757600080fd5b505af11580156114fb573d6000803e3d6000fd5b5050609c54604086015180516001600160a01b0390921693506384c8c37492503391869190869081106115305761153061248c565b6020026020010151600188600001516040518663ffffffff1660e01b815260040161155f9594939291906125ab565b600060405180830381600087803b15801561157957600080fd5b505af115801561158d573d6000803e3d6000fd5b505050508061159b90612507565b9050611444565b5082336001600160a01b03167f11e81bf87c6427f4f3428e770648b73c1f9449fb0756ef2511c04e7edd85c1748385602001516040516115ec929190918252602082015260400190565b60405180910390a35050600160655550565b6002606554036116505760405162461bcd60e51b815260206004820152601f60248201527f5265656e7472616e637947756172643a207265656e7472616e742063616c6c006044820152606401610463565b600260655560005b8481101561174657609c546001600160a01b03166384c8c374338888858181106116845761168461248c565b9050602002013587600188886040518763ffffffff1660e01b81526004016116b19695949392919061241e565b600060405180830381600087803b1580156116cb57600080fd5b505af11580156116df573d6000803e3d6000fd5b505050508585828181106116f5576116f561248c565b90506020020135847fcf810af91477a02f6226b6592fb56789b8c4a9b5e7701901a167340618b9c26c858560405161172e92919061245f565b60405180910390a361173f81612507565b9050611658565b5050600160655550505050565b6033546001600160a01b031633148015906117795750609e546001600160a01b03163314155b156117b2576040517ffd0dd63f000000000000000000000000000000000000000000000000000000008152336004820152602401610463565b604051806060016040528085858080601f016020809104026020016040519081016040528093929190818152602001838380828437600092019190915250505090825250602080820185905260408051898302818101840183528a82529190930192918a918a91829190850190849080828437600092018290525093909452505083815260a26020526040902082519091508190611850908261265c565b506020828101516001830155604083015180516118739260028501920190611eb8565b505060408051838152602081018590527f3b476e42134272c776308de426267603f668faa272ca2c67706e371722462aa292500160405180910390a1505050505050565b6118bf611a13565b6001600160a01b03811661193b5760405162461bcd60e51b815260206004820152602660248201527f4f776e61626c653a206e6577206f776e657220697320746865207a65726f206160448201527f64647265737300000000000000000000000000000000000000000000000000006064820152608401610463565b61194481611a6d565b50565b6040516001600160a01b038316602482015260448101829052611a0e9084907fa9059cbb00000000000000000000000000000000000000000000000000000000906064015b604080517fffffffffffffffffffffffffffffffffffffffffffffffffffffffffffffffe08184030181529190526020810180517bffffffffffffffffffffffffffffffffffffffffffffffffffffffff167fffffffff0000000000000000000000000000000000000000000000000000000090931692909217909152611bb3565b505050565b6033546001600160a01b031633146107515760405162461bcd60e51b815260206004820181905260248201527f4f776e61626c653a2063616c6c6572206973206e6f7420746865206f776e65726044820152606401610463565b603380546001600160a01b038381167fffffffffffffffffffffffff0000000000000000000000000000000000000000831681179093556040519116919082907f8be0079c531659141344cd1fd0a4f28419497f9722a3daafe3b4186f6b6457e090600090a35050565b6040516001600160a01b0380851660248301528316604482015260648101829052611b289085907f23b872dd000000000000000000000000000000000000000000000000000000009060840161198c565b50505050565b600054610100900460ff16611bab5760405162461bcd60e51b815260206004820152602b60248201527f496e697469616c697a61626c653a20636f6e7472616374206973206e6f74206960448201527f6e697469616c697a696e670000000000000000000000000000000000000000006064820152608401610463565b610751611c98565b6000611c08826040518060400160405280602081526020017f5361666545524332303a206c6f772d6c6576656c2063616c6c206661696c6564815250856001600160a01b0316611d1e9092919063ffffffff16565b805190915015611a0e5780806020019051810190611c269190612776565b611a0e5760405162461bcd60e51b815260206004820152602a60248201527f5361666545524332303a204552433230206f7065726174696f6e20646964206e60448201527f6f742073756363656564000000000000000000000000000000000000000000006064820152608401610463565b600054610100900460ff16611d155760405162461bcd60e51b815260206004820152602b60248201527f496e697469616c697a61626c653a20636f6e7472616374206973206e6f74206960448201527f6e697469616c697a696e670000000000000000000000000000000000000000006064820152608401610463565b61075133611a6d565b6060611d2d8484600085611d37565b90505b9392505050565b606082471015611daf5760405162461bcd60e51b815260206004820152602660248201527f416464726573733a20696e73756666696369656e742062616c616e636520666f60448201527f722063616c6c00000000000000000000000000000000000000000000000000006064820152608401610463565b6001600160a01b0385163b611e065760405162461bcd60e51b815260206004820152601d60248201527f416464726573733a2063616c6c20746f206e6f6e2d636f6e74726163740000006044820152606401610463565b600080866001600160a01b03168587604051611e229190612793565b60006040518083038185875af1925050503d8060008114611e5f576040519150601f19603f3d011682016040523d82523d6000602084013e611e64565b606091505b5091509150611e74828286611e7f565b979650505050505050565b60608315611e8e575081611d30565b825115611e9e5782518084602001fd5b8160405162461bcd60e51b815260040161046391906127af565b828054828255906000526020600020908101928215611ef3579160200282015b82811115611ef3578251825591602001919060010190611ed8565b50611eff929150611f03565b5090565b5b80821115611eff5760008155600101611f04565b60008083601f840112611f2a57600080fd5b50813567ffffffffffffffff811115611f4257600080fd5b602083019150836020828501011115611f5a57600080fd5b9250929050565b60008060008060608587031215611f7757600080fd5b8435935060208501359250604085013567ffffffffffffffff811115611f9c57600080fd5b611fa887828801611f18565b95989497509550505050565b6001600160a01b038116811461194457600080fd5b600060208284031215611fdb57600080fd5b8135611d3081611fb4565b60008060008060008060008060006101208a8c03121561200557600080fd5b893561201081611fb4565b985060208a013561202081611fb4565b975060408a013561203081611fb4565b965060608a013561204081611fb4565b955060808a013561205081611fb4565b945060a08a013561206081611fb4565b935060c08a013561207081611fb4565b925060e08a013561208081611fb4565b91506101008a013561209181611fb4565b809150509295985092959850929598565b60008083601f8401126120b457600080fd5b50813567ffffffffffffffff8111156120cc57600080fd5b6020830191508360208260051b8501011115611f5a57600080fd5b6000806000806000806000806080898b03121561210357600080fd5b883567ffffffffffffffff8082111561211b57600080fd5b6121278c838d016120a2565b909a50985060208b013591508082111561214057600080fd5b61214c8c838d016120a2565b909850965060408b013591508082111561216557600080fd5b6121718c838d016120a2565b909650945060608b013591508082111561218a57600080fd5b506121978b828c016120a2565b999c989b5096995094979396929594505050565b6000602082840312156121bd57600080fd5b5035919050565b801515811461194457600080fd5b600080600080608085870312156121e857600080fd5b8435935060208501359250604085013591506060850135612208816121c4565b939692955090935050565b60005b8381101561222e578181015183820152602001612216565b50506000910152565b6000815180845261224f816020860160208601612213565b601f017fffffffffffffffffffffffffffffffffffffffffffffffffffffffffffffffe0169290920160200192915050565b6060815260006122946060830186612237565b6020838101869052838203604085015284518083528582019282019060005b818110156122cf578451835293830193918301916001016122b3565b509098975050505050505050565b6000806000806000606086880312156122f557600080fd5b853567ffffffffffffffff8082111561230d57600080fd5b61231989838a016120a2565b909750955060208801359450604088013591508082111561233957600080fd5b5061234688828901611f18565b969995985093965092949392505050565b6000806000806000806080878903121561237057600080fd5b863567ffffffffffffffff8082111561238857600080fd5b6123948a838b016120a2565b909850965060208901359150808211156123ad57600080fd5b506123ba89828a01611f18565b979a9699509760408101359660609091013595509350505050565b8183528181602085013750600060208284010152600060207fffffffffffffffffffffffffffffffffffffffffffffffffffffffffffffffe0601f840116840101905092915050565b6001600160a01b038716815285602082015284604082015283606082015260a06080820152600061245360a0830184866123d5565b98975050505050505050565b602081526000611d2d6020830184866123d5565b60006020828403121561248557600080fd5b5051919050565b7f4e487b7100000000000000000000000000000000000000000000000000000000600052603260045260246000fd5b6000602082840312156124cd57600080fd5b8135611d30816121c4565b7f4e487b7100000000000000000000000000000000000000000000000000000000600052601160045260246000fd5b60007fffffffffffffffffffffffffffffffffffffffffffffffffffffffffffffffff8203612538576125386124d8565b5060010190565b81810381811115612552576125526124d8565b92915050565b600181811c9082168061256c57607f821691505b6020821081036125a5577f4e487b7100000000000000000000000000000000000000000000000000000000600052602260045260246000fd5b50919050565b6001600160a01b038616815284602082015283604082015282606082015260a060808201526000611e7460a0830184612237565b7f4e487b7100000000000000000000000000000000000000000000000000000000600052604160045260246000fd5b601f821115611a0e57600081815260208120601f850160051c810160208610156126355750805b601f850160051c820191505b8181101561265457828155600101612641565b505050505050565b815167ffffffffffffffff811115612676576126766125df565b61268a816126848454612558565b8461260e565b602080601f8311600181146126dd57600084156126a75750858301515b7fffffffffffffffffffffffffffffffffffffffffffffffffffffffffffffffff600386901b1c1916600185901b178555612654565b6000858152602081207fffffffffffffffffffffffffffffffffffffffffffffffffffffffffffffffe08616915b8281101561272a5788860151825594840194600190910190840161270b565b508582101561276657878501517fffffffffffffffffffffffffffffffffffffffffffffffffffffffffffffffff600388901b60f8161c191681555b5050505050600190811b01905550565b60006020828403121561278857600080fd5b8151611d30816121c4565b600082516127a5818460208701612213565b9190910192915050565b602081526000611d30602083018461223756fea264697066735822122069f1e25246aa6b527c7ca30af89a2e92fef4ad42f42e292e4692f9bdc70ddda264736f6c63430008110033",
  "linkReferences": {},
  "deployedLinkReferences": {}
}