{
  "_format": "hh-sol-artifact-1",
  "contractName": "Health",
  "sourceName": "contracts/Tokens/Health.sol",
  "abi": [
    {
      "inputs": [
        {
          "internalType": "uint256",
          "name": "_totalSupply",
          "type": "uint256"
        }
      ],
      "stateMutability": "nonpayable",
      "type": "constructor"
    },
    {
      "inputs": [],
      "name": "TotalSupplyLimitReached",
      "type": "error"
    },
    {
      "anonymous": false,
      "inputs": [
        {
          "indexed": true,
          "internalType": "address",
          "name": "owner",
          "type": "address"
        },
        {
          "indexed": true,
          "internalType": "address",
          "name": "spender",
          "type": "address"
        },
        {
          "indexed": false,
          "internalType": "uint256",
          "name": "value",
          "type": "uint256"
        }
      ],
      "name": "Approval",
      "type": "event"
    },
    {
      "anonymous": false,
      "inputs": [
        {
          "indexed": true,
          "internalType": "address",
          "name": "delegator",
          "type": "address"
        },
        {
          "indexed": true,
          "internalType": "address",
          "name": "fromDelegate",
          "type": "address"
        },
        {
          "indexed": true,
          "internalType": "address",
          "name": "toDelegate",
          "type": "address"
        }
      ],
      "name": "DelegateChanged",
      "type": "event"
    },
    {
      "anonymous": false,
      "inputs": [
        {
          "indexed": true,
          "internalType": "address",
          "name": "delegate",
          "type": "address"
        },
        {
          "indexed": false,
          "internalType": "uint256",
          "name": "previousBalance",
          "type": "uint256"
        },
        {
          "indexed": false,
          "internalType": "uint256",
          "name": "newBalance",
          "type": "uint256"
        }
      ],
      "name": "DelegateVotesChanged",
      "type": "event"
    },
    {
      "anonymous": false,
      "inputs": [
        {
          "indexed": true,
          "internalType": "address",
          "name": "previousOwner",
          "type": "address"
        },
        {
          "indexed": true,
          "internalType": "address",
          "name": "newOwner",
          "type": "address"
        }
      ],
      "name": "OwnershipTransferred",
      "type": "event"
    },
    {
      "anonymous": false,
      "inputs": [
        {
          "indexed": false,
          "internalType": "address",
          "name": "account",
          "type": "address"
        }
      ],
      "name": "Paused",
      "type": "event"
    },
    {
      "anonymous": false,
      "inputs": [
        {
          "indexed": true,
          "internalType": "address",
          "name": "from",
          "type": "address"
        },
        {
          "indexed": true,
          "internalType": "address",
          "name": "to",
          "type": "address"
        },
        {
          "indexed": false,
          "internalType": "uint256",
          "name": "value",
          "type": "uint256"
        }
      ],
      "name": "Transfer",
      "type": "event"
    },
    {
      "anonymous": false,
      "inputs": [
        {
          "indexed": false,
          "internalType": "address",
          "name": "account",
          "type": "address"
        }
      ],
      "name": "Unpaused",
      "type": "event"
    },
    {
      "inputs": [],
      "name": "DOMAIN_SEPARATOR",
      "outputs": [
        {
          "internalType": "bytes32",
          "name": "",
          "type": "bytes32"
        }
      ],
      "stateMutability": "view",
      "type": "function"
    },
    {
      "inputs": [
        {
          "internalType": "address",
          "name": "owner",
          "type": "address"
        },
        {
          "internalType": "address",
          "name": "spender",
          "type": "address"
        }
      ],
      "name": "allowance",
      "outputs": [
        {
          "internalType": "uint256",
          "name": "",
          "type": "uint256"
        }
      ],
      "stateMutability": "view",
      "type": "function"
    },
    {
      "inputs": [
        {
          "internalType": "address",
          "name": "spender",
          "type": "address"
        },
        {
          "internalType": "uint256",
          "name": "amount",
          "type": "uint256"
        }
      ],
      "name": "approve",
      "outputs": [
        {
          "internalType": "bool",
          "name": "",
          "type": "bool"
        }
      ],
      "stateMutability": "nonpayable",
      "type": "function"
    },
    {
      "inputs": [
        {
          "internalType": "address",
          "name": "account",
          "type": "address"
        }
      ],
      "name": "balanceOf",
      "outputs": [
        {
          "internalType": "uint256",
          "name": "",
          "type": "uint256"
        }
      ],
      "stateMutability": "view",
      "type": "function"
    },
    {
      "inputs": [
        {
          "internalType": "uint256",
          "name": "amount",
          "type": "uint256"
        }
      ],
      "name": "burn",
      "outputs": [],
      "stateMutability": "nonpayable",
      "type": "function"
    },
    {
      "inputs": [
        {
          "internalType": "address",
          "name": "account",
          "type": "address"
        },
        {
          "internalType": "uint256",
          "name": "amount",
          "type": "uint256"
        }
      ],
      "name": "burnFrom",
      "outputs": [],
      "stateMutability": "nonpayable",
      "type": "function"
    },
    {
      "inputs": [
        {
          "internalType": "address",
          "name": "account",
          "type": "address"
        },
        {
          "internalType": "uint32",
          "name": "pos",
          "type": "uint32"
        }
      ],
      "name": "checkpoints",
      "outputs": [
        {
          "components": [
            {
              "internalType": "uint32",
              "name": "fromBlock",
              "type": "uint32"
            },
            {
              "internalType": "uint224",
              "name": "votes",
              "type": "uint224"
            }
          ],
          "internalType": "struct ERC20Votes.Checkpoint",
          "name": "",
          "type": "tuple"
        }
      ],
      "stateMutability": "view",
      "type": "function"
    },
    {
      "inputs": [],
      "name": "decimals",
      "outputs": [
        {
          "internalType": "uint8",
          "name": "",
          "type": "uint8"
        }
      ],
      "stateMutability": "view",
      "type": "function"
    },
    {
      "inputs": [
        {
          "internalType": "address",
          "name": "spender",
          "type": "address"
        },
        {
          "internalType": "uint256",
          "name": "subtractedValue",
          "type": "uint256"
        }
      ],
      "name": "decreaseAllowance",
      "outputs": [
        {
          "internalType": "bool",
          "name": "",
          "type": "bool"
        }
      ],
      "stateMutability": "nonpayable",
      "type": "function"
    },
    {
      "inputs": [
        {
          "internalType": "address",
          "name": "delegatee",
          "type": "address"
        }
      ],
      "name": "delegate",
      "outputs": [],
      "stateMutability": "nonpayable",
      "type": "function"
    },
    {
      "inputs": [
        {
          "internalType": "address",
          "name": "delegatee",
          "type": "address"
        },
        {
          "internalType": "uint256",
          "name": "nonce",
          "type": "uint256"
        },
        {
          "internalType": "uint256",
          "name": "expiry",
          "type": "uint256"
        },
        {
          "internalType": "uint8",
          "name": "v",
          "type": "uint8"
        },
        {
          "internalType": "bytes32",
          "name": "r",
          "type": "bytes32"
        },
        {
          "internalType": "bytes32",
          "name": "s",
          "type": "bytes32"
        }
      ],
      "name": "delegateBySig",
      "outputs": [],
      "stateMutability": "nonpayable",
      "type": "function"
    },
    {
      "inputs": [
        {
          "internalType": "address",
          "name": "account",
          "type": "address"
        }
      ],
      "name": "delegates",
      "outputs": [
        {
          "internalType": "address",
          "name": "",
          "type": "address"
        }
      ],
      "stateMutability": "view",
      "type": "function"
    },
    {
      "inputs": [
        {
          "internalType": "uint256",
          "name": "blockNumber",
          "type": "uint256"
        }
      ],
      "name": "getPastTotalSupply",
      "outputs": [
        {
          "internalType": "uint256",
          "name": "",
          "type": "uint256"
        }
      ],
      "stateMutability": "view",
      "type": "function"
    },
    {
      "inputs": [
        {
          "internalType": "address",
          "name": "account",
          "type": "address"
        },
        {
          "internalType": "uint256",
          "name": "blockNumber",
          "type": "uint256"
        }
      ],
      "name": "getPastVotes",
      "outputs": [
        {
          "internalType": "uint256",
          "name": "",
          "type": "uint256"
        }
      ],
      "stateMutability": "view",
      "type": "function"
    },
    {
      "inputs": [
        {
          "internalType": "address",
          "name": "account",
          "type": "address"
        }
      ],
      "name": "getVotes",
      "outputs": [
        {
          "internalType": "uint256",
          "name": "",
          "type": "uint256"
        }
      ],
      "stateMutability": "view",
      "type": "function"
    },
    {
      "inputs": [
        {
          "internalType": "address",
          "name": "spender",
          "type": "address"
        },
        {
          "internalType": "uint256",
          "name": "addedValue",
          "type": "uint256"
        }
      ],
      "name": "increaseAllowance",
      "outputs": [
        {
          "internalType": "bool",
          "name": "",
          "type": "bool"
        }
      ],
      "stateMutability": "nonpayable",
      "type": "function"
    },
    {
      "inputs": [],
      "name": "maxSupply",
      "outputs": [
        {
          "internalType": "uint256",
          "name": "",
          "type": "uint256"
        }
      ],
      "stateMutability": "view",
      "type": "function"
    },
    {
      "inputs": [
        {
          "internalType": "address",
          "name": "_to",
          "type": "address"
        },
        {
          "internalType": "uint256",
          "name": "_amount",
          "type": "uint256"
        }
      ],
      "name": "mint",
      "outputs": [],
      "stateMutability": "nonpayable",
      "type": "function"
    },
    {
      "inputs": [],
      "name": "name",
      "outputs": [
        {
          "internalType": "string",
          "name": "",
          "type": "string"
        }
      ],
      "stateMutability": "view",
      "type": "function"
    },
    {
      "inputs": [
        {
          "internalType": "address",
          "name": "owner",
          "type": "address"
        }
      ],
      "name": "nonces",
      "outputs": [
        {
          "internalType": "uint256",
          "name": "",
          "type": "uint256"
        }
      ],
      "stateMutability": "view",
      "type": "function"
    },
    {
      "inputs": [
        {
          "internalType": "address",
          "name": "account",
          "type": "address"
        }
      ],
      "name": "numCheckpoints",
      "outputs": [
        {
          "internalType": "uint32",
          "name": "",
          "type": "uint32"
        }
      ],
      "stateMutability": "view",
      "type": "function"
    },
    {
      "inputs": [],
      "name": "owner",
      "outputs": [
        {
          "internalType": "address",
          "name": "",
          "type": "address"
        }
      ],
      "stateMutability": "view",
      "type": "function"
    },
    {
      "inputs": [],
      "name": "pause",
      "outputs": [],
      "stateMutability": "nonpayable",
      "type": "function"
    },
    {
      "inputs": [],
      "name": "paused",
      "outputs": [
        {
          "internalType": "bool",
          "name": "",
          "type": "bool"
        }
      ],
      "stateMutability": "view",
      "type": "function"
    },
    {
      "inputs": [
        {
          "internalType": "address",
          "name": "owner",
          "type": "address"
        },
        {
          "internalType": "address",
          "name": "spender",
          "type": "address"
        },
        {
          "internalType": "uint256",
          "name": "value",
          "type": "uint256"
        },
        {
          "internalType": "uint256",
          "name": "deadline",
          "type": "uint256"
        },
        {
          "internalType": "uint8",
          "name": "v",
          "type": "uint8"
        },
        {
          "internalType": "bytes32",
          "name": "r",
          "type": "bytes32"
        },
        {
          "internalType": "bytes32",
          "name": "s",
          "type": "bytes32"
        }
      ],
      "name": "permit",
      "outputs": [],
      "stateMutability": "nonpayable",
      "type": "function"
    },
    {
      "inputs": [],
      "name": "renounceOwnership",
      "outputs": [],
      "stateMutability": "nonpayable",
      "type": "function"
    },
    {
      "inputs": [],
      "name": "symbol",
      "outputs": [
        {
          "internalType": "string",
          "name": "",
          "type": "string"
        }
      ],
      "stateMutability": "view",
      "type": "function"
    },
    {
      "inputs": [],
      "name": "totalSupply",
      "outputs": [
        {
          "internalType": "uint256",
          "name": "",
          "type": "uint256"
        }
      ],
      "stateMutability": "view",
      "type": "function"
    },
    {
      "inputs": [
        {
          "internalType": "address",
          "name": "to",
          "type": "address"
        },
        {
          "internalType": "uint256",
          "name": "amount",
          "type": "uint256"
        }
      ],
      "name": "transfer",
      "outputs": [
        {
          "internalType": "bool",
          "name": "",
          "type": "bool"
        }
      ],
      "stateMutability": "nonpayable",
      "type": "function"
    },
    {
      "inputs": [
        {
          "internalType": "address",
          "name": "from",
          "type": "address"
        },
        {
          "internalType": "address",
          "name": "to",
          "type": "address"
        },
        {
          "internalType": "uint256",
          "name": "amount",
          "type": "uint256"
        }
      ],
      "name": "transferFrom",
      "outputs": [
        {
          "internalType": "bool",
          "name": "",
          "type": "bool"
        }
      ],
      "stateMutability": "nonpayable",
      "type": "function"
    },
    {
      "inputs": [
        {
          "internalType": "address",
          "name": "newOwner",
          "type": "address"
        }
      ],
      "name": "transferOwnership",
      "outputs": [],
      "stateMutability": "nonpayable",
      "type": "function"
    },
    {
      "inputs": [],
      "name": "unpause",
      "outputs": [],
      "stateMutability": "nonpayable",
      "type": "function"
    }
  ],
  "bytecode": "0x6101606040523480156200001257600080fd5b50604051620032a4380380620032a48339810160408190526200003591620008c8565b6040518060400160405280600781526020016604890cac2d8e8d60cb1b81525080604051806040016040528060018152602001603160f81b8152506040518060400160405280600781526020016604890cac2d8e8d60cb1b8152506040518060400160405280600481526020016309098a8960e31b8152508160039081620000be919062000986565b506004620000cd828262000986565b505050620000ea620000e4620001ea60201b60201c565b620001ee565b6005805460ff60a01b19169055815160208084019190912082518383012060e08290526101008190524660a0818152604080517f8b73c3c69bb8fe3d512ecc4cf759cc79239f7b179b0ffacaa9a75d522b39400f81880181905281830187905260608201869052608082019490945230818401528151808203909301835260c00190528051940193909320919290916080523060c0526101205250506a084595161401484a0000006101405250505062989680811115620001be5760405163b44f0f2760e01b815260040160405180910390fd5b620001e333620001d16012600a62000b65565b620001dd908462000b76565b62000240565b5062000bd2565b3390565b600580546001600160a01b038381166001600160a01b0319831681179093556040519116919082907f8be0079c531659141344cd1fd0a4f28419497f9722a3daafe3b4186f6b6457e090600090a35050565b6200025782826200025b60201b62000d6d1760201c565b5050565b6200027282826200031260201b62000e1f1760201c565b6001600160e01b03620002866200040f8216565b1115620002f35760405162461bcd60e51b815260206004820152603060248201527f4552433230566f7465733a20746f74616c20737570706c79207269736b73206f60448201526f766572666c6f77696e6720766f74657360801b60648201526084015b60405180910390fd5b6200030c600a62000f126200041560201b17836200042c565b50505050565b6001600160a01b0382166200036a5760405162461bcd60e51b815260206004820152601f60248201527f45524332303a206d696e7420746f20746865207a65726f2061646472657373006044820152606401620002ea565b6200037860008383620005de565b80600260008282546200038c919062000b90565b90915550506001600160a01b03821660009081526020819052604081208054839290620003bb90849062000b90565b90915550506040518181526001600160a01b038316906000907fddf252ad1be2c89b69c2b068fc378daa952ba7f163c4a11628f55a4df523b3ef9060200160405180910390a3620002576000838362000605565b60025490565b600062000423828462000b90565b90505b92915050565b8254600090819080156200047e57856200044860018362000ba6565b815481106200045b576200045b62000bbc565b60009182526020909120015464010000000090046001600160e01b031662000481565b60005b6001600160e01b031692506200049883858760201c565b9150600081118015620004dc57504386620004b560018462000ba6565b81548110620004c857620004c862000bbc565b60009182526020909120015463ffffffff16145b156200055057620004f8826200061d60201b62000f1e1760201c565b866200050660018462000ba6565b8154811062000519576200051962000bbc565b9060005260206000200160000160046101000a8154816001600160e01b0302191690836001600160e01b03160217905550620005d5565b85604051806040016040528062000572436200068c60201b62000fb61760201c565b63ffffffff16815260200162000593856200061d60201b62000f1e1760201c565b6001600160e01b0390811690915282546001810184556000938452602093849020835194909301519091166401000000000263ffffffff909316929092179101555b50935093915050565b620005e8620006f3565b620006008383836200060060201b620010321760201c565b505050565b620006008383836200074b60201b620010371760201c565b60006001600160e01b03821115620006885760405162461bcd60e51b815260206004820152602760248201527f53616665436173743a2076616c756520646f65736e27742066697420696e20326044820152663234206269747360c81b6064820152608401620002ea565b5090565b600063ffffffff821115620006885760405162461bcd60e51b815260206004820152602660248201527f53616665436173743a2076616c756520646f65736e27742066697420696e203360448201526532206269747360d01b6064820152608401620002ea565b62000707600554600160a01b900460ff1690565b15620007495760405162461bcd60e51b815260206004820152601060248201526f14185d5cd8589b194e881c185d5cd95960821b6044820152606401620002ea565b565b620007638383836200060060201b620010321760201c565b6001600160a01b038381166000908152600860205260408082205485841683529120546200060092918216911683818314801590620007a25750600081115b1562000600576001600160a01b038316156200082f576001600160a01b038316600090815260096020908152604082208291620007ec9190620008ba901b6200106917856200042c565b91509150846001600160a01b031660008051602062003284833981519152838360405162000824929190918252602082015260400190565b60405180910390a250505b6001600160a01b0382161562000600576001600160a01b03821660009081526009602090815260408220829162000873919062000415901b62000f1217856200042c565b91509150836001600160a01b0316600080516020620032848339815191528383604051620008ab929190918252602082015260400190565b60405180910390a25050505050565b600062000423828462000ba6565b600060208284031215620008db57600080fd5b5051919050565b634e487b7160e01b600052604160045260246000fd5b600181811c908216806200090d57607f821691505b6020821081036200092e57634e487b7160e01b600052602260045260246000fd5b50919050565b601f8211156200060057600081815260208120601f850160051c810160208610156200095d5750805b601f850160051c820191505b818110156200097e5782815560010162000969565b505050505050565b81516001600160401b03811115620009a257620009a2620008e2565b620009ba81620009b38454620008f8565b8462000934565b602080601f831160018114620009f25760008415620009d95750858301515b600019600386901b1c1916600185901b1785556200097e565b600085815260208120601f198616915b8281101562000a235788860151825594840194600190910190840162000a02565b508582101562000a425787850151600019600388901b60f8161c191681555b5050505050600190811b01905550565b634e487b7160e01b600052601160045260246000fd5b600181815b8085111562000aa957816000190482111562000a8d5762000a8d62000a52565b8085161562000a9b57918102915b93841c939080029062000a6d565b509250929050565b60008262000ac25750600162000426565b8162000ad15750600062000426565b816001811462000aea576002811462000af55762000b15565b600191505062000426565b60ff84111562000b095762000b0962000a52565b50506001821b62000426565b5060208310610133831016604e8410600b841016171562000b3a575081810a62000426565b62000b46838362000a68565b806000190482111562000b5d5762000b5d62000a52565b029392505050565b60006200042360ff84168362000ab1565b808202811582820484141762000426576200042662000a52565b8082018082111562000426576200042662000a52565b8181038181111562000426576200042662000a52565b634e487b7160e01b600052603260045260246000fd5b60805160a05160c05160e05161010051610120516101405161265062000c346000396000818161045901526106d2015260006115290152600061157801526000611553015260006114ac015260006114d60152600061150001526126506000f3fe608060405234801561001057600080fd5b50600436106101f05760003560e01c8063715018a61161010f578063a457c2d7116100a2578063d5abeb0111610071578063d5abeb0114610454578063dd62ed3e1461047b578063f1127ed8146104b4578063f2fde38b1461050657600080fd5b8063a457c2d714610408578063a9059cbb1461041b578063c3cda5201461042e578063d505accf1461044157600080fd5b80638da5cb5b116100de5780638da5cb5b146103c95780638e539e8c146103da57806395d89b41146103ed5780639ab24eb0146103f557600080fd5b8063715018a61461039357806379cc67901461039b5780637ecebe00146103ae5780638456cb59146103c157600080fd5b80633f4ba83a116101875780635c19a95c116101565780635c19a95c1461030c5780635c975abb1461031f5780636fcfff451461034257806370a082311461036a57600080fd5b80633f4ba83a1461029857806340c10f19146102a257806342966c68146102b5578063587cde1e146102c857600080fd5b8063313ce567116101c3578063313ce5671461025b5780633644e5151461026a57806339509351146102725780633a46b1a81461028557600080fd5b806306fdde03146101f5578063095ea7b31461021357806318160ddd1461023657806323b872dd14610248575b600080fd5b6101fd610519565b60405161020a9190612277565b60405180910390f35b6102266102213660046122ff565b6105ab565b604051901515815260200161020a565b6002545b60405190815260200161020a565b610226610256366004612329565b6105c5565b6040516012815260200161020a565b61023a6105e9565b6102266102803660046122ff565b6105f8565b61023a6102933660046122ff565b610637565b6102a06106b6565b005b6102a06102b03660046122ff565b6106c8565b6102a06102c3366004612365565b61074b565b6102f46102d636600461237e565b6001600160a01b039081166000908152600860205260409020541690565b6040516001600160a01b03909116815260200161020a565b6102a061031a36600461237e565b610758565b60055474010000000000000000000000000000000000000000900460ff16610226565b61035561035036600461237e565b610762565b60405163ffffffff909116815260200161020a565b61023a61037836600461237e565b6001600160a01b031660009081526020819052604090205490565b6102a0610784565b6102a06103a93660046122ff565b610796565b61023a6103bc36600461237e565b6107ab565b6102a06107c9565b6005546001600160a01b03166102f4565b61023a6103e8366004612365565b6107d9565b6101fd610835565b61023a61040336600461237e565b610844565b6102266104163660046122ff565b6108f5565b6102266104293660046122ff565b61099f565b6102a061043c3660046123aa565b6109ad565b6102a061044f366004612402565b610ae3565b61023a7f000000000000000000000000000000000000000000000000000000000000000081565b61023a61048936600461246c565b6001600160a01b03918216600090815260016020908152604080832093909416825291909152205490565b6104c76104c236600461249f565b610c47565b60408051825163ffffffff1681526020928301517bffffffffffffffffffffffffffffffffffffffffffffffffffffffff16928101929092520161020a565b6102a061051436600461237e565b610ce0565b606060038054610528906124df565b80601f0160208091040260200160405190810160405280929190818152602001828054610554906124df565b80156105a15780601f10610576576101008083540402835291602001916105a1565b820191906000526020600020905b81548152906001019060200180831161058457829003601f168201915b5050505050905090565b6000336105b9818585611075565b60019150505b92915050565b6000336105d38582856111cd565b6105de858585611277565b506001949350505050565b60006105f361149f565b905090565b3360008181526001602090815260408083206001600160a01b03871684529091528120549091906105b9908290869061063290879061255b565b611075565b600043821061068d5760405162461bcd60e51b815260206004820152601f60248201527f4552433230566f7465733a20626c6f636b206e6f7420796574206d696e65640060448201526064015b60405180910390fd5b6001600160a01b03831660009081526009602052604090206106af90836115c6565b9392505050565b6106be6116ad565b6106c6611707565b565b6106d06116ad565b7f0000000000000000000000000000000000000000000000000000000000000000816106fb60025490565b610705919061255b565b111561073d576040517fb44f0f2700000000000000000000000000000000000000000000000000000000815260040160405180910390fd5b6107478282611777565b5050565b6107553382611781565b50565b610755338261178b565b6001600160a01b0381166000908152600960205260408120546105bf90610fb6565b61078c6116ad565b6106c6600061181c565b6107a18233836111cd565b6107478282611781565b6001600160a01b0381166000908152600660205260408120546105bf565b6107d16116ad565b6106c6611886565b600043821061082a5760405162461bcd60e51b815260206004820152601f60248201527f4552433230566f7465733a20626c6f636b206e6f7420796574206d696e6564006044820152606401610684565b6105bf600a836115c6565b606060048054610528906124df565b6001600160a01b03811660009081526009602052604081205480156108cd576001600160a01b038316600090815260096020526040902061088660018361256e565b8154811061089657610896612581565b60009182526020909120015464010000000090047bffffffffffffffffffffffffffffffffffffffffffffffffffffffff166108d0565b60005b7bffffffffffffffffffffffffffffffffffffffffffffffffffffffff169392505050565b3360008181526001602090815260408083206001600160a01b0387168452909152812054909190838110156109925760405162461bcd60e51b815260206004820152602560248201527f45524332303a2064656372656173656420616c6c6f77616e63652062656c6f7760448201527f207a65726f0000000000000000000000000000000000000000000000000000006064820152608401610684565b6105de8286868403611075565b6000336105b9818585611277565b834211156109fd5760405162461bcd60e51b815260206004820152601d60248201527f4552433230566f7465733a207369676e617475726520657870697265640000006044820152606401610684565b604080517fe48329057bfd03d55e49b547132e39cffd9c1820ad7b9d4c5307691425d15adf60208201526001600160a01b038816918101919091526060810186905260808101859052600090610a7790610a6f9060a001604051602081830303815290604052805190602001206118f5565b85858561195e565b9050610a8281611986565b8614610ad05760405162461bcd60e51b815260206004820152601960248201527f4552433230566f7465733a20696e76616c6964206e6f6e6365000000000000006044820152606401610684565b610ada818861178b565b50505050505050565b83421115610b335760405162461bcd60e51b815260206004820152601d60248201527f45524332305065726d69743a206578706972656420646561646c696e650000006044820152606401610684565b60007f6e71edae12b1b97f4d1f60370fef10105fa2faae0126114a169c64845d6126c9888888610b628c611986565b6040805160208101969096526001600160a01b0394851690860152929091166060840152608083015260a082015260c0810186905260e0016040516020818303038152906040528051906020012090506000610bbd826118f5565b90506000610bcd8287878761195e565b9050896001600160a01b0316816001600160a01b031614610c305760405162461bcd60e51b815260206004820152601e60248201527f45524332305065726d69743a20696e76616c6964207369676e617475726500006044820152606401610684565b610c3b8a8a8a611075565b50505050505050505050565b60408051808201909152600080825260208201526001600160a01b0383166000908152600960205260409020805463ffffffff8416908110610c8b57610c8b612581565b60009182526020918290206040805180820190915291015463ffffffff8116825264010000000090047bffffffffffffffffffffffffffffffffffffffffffffffffffffffff16918101919091529392505050565b610ce86116ad565b6001600160a01b038116610d645760405162461bcd60e51b815260206004820152602660248201527f4f776e61626c653a206e6577206f776e657220697320746865207a65726f206160448201527f64647265737300000000000000000000000000000000000000000000000000006064820152608401610684565b6107558161181c565b610d778282610e1f565b6002547bffffffffffffffffffffffffffffffffffffffffffffffffffffffff1015610e0b5760405162461bcd60e51b815260206004820152603060248201527f4552433230566f7465733a20746f74616c20737570706c79207269736b73206f60448201527f766572666c6f77696e6720766f746573000000000000000000000000000000006064820152608401610684565b610e19600a610f12836119ae565b50505050565b6001600160a01b038216610e755760405162461bcd60e51b815260206004820152601f60248201527f45524332303a206d696e7420746f20746865207a65726f2061646472657373006044820152606401610684565b610e8160008383611b90565b8060026000828254610e93919061255b565b90915550506001600160a01b03821660009081526020819052604081208054839290610ec090849061255b565b90915550506040518181526001600160a01b038316906000907fddf252ad1be2c89b69c2b068fc378daa952ba7f163c4a11628f55a4df523b3ef9060200160405180910390a361074760008383611b98565b60006106af828461255b565b60007bffffffffffffffffffffffffffffffffffffffffffffffffffffffff821115610fb25760405162461bcd60e51b815260206004820152602760248201527f53616665436173743a2076616c756520646f65736e27742066697420696e203260448201527f32342062697473000000000000000000000000000000000000000000000000006064820152608401610684565b5090565b600063ffffffff821115610fb25760405162461bcd60e51b815260206004820152602660248201527f53616665436173743a2076616c756520646f65736e27742066697420696e203360448201527f32206269747300000000000000000000000000000000000000000000000000006064820152608401610684565b505050565b6001600160a01b0383811660009081526008602052604080822054858416835291205461103292918216911683611ba3565b60006106af828461256e565b6001600160a01b0383166110f05760405162461bcd60e51b8152602060048201526024808201527f45524332303a20617070726f76652066726f6d20746865207a65726f2061646460448201527f72657373000000000000000000000000000000000000000000000000000000006064820152608401610684565b6001600160a01b03821661116c5760405162461bcd60e51b815260206004820152602260248201527f45524332303a20617070726f766520746f20746865207a65726f20616464726560448201527f73730000000000000000000000000000000000000000000000000000000000006064820152608401610684565b6001600160a01b0383811660008181526001602090815260408083209487168084529482529182902085905590518481527f8c5be1e5ebec7d5bd14f71427d1e84f3dd0314c0f7b2291e5b200ac8c7c3b925910160405180910390a3505050565b6001600160a01b038381166000908152600160209081526040808320938616835292905220547fffffffffffffffffffffffffffffffffffffffffffffffffffffffffffffffff8114610e19578181101561126a5760405162461bcd60e51b815260206004820152601d60248201527f45524332303a20696e73756666696369656e7420616c6c6f77616e63650000006044820152606401610684565b610e198484848403611075565b6001600160a01b0383166112f35760405162461bcd60e51b815260206004820152602560248201527f45524332303a207472616e736665722066726f6d20746865207a65726f20616460448201527f64726573730000000000000000000000000000000000000000000000000000006064820152608401610684565b6001600160a01b03821661136f5760405162461bcd60e51b815260206004820152602360248201527f45524332303a207472616e7366657220746f20746865207a65726f206164647260448201527f65737300000000000000000000000000000000000000000000000000000000006064820152608401610684565b61137a838383611b90565b6001600160a01b038316600090815260208190526040902054818110156114095760405162461bcd60e51b815260206004820152602660248201527f45524332303a207472616e7366657220616d6f756e742065786365656473206260448201527f616c616e636500000000000000000000000000000000000000000000000000006064820152608401610684565b6001600160a01b0380851660009081526020819052604080822085850390559185168152908120805484929061144090849061255b565b92505081905550826001600160a01b0316846001600160a01b03167fddf252ad1be2c89b69c2b068fc378daa952ba7f163c4a11628f55a4df523b3ef8460405161148c91815260200190565b60405180910390a3610e19848484611b98565b6000306001600160a01b037f0000000000000000000000000000000000000000000000000000000000000000161480156114f857507f000000000000000000000000000000000000000000000000000000000000000046145b1561152257507f000000000000000000000000000000000000000000000000000000000000000090565b50604080517f00000000000000000000000000000000000000000000000000000000000000006020808301919091527f0000000000000000000000000000000000000000000000000000000000000000828401527f000000000000000000000000000000000000000000000000000000000000000060608301524660808301523060a0808401919091528351808403909101815260c0909201909252805191012090565b8154600090815b8181101561162a5760006115e18284611ce0565b9050848682815481106115f6576115f6612581565b60009182526020909120015463ffffffff16111561161657809250611624565b61162181600161255b565b91505b506115cd565b8115611683578461163c60018461256e565b8154811061164c5761164c612581565b60009182526020909120015464010000000090047bffffffffffffffffffffffffffffffffffffffffffffffffffffffff16611686565b60005b7bffffffffffffffffffffffffffffffffffffffffffffffffffffffff1695945050505050565b6005546001600160a01b031633146106c65760405162461bcd60e51b815260206004820181905260248201527f4f776e61626c653a2063616c6c6572206973206e6f7420746865206f776e65726044820152606401610684565b61170f611cfb565b600580547fffffffffffffffffffffff00ffffffffffffffffffffffffffffffffffffffff1690557f5db9ee0a495bf2e6ff9c91a7834c1ba4fdd244a5e8aa4e537bd38aeae4b073aa335b6040516001600160a01b03909116815260200160405180910390a1565b6107478282610d6d565b6107478282611d65565b6001600160a01b038281166000818152600860208181526040808420805485845282862054949093528787167fffffffffffffffffffffffff00000000000000000000000000000000000000008416811790915590519190951694919391928592917f3134e8a2e6d97e929a7e54011ea5485d7d196dd5f0ba4d4ef95803e8e3fc257f9190a4610e19828483611ba3565b600580546001600160a01b038381167fffffffffffffffffffffffff0000000000000000000000000000000000000000831681179093556040519116919082907f8be0079c531659141344cd1fd0a4f28419497f9722a3daafe3b4186f6b6457e090600090a35050565b61188e611d7d565b600580547fffffffffffffffffffffff00ffffffffffffffffffffffffffffffffffffffff16740100000000000000000000000000000000000000001790557f62e78cea01bee320cd4e420270b5ea74000d11b0c9f74754ebdbfc544b05a25861175a3390565b60006105bf61190261149f565b836040517f19010000000000000000000000000000000000000000000000000000000000006020820152602281018390526042810182905260009060620160405160208183030381529060405280519060200120905092915050565b600080600061196f87878787611de8565b9150915061197c81611ef3565b5095945050505050565b6001600160a01b03811660009081526006602052604090208054600181018255905b50919050565b825460009081908015611a0e57856119c760018361256e565b815481106119d7576119d7612581565b60009182526020909120015464010000000090047bffffffffffffffffffffffffffffffffffffffffffffffffffffffff16611a11565b60005b7bffffffffffffffffffffffffffffffffffffffffffffffffffffffff169250611a3f83858763ffffffff16565b9150600081118015611a7d57504386611a5960018461256e565b81548110611a6957611a69612581565b60009182526020909120015463ffffffff16145b15611b0757611a8b82610f1e565b86611a9760018461256e565b81548110611aa757611aa7612581565b9060005260206000200160000160046101000a8154817bffffffffffffffffffffffffffffffffffffffffffffffffffffffff02191690837bffffffffffffffffffffffffffffffffffffffffffffffffffffffff160217905550611b87565b856040518060400160405280611b1c43610fb6565b63ffffffff168152602001611b3085610f1e565b7bffffffffffffffffffffffffffffffffffffffffffffffffffffffff90811690915282546001810184556000938452602093849020835194909301519091166401000000000263ffffffff909316929092179101555b50935093915050565b611032611d7d565b611032838383611037565b816001600160a01b0316836001600160a01b031614158015611bc55750600081115b15611032576001600160a01b03831615611c53576001600160a01b03831660009081526009602052604081208190611c0090611069856119ae565b91509150846001600160a01b03167fdec2bacdd2f05b59de34da9b523dff8be42e5e38e818c82fdb0bae774387a7248383604051611c48929190918252602082015260400190565b60405180910390a250505b6001600160a01b03821615611032576001600160a01b03821660009081526009602052604081208190611c8990610f12856119ae565b91509150836001600160a01b03167fdec2bacdd2f05b59de34da9b523dff8be42e5e38e818c82fdb0bae774387a7248383604051611cd1929190918252602082015260400190565b60405180910390a25050505050565b6000611cef60028484186125b0565b6106af9084841661255b565b60055474010000000000000000000000000000000000000000900460ff166106c65760405162461bcd60e51b815260206004820152601460248201527f5061757361626c653a206e6f74207061757365640000000000000000000000006044820152606401610684565b611d6f82826120df565b610e19600a611069836119ae565b60055474010000000000000000000000000000000000000000900460ff16156106c65760405162461bcd60e51b815260206004820152601060248201527f5061757361626c653a20706175736564000000000000000000000000000000006044820152606401610684565b6000807f7fffffffffffffffffffffffffffffff5d576e7357a4501ddfe92f46681b20a0831115611e1f5750600090506003611eea565b8460ff16601b14158015611e3757508460ff16601c14155b15611e485750600090506004611eea565b6040805160008082526020820180845289905260ff881692820192909252606081018690526080810185905260019060a0016020604051602081039080840390855afa158015611e9c573d6000803e3d6000fd5b50506040517fffffffffffffffffffffffffffffffffffffffffffffffffffffffffffffffe001519150506001600160a01b038116611ee357600060019250925050611eea565b9150600090505b94509492505050565b6000816004811115611f0757611f076125eb565b03611f0f5750565b6001816004811115611f2357611f236125eb565b03611f705760405162461bcd60e51b815260206004820152601860248201527f45434453413a20696e76616c6964207369676e617475726500000000000000006044820152606401610684565b6002816004811115611f8457611f846125eb565b03611fd15760405162461bcd60e51b815260206004820152601f60248201527f45434453413a20696e76616c6964207369676e6174757265206c656e677468006044820152606401610684565b6003816004811115611fe557611fe56125eb565b036120585760405162461bcd60e51b815260206004820152602260248201527f45434453413a20696e76616c6964207369676e6174757265202773272076616c60448201527f75650000000000000000000000000000000000000000000000000000000000006064820152608401610684565b600481600481111561206c5761206c6125eb565b036107555760405162461bcd60e51b815260206004820152602260248201527f45434453413a20696e76616c6964207369676e6174757265202776272076616c60448201527f75650000000000000000000000000000000000000000000000000000000000006064820152608401610684565b6001600160a01b03821661215b5760405162461bcd60e51b815260206004820152602160248201527f45524332303a206275726e2066726f6d20746865207a65726f2061646472657360448201527f73000000000000000000000000000000000000000000000000000000000000006064820152608401610684565b61216782600083611b90565b6001600160a01b038216600090815260208190526040902054818110156121f65760405162461bcd60e51b815260206004820152602260248201527f45524332303a206275726e20616d6f756e7420657863656564732062616c616e60448201527f63650000000000000000000000000000000000000000000000000000000000006064820152608401610684565b6001600160a01b038316600090815260208190526040812083830390556002805484929061222590849061256e565b90915550506040518281526000906001600160a01b038516907fddf252ad1be2c89b69c2b068fc378daa952ba7f163c4a11628f55a4df523b3ef9060200160405180910390a361103283600084611b98565b600060208083528351808285015260005b818110156122a457858101830151858201604001528201612288565b5060006040828601015260407fffffffffffffffffffffffffffffffffffffffffffffffffffffffffffffffe0601f8301168501019250505092915050565b80356001600160a01b03811681146122fa57600080fd5b919050565b6000806040838503121561231257600080fd5b61231b836122e3565b946020939093013593505050565b60008060006060848603121561233e57600080fd5b612347846122e3565b9250612355602085016122e3565b9150604084013590509250925092565b60006020828403121561237757600080fd5b5035919050565b60006020828403121561239057600080fd5b6106af826122e3565b803560ff811681146122fa57600080fd5b60008060008060008060c087890312156123c357600080fd5b6123cc876122e3565b955060208701359450604087013593506123e860608801612399565b92506080870135915060a087013590509295509295509295565b600080600080600080600060e0888a03121561241d57600080fd5b612426886122e3565b9650612434602089016122e3565b9550604088013594506060880135935061245060808901612399565b925060a0880135915060c0880135905092959891949750929550565b6000806040838503121561247f57600080fd5b612488836122e3565b9150612496602084016122e3565b90509250929050565b600080604083850312156124b257600080fd5b6124bb836122e3565b9150602083013563ffffffff811681146124d457600080fd5b809150509250929050565b600181811c908216806124f357607f821691505b6020821081036119a8577f4e487b7100000000000000000000000000000000000000000000000000000000600052602260045260246000fd5b7f4e487b7100000000000000000000000000000000000000000000000000000000600052601160045260246000fd5b808201808211156105bf576105bf61252c565b818103818111156105bf576105bf61252c565b7f4e487b7100000000000000000000000000000000000000000000000000000000600052603260045260246000fd5b6000826125e6577f4e487b7100000000000000000000000000000000000000000000000000000000600052601260045260246000fd5b500490565b7f4e487b7100000000000000000000000000000000000000000000000000000000600052602160045260246000fdfea2646970667358221220a2b81175f07f32fa8d4ec9e0a9483f8f78ab00bf7f00fe42b7fa25da309f3d4a64736f6c63430008110033dec2bacdd2f05b59de34da9b523dff8be42e5e38e818c82fdb0bae774387a724",
  "linkReferences": {},
  "deployedLinkReferences": {}
}