{
  "_format": "hh-sol-artifact-1",
  "contractName": "Sheepy",
  "sourceName": "contracts/Sheepy.sol",
  "abi": [
    {
      "inputs": [
        {
          "internalType": "uint256",
          "name": "_sleepTotalSupply",
          "type": "uint256"
        },
        {
          "internalType": "uint256",
          "name": "_healthTotalSupply",
          "type": "uint256"
        },
        {
          "internalType": "address",
          "name": "_devWallet",
          "type": "address"
        },
        {
          "internalType": "contract IBedroomNft",
          "name": "_bedroomNftContract",
          "type": "address"
        },
        {
          "internalType": "contract ITracker",
          "name": "_trackerContract",
          "type": "address"
        }
      ],
      "stateMutability": "nonpayable",
      "type": "constructor"
    },
    {
      "inputs": [],
      "name": "DifferentLength",
      "type": "error"
    },
    {
      "inputs": [],
      "name": "OwnerPrivilegesDisabled",
      "type": "error"
    },
    {
      "inputs": [
        {
          "internalType": "address",
          "name": "caller",
          "type": "address"
        }
      ],
      "name": "RestrictedAccess",
      "type": "error"
    },
    {
      "inputs": [
        {
          "internalType": "address",
          "name": "receiver",
          "type": "address"
        }
      ],
      "name": "WrongReceiver",
      "type": "error"
    },
    {
      "anonymous": false,
      "inputs": [
        {
          "indexed": true,
          "internalType": "address",
          "name": "owner",
          "type": "address"
        },
        {
          "indexed": false,
          "internalType": "uint256",
          "name": "amount",
          "type": "uint256"
        }
      ],
      "name": "HealthBurned",
      "type": "event"
    },
    {
      "anonymous": false,
      "inputs": [
        {
          "indexed": true,
          "internalType": "address",
          "name": "owner",
          "type": "address"
        },
        {
          "indexed": false,
          "internalType": "uint256",
          "name": "amount",
          "type": "uint256"
        }
      ],
      "name": "HealthMinted",
      "type": "event"
    },
    {
      "anonymous": false,
      "inputs": [
        {
          "indexed": true,
          "internalType": "address",
          "name": "owner",
          "type": "address"
        },
        {
          "indexed": false,
          "internalType": "uint256",
          "name": "amount",
          "type": "uint256"
        }
      ],
      "name": "HealthReward",
      "type": "event"
    },
    {
      "anonymous": false,
      "inputs": [
        {
          "indexed": true,
          "internalType": "address",
          "name": "from",
          "type": "address"
        },
        {
          "indexed": true,
          "internalType": "address",
          "name": "to",
          "type": "address"
        },
        {
          "indexed": false,
          "internalType": "uint256",
          "name": "amount",
          "type": "uint256"
        }
      ],
      "name": "HealthTransferred",
      "type": "event"
    },
    {
      "anonymous": false,
      "inputs": [
        {
          "indexed": true,
          "internalType": "address",
          "name": "previousOwner",
          "type": "address"
        },
        {
          "indexed": true,
          "internalType": "address",
          "name": "newOwner",
          "type": "address"
        }
      ],
      "name": "OwnershipTransferred",
      "type": "event"
    },
    {
      "anonymous": false,
      "inputs": [
        {
          "indexed": true,
          "internalType": "address",
          "name": "owner",
          "type": "address"
        },
        {
          "indexed": false,
          "internalType": "uint256",
          "name": "amount",
          "type": "uint256"
        }
      ],
      "name": "SleepBurned",
      "type": "event"
    },
    {
      "anonymous": false,
      "inputs": [
        {
          "indexed": true,
          "internalType": "address",
          "name": "owner",
          "type": "address"
        },
        {
          "indexed": false,
          "internalType": "uint256",
          "name": "amount",
          "type": "uint256"
        }
      ],
      "name": "SleepMinted",
      "type": "event"
    },
    {
      "anonymous": false,
      "inputs": [
        {
          "indexed": true,
          "internalType": "address",
          "name": "owner",
          "type": "address"
        },
        {
          "indexed": false,
          "internalType": "uint256",
          "name": "amount",
          "type": "uint256"
        }
      ],
      "name": "SleepReward",
      "type": "event"
    },
    {
      "anonymous": false,
      "inputs": [
        {
          "indexed": true,
          "internalType": "address",
          "name": "from",
          "type": "address"
        },
        {
          "indexed": true,
          "internalType": "address",
          "name": "to",
          "type": "address"
        },
        {
          "indexed": false,
          "internalType": "uint256",
          "name": "amount",
          "type": "uint256"
        }
      ],
      "name": "SleepTransferred",
      "type": "event"
    },
    {
      "anonymous": false,
      "inputs": [
        {
          "indexed": true,
          "internalType": "address",
          "name": "owner",
          "type": "address"
        },
        {
          "indexed": false,
          "internalType": "uint256",
          "name": "amount",
          "type": "uint256"
        }
      ],
      "name": "WithdrawMoney",
      "type": "event"
    },
    {
      "inputs": [],
      "name": "bedroomNftContract",
      "outputs": [
        {
          "internalType": "contract IBedroomNft",
          "name": "",
          "type": "address"
        }
      ],
      "stateMutability": "view",
      "type": "function"
    },
    {
      "inputs": [
        {
          "internalType": "uint256",
          "name": "_amount",
          "type": "uint256"
        }
      ],
      "name": "burnHealth",
      "outputs": [],
      "stateMutability": "nonpayable",
      "type": "function"
    },
    {
      "inputs": [
        {
          "internalType": "uint256",
          "name": "_amount",
          "type": "uint256"
        }
      ],
      "name": "burnSleep",
      "outputs": [],
      "stateMutability": "nonpayable",
      "type": "function"
    },
    {
      "inputs": [],
      "name": "healthContract",
      "outputs": [
        {
          "internalType": "contract Health",
          "name": "",
          "type": "address"
        }
      ],
      "stateMutability": "view",
      "type": "function"
    },
    {
      "inputs": [
        {
          "internalType": "address",
          "name": "_address",
          "type": "address"
        },
        {
          "internalType": "uint256",
          "name": "_amount",
          "type": "uint256"
        }
      ],
      "name": "healthReward",
      "outputs": [],
      "stateMutability": "nonpayable",
      "type": "function"
    },
    {
      "inputs": [
        {
          "internalType": "address[]",
          "name": "_addresses",
          "type": "address[]"
        },
        {
          "internalType": "uint256[]",
          "name": "_amounts",
          "type": "uint256[]"
        }
      ],
      "name": "healthRewardBatch",
      "outputs": [],
      "stateMutability": "nonpayable",
      "type": "function"
    },
    {
      "inputs": [
        {
          "internalType": "address[]",
          "name": "_addresses",
          "type": "address[]"
        },
        {
          "internalType": "uint256",
          "name": "_amount",
          "type": "uint256"
        }
      ],
      "name": "healthRewardBatchV2",
      "outputs": [],
      "stateMutability": "nonpayable",
      "type": "function"
    },
    {
      "inputs": [
        {
          "internalType": "uint256",
          "name": "_amount",
          "type": "uint256"
        }
      ],
      "name": "mintHealth",
      "outputs": [],
      "stateMutability": "nonpayable",
      "type": "function"
    },
    {
      "inputs": [
        {
          "internalType": "uint256",
          "name": "_amount",
          "type": "uint256"
        }
      ],
      "name": "mintSleep",
      "outputs": [],
      "stateMutability": "nonpayable",
      "type": "function"
    },
    {
      "inputs": [],
      "name": "owner",
      "outputs": [
        {
          "internalType": "address",
          "name": "",
          "type": "address"
        }
      ],
      "stateMutability": "view",
      "type": "function"
    },
    {
      "inputs": [],
      "name": "ownerHasPrivileges",
      "outputs": [
        {
          "internalType": "bool",
          "name": "",
          "type": "bool"
        }
      ],
      "stateMutability": "view",
      "type": "function"
    },
    {
      "inputs": [],
      "name": "pauseHealth",
      "outputs": [],
      "stateMutability": "nonpayable",
      "type": "function"
    },
    {
      "inputs": [],
      "name": "pauseSleep",
      "outputs": [],
      "stateMutability": "nonpayable",
      "type": "function"
    },
    {
      "inputs": [],
      "name": "renounceOwnership",
      "outputs": [],
      "stateMutability": "nonpayable",
      "type": "function"
    },
    {
      "inputs": [
        {
          "internalType": "address",
          "name": "_devWallet",
          "type": "address"
        }
      ],
      "name": "setDevAddress",
      "outputs": [],
      "stateMutability": "nonpayable",
      "type": "function"
    },
    {
      "inputs": [],
      "name": "sleepContract",
      "outputs": [
        {
          "internalType": "contract Sleep",
          "name": "",
          "type": "address"
        }
      ],
      "stateMutability": "view",
      "type": "function"
    },
    {
      "inputs": [
        {
          "internalType": "address",
          "name": "_address",
          "type": "address"
        },
        {
          "internalType": "uint256",
          "name": "_amount",
          "type": "uint256"
        }
      ],
      "name": "sleepReward",
      "outputs": [],
      "stateMutability": "nonpayable",
      "type": "function"
    },
    {
      "inputs": [
        {
          "internalType": "address[]",
          "name": "_addresses",
          "type": "address[]"
        },
        {
          "internalType": "uint256[]",
          "name": "_amounts",
          "type": "uint256[]"
        }
      ],
      "name": "sleepRewardBatch",
      "outputs": [],
      "stateMutability": "nonpayable",
      "type": "function"
    },
    {
      "inputs": [
        {
          "internalType": "address[]",
          "name": "_addresses",
          "type": "address[]"
        },
        {
          "internalType": "uint256",
          "name": "_amount",
          "type": "uint256"
        }
      ],
      "name": "sleepRewardBatchV2",
      "outputs": [],
      "stateMutability": "nonpayable",
      "type": "function"
    },
    {
      "inputs": [],
      "name": "stopPrivileges",
      "outputs": [],
      "stateMutability": "nonpayable",
      "type": "function"
    },
    {
      "inputs": [],
      "name": "trackerContract",
      "outputs": [
        {
          "internalType": "contract ITracker",
          "name": "",
          "type": "address"
        }
      ],
      "stateMutability": "view",
      "type": "function"
    },
    {
      "inputs": [],
      "name": "transferContractsOwnership",
      "outputs": [],
      "stateMutability": "nonpayable",
      "type": "function"
    },
    {
      "inputs": [
        {
          "internalType": "address",
          "name": "_to",
          "type": "address"
        },
        {
          "internalType": "uint256",
          "name": "_amount",
          "type": "uint256"
        }
      ],
      "name": "transferHealth",
      "outputs": [],
      "stateMutability": "nonpayable",
      "type": "function"
    },
    {
      "inputs": [
        {
          "internalType": "address",
          "name": "newOwner",
          "type": "address"
        }
      ],
      "name": "transferOwnership",
      "outputs": [],
      "stateMutability": "nonpayable",
      "type": "function"
    },
    {
      "inputs": [
        {
          "internalType": "address",
          "name": "_to",
          "type": "address"
        },
        {
          "internalType": "uint256",
          "name": "_amount",
          "type": "uint256"
        }
      ],
      "name": "transferSleep",
      "outputs": [],
      "stateMutability": "nonpayable",
      "type": "function"
    },
    {
      "inputs": [],
      "name": "unpauseHealth",
      "outputs": [],
      "stateMutability": "nonpayable",
      "type": "function"
    },
    {
      "inputs": [],
      "name": "unpauseSleep",
      "outputs": [],
      "stateMutability": "nonpayable",
      "type": "function"
    },
    {
      "inputs": [
        {
          "internalType": "contract IERC20",
          "name": "_token",
          "type": "address"
        }
      ],
      "name": "withdrawMoney",
      "outputs": [],
      "stateMutability": "nonpayable",
      "type": "function"
    }
  ],
  "bytecode": "0x6101006040523480156200001257600080fd5b5060405162007f4b38038062007f4b833981016040819052620000359162000179565b6200004033620000f4565b846040516200004f9062000144565b908152602001604051809103906000f08015801562000072573d6000803e3d6000fd5b506001600160a01b031660805260405184906200008f9062000152565b908152602001604051809103906000f080158015620000b2573d6000803e3d6000fd5b506001600160a01b0390811660a0526001805493821660c0529381166001600160a81b031990931692909217600160a01b179092551660e05250620001e19050565b600080546001600160a01b038381166001600160a01b0319831681178455604051919092169283917f8be0079c531659141344cd1fd0a4f28419497f9722a3daafe3b4186f6b6457e09190a35050565b6121268062002b8183390190565b6132a48062004ca783390190565b6001600160a01b03811681146200017657600080fd5b50565b600080600080600060a086880312156200019257600080fd5b85519450602086015193506040860151620001ad8162000160565b6060870151909350620001c08162000160565b6080870151909250620001d38162000160565b809150509295509295909350565b60805160a05160c05160e0516128be620002c360003960008181610330015281816104b001528181610c5601528181610e670152818161125e015281816118060152611b3e015260006103bc01526000818161029c015281816105f2015281816107cd0152818161089e01528181610d440152818161115a0152818161134d0152818161152d01528181611e1f01526120d50152600081816102db0152818161099201528181610b7f01528181610f56015281816116360152818161171d015281816118f501528181611c2c01528181611d8f0152611f0101526128be6000f3fe608060405234801561001057600080fd5b50600436106101c45760003560e01c80637b4334d0116100f9578063d02a59ae11610097578063dbad5f2411610071578063dbad5f24146103de578063edae29b3146103e6578063f2fde38b146103f9578063fcdf42021461040c57600080fd5b8063d02a59ae14610391578063d0d41fe1146103a4578063d1539b24146103b757600080fd5b80638da5cb5b116100d35780638da5cb5b14610352578063ae6a5c1014610363578063c5b3b7bb14610376578063cdb917211461038957600080fd5b80637b4334d01461031057806387181162146103235780638b64bb871461032b57600080fd5b806346dd5bc311610166578063715018a611610140578063715018a61461028f57806371c9b18e14610297578063764c9d32146102d6578063775d58f7146102fd57600080fd5b806346dd5bc3146102565780635548e55f1461026957806359ce80a31461027c57600080fd5b806318988e1d116101a257806318988e1d146101ee5780632dfc61ba146102285780632f9710291461023b5780633c0cc21b1461024e57600080fd5b80630cc534bf146101c95780631671cf07146101de57806317f363d9146101e6575b600080fd5b6101dc6101d73660046125ff565b61041f565b005b6101dc61076f565b6101dc610840565b6001546102139074010000000000000000000000000000000000000000900460ff1681565b60405190151581526020015b60405180910390f35b6101dc610236366004612680565b6108f7565b6101dc6102493660046126ac565b610a45565b6101dc610b21565b6101dc610264366004612680565b610bd8565b6101dc6102773660046125ff565b610ddb565b6101dc61028a3660046126c9565b6110cc565b6101dc6111f7565b6102be7f000000000000000000000000000000000000000000000000000000000000000081565b6040516001600160a01b03909116815260200161021f565b6102be7f000000000000000000000000000000000000000000000000000000000000000081565b6101dc61030b3660046126e2565b61120b565b6101dc61031e366004612680565b611492565b6101dc6115d8565b6102be7f000000000000000000000000000000000000000000000000000000000000000081565b6000546001600160a01b03166102be565b6101dc6103713660046126c9565b61168f565b6101dc6103843660046126e2565b6117b3565b6101dc611a3a565b6101dc61039f366004612680565b611ac0565b6101dc6103b23660046126ac565b611cc3565b6102be7f000000000000000000000000000000000000000000000000000000000000000081565b6101dc611d05565b6101dc6103f43660046126c9565b611e6d565b6101dc6104073660046126ac565b611f97565b6101dc61041a3660046126c9565b612041565b6001546001600160a01b0316331461046a576040517ffd0dd63f0000000000000000000000000000000000000000000000000000000081523360048201526024015b60405180910390fd5b8281146104a3576040517fd9183d2b00000000000000000000000000000000000000000000000000000000815260040160405180910390fd5b60005b83811015610768577f00000000000000000000000000000000000000000000000000000000000000006001600160a01b0316632630c5e18686848181106104ef576104ef61272e565b905060200201602081019061050491906126ac565b6040517fffffffff0000000000000000000000000000000000000000000000000000000060e084901b1681526001600160a01b039091166004820152602401602060405180830381865afa158015610560573d6000803e3d6000fd5b505050506040513d601f19601f82011682018060405250810190610584919061275d565b6000036105f05784848281811061059d5761059d61272e565b90506020020160208101906105b291906126ac565b6040517f0eddc34f0000000000000000000000000000000000000000000000000000000081526001600160a01b039091166004820152602401610461565b7f00000000000000000000000000000000000000000000000000000000000000006001600160a01b03166340c10f198686848181106106315761063161272e565b905060200201602081019061064691906126ac565b8585858181106106585761065861272e565b6040517fffffffff0000000000000000000000000000000000000000000000000000000060e087901b1681526001600160a01b0390941660048501526020029190910135602483015250604401600060405180830381600087803b1580156106bf57600080fd5b505af11580156106d3573d6000803e3d6000fd5b505050508484828181106106e9576106e961272e565b90506020020160208101906106fe91906126ac565b6001600160a01b03167f78117a17e37e7421a5ff89e1490dd17101a3c615944a69820c52f9b8c855c85a84848481811061073a5761073a61272e565b9050602002013560405161075091815260200190565b60405180910390a261076181612776565b90506104a6565b5050505050565b61077761216b565b60015474010000000000000000000000000000000000000000900460ff166107cb576040517fe39a261100000000000000000000000000000000000000000000000000000000815260040160405180910390fd5b7f00000000000000000000000000000000000000000000000000000000000000006001600160a01b0316638456cb596040518163ffffffff1660e01b8152600401600060405180830381600087803b15801561082657600080fd5b505af115801561083a573d6000803e3d6000fd5b50505050565b61084861216b565b60015474010000000000000000000000000000000000000000900460ff1661089c576040517fe39a261100000000000000000000000000000000000000000000000000000000815260040160405180910390fd5b7f00000000000000000000000000000000000000000000000000000000000000006001600160a01b0316633f4ba83a6040518163ffffffff1660e01b8152600401600060405180830381600087803b15801561082657600080fd5b6108ff61216b565b60015474010000000000000000000000000000000000000000900460ff16610953576040517fe39a261100000000000000000000000000000000000000000000000000000000815260040160405180910390fd5b6040517fa9059cbb0000000000000000000000000000000000000000000000000000000081526001600160a01b038381166004830152602482018390527f0000000000000000000000000000000000000000000000000000000000000000169063a9059cbb906044016020604051808303816000875af11580156109db573d6000803e3d6000fd5b505050506040513d601f19601f820116820180604052508101906109ff91906127d5565b506040518181526001600160a01b0383169030907f1c8ab4df0264d0c0b2968ef91ab8f2b604a67632cdd90be4efdedc3519f57e86906020015b60405180910390a35050565b610a4d61216b565b6040517f70a082310000000000000000000000000000000000000000000000000000000081523060048201526000906001600160a01b038316906370a0823190602401602060405180830381865afa158015610aad573d6000803e3d6000fd5b505050506040513d601f19601f82011682018060405250810190610ad1919061275d565b9050610ae76001600160a01b03831633836121df565b60405181815233907f9fe2db218b58c00ab3556f2be44b2769b37978368c63313d82d78306568e4776906020015b60405180910390a25050565b610b2961216b565b60015474010000000000000000000000000000000000000000900460ff16610b7d576040517fe39a261100000000000000000000000000000000000000000000000000000000815260040160405180910390fd5b7f00000000000000000000000000000000000000000000000000000000000000006001600160a01b0316633f4ba83a6040518163ffffffff1660e01b8152600401600060405180830381600087803b15801561082657600080fd5b6001546001600160a01b03163314610c1e576040517ffd0dd63f000000000000000000000000000000000000000000000000000000008152336004820152602401610461565b6040517f2630c5e10000000000000000000000000000000000000000000000000000000081526001600160a01b0383811660048301527f00000000000000000000000000000000000000000000000000000000000000001690632630c5e190602401602060405180830381865afa158015610c9d573d6000803e3d6000fd5b505050506040513d601f19601f82011682018060405250810190610cc1919061275d565b600003610d05576040517f0eddc34f0000000000000000000000000000000000000000000000000000000081526001600160a01b0383166004820152602401610461565b6040517f40c10f190000000000000000000000000000000000000000000000000000000081526001600160a01b038381166004830152602482018390527f000000000000000000000000000000000000000000000000000000000000000016906340c10f1990604401600060405180830381600087803b158015610d8857600080fd5b505af1158015610d9c573d6000803e3d6000fd5b50505050816001600160a01b03167f78117a17e37e7421a5ff89e1490dd17101a3c615944a69820c52f9b8c855c85a82604051610b1591815260200190565b6001546001600160a01b03163314610e21576040517ffd0dd63f000000000000000000000000000000000000000000000000000000008152336004820152602401610461565b828114610e5a576040517fd9183d2b00000000000000000000000000000000000000000000000000000000815260040160405180910390fd5b60005b83811015610768577f00000000000000000000000000000000000000000000000000000000000000006001600160a01b0316632630c5e1868684818110610ea657610ea661272e565b9050602002016020810190610ebb91906126ac565b6040517fffffffff0000000000000000000000000000000000000000000000000000000060e084901b1681526001600160a01b039091166004820152602401602060405180830381865afa158015610f17573d6000803e3d6000fd5b505050506040513d601f19601f82011682018060405250810190610f3b919061275d565b600003610f545784848281811061059d5761059d61272e565b7f00000000000000000000000000000000000000000000000000000000000000006001600160a01b03166340c10f19868684818110610f9557610f9561272e565b9050602002016020810190610faa91906126ac565b858585818110610fbc57610fbc61272e565b6040517fffffffff0000000000000000000000000000000000000000000000000000000060e087901b1681526001600160a01b0390941660048501526020029190910135602483015250604401600060405180830381600087803b15801561102357600080fd5b505af1158015611037573d6000803e3d6000fd5b5050505084848281811061104d5761104d61272e565b905060200201602081019061106291906126ac565b6001600160a01b03167f56edb3ea842750cbf54a4e84543794f9ebee84461bde21d7524948fd85a7e70a84848481811061109e5761109e61272e565b905060200201356040516110b491815260200190565b60405180910390a26110c581612776565b9050610e5d565b6000546001600160a01b031633148015906110f257506001546001600160a01b03163314155b1561112b576040517ffd0dd63f000000000000000000000000000000000000000000000000000000008152336004820152602401610461565b6040517f42966c68000000000000000000000000000000000000000000000000000000008152600481018290527f00000000000000000000000000000000000000000000000000000000000000006001600160a01b0316906342966c6890602401600060405180830381600087803b1580156111a657600080fd5b505af11580156111ba573d6000803e3d6000fd5b50506040518381523092507fdd870e03919b11f18472f6c14b6bfa8eb7026cb001492f93a40f6778663a2bbe91506020015b60405180910390a250565b6111ff61216b565b6112096000612264565b565b6001546001600160a01b03163314611251576040517ffd0dd63f000000000000000000000000000000000000000000000000000000008152336004820152602401610461565b60005b8281101561083a577f00000000000000000000000000000000000000000000000000000000000000006001600160a01b0316632630c5e185858481811061129d5761129d61272e565b90506020020160208101906112b291906126ac565b6040517fffffffff0000000000000000000000000000000000000000000000000000000060e084901b1681526001600160a01b039091166004820152602401602060405180830381865afa15801561130e573d6000803e3d6000fd5b505050506040513d601f19601f82011682018060405250810190611332919061275d565b60000361134b5783838281811061059d5761059d61272e565b7f00000000000000000000000000000000000000000000000000000000000000006001600160a01b03166340c10f1985858481811061138c5761138c61272e565b90506020020160208101906113a191906126ac565b6040517fffffffff0000000000000000000000000000000000000000000000000000000060e084901b1681526001600160a01b03909116600482015260248101859052604401600060405180830381600087803b15801561140157600080fd5b505af1158015611415573d6000803e3d6000fd5b5050505083838281811061142b5761142b61272e565b905060200201602081019061144091906126ac565b6001600160a01b03167f78117a17e37e7421a5ff89e1490dd17101a3c615944a69820c52f9b8c855c85a8360405161147a91815260200190565b60405180910390a261148b81612776565b9050611254565b61149a61216b565b60015474010000000000000000000000000000000000000000900460ff166114ee576040517fe39a261100000000000000000000000000000000000000000000000000000000815260040160405180910390fd5b6040517fa9059cbb0000000000000000000000000000000000000000000000000000000081526001600160a01b038381166004830152602482018390527f0000000000000000000000000000000000000000000000000000000000000000169063a9059cbb906044016020604051808303816000875af1158015611576573d6000803e3d6000fd5b505050506040513d601f19601f8201168201806040525081019061159a91906127d5565b506040518181526001600160a01b0383169030907f30e7a5adee9373443f8f171b28d4f0bb5adb479067248d170bf43140c2946bdf90602001610a39565b6115e061216b565b60015474010000000000000000000000000000000000000000900460ff16611634576040517fe39a261100000000000000000000000000000000000000000000000000000000815260040160405180910390fd5b7f00000000000000000000000000000000000000000000000000000000000000006001600160a01b0316638456cb596040518163ffffffff1660e01b8152600401600060405180830381600087803b15801561082657600080fd5b6000546001600160a01b031633148015906116b557506001546001600160a01b03163314155b156116ee576040517ffd0dd63f000000000000000000000000000000000000000000000000000000008152336004820152602401610461565b6040517f42966c68000000000000000000000000000000000000000000000000000000008152600481018290527f00000000000000000000000000000000000000000000000000000000000000006001600160a01b0316906342966c6890602401600060405180830381600087803b15801561176957600080fd5b505af115801561177d573d6000803e3d6000fd5b50506040518381523092507f8f18e8fb3cc56817b1a1928b9869afea053cac8a06159bfe857011443020766691506020016111ec565b6001546001600160a01b031633146117f9576040517ffd0dd63f000000000000000000000000000000000000000000000000000000008152336004820152602401610461565b60005b8281101561083a577f00000000000000000000000000000000000000000000000000000000000000006001600160a01b0316632630c5e18585848181106118455761184561272e565b905060200201602081019061185a91906126ac565b6040517fffffffff0000000000000000000000000000000000000000000000000000000060e084901b1681526001600160a01b039091166004820152602401602060405180830381865afa1580156118b6573d6000803e3d6000fd5b505050506040513d601f19601f820116820180604052508101906118da919061275d565b6000036118f35783838281811061059d5761059d61272e565b7f00000000000000000000000000000000000000000000000000000000000000006001600160a01b03166340c10f198585848181106119345761193461272e565b905060200201602081019061194991906126ac565b6040517fffffffff0000000000000000000000000000000000000000000000000000000060e084901b1681526001600160a01b03909116600482015260248101859052604401600060405180830381600087803b1580156119a957600080fd5b505af11580156119bd573d6000803e3d6000fd5b505050508383828181106119d3576119d361272e565b90506020020160208101906119e891906126ac565b6001600160a01b03167f56edb3ea842750cbf54a4e84543794f9ebee84461bde21d7524948fd85a7e70a83604051611a2291815260200190565b60405180910390a2611a3381612776565b90506117fc565b611a4261216b565b60015474010000000000000000000000000000000000000000900460ff16611a96576040517fe39a261100000000000000000000000000000000000000000000000000000000815260040160405180910390fd5b600180547fffffffffffffffffffffff00ffffffffffffffffffffffffffffffffffffffff169055565b6001546001600160a01b03163314611b06576040517ffd0dd63f000000000000000000000000000000000000000000000000000000008152336004820152602401610461565b6040517f2630c5e10000000000000000000000000000000000000000000000000000000081526001600160a01b0383811660048301527f00000000000000000000000000000000000000000000000000000000000000001690632630c5e190602401602060405180830381865afa158015611b85573d6000803e3d6000fd5b505050506040513d601f19601f82011682018060405250810190611ba9919061275d565b600003611bed576040517f0eddc34f0000000000000000000000000000000000000000000000000000000081526001600160a01b0383166004820152602401610461565b6040517f40c10f190000000000000000000000000000000000000000000000000000000081526001600160a01b038381166004830152602482018390527f000000000000000000000000000000000000000000000000000000000000000016906340c10f1990604401600060405180830381600087803b158015611c7057600080fd5b505af1158015611c84573d6000803e3d6000fd5b50505050816001600160a01b03167f56edb3ea842750cbf54a4e84543794f9ebee84461bde21d7524948fd85a7e70a82604051610b1591815260200190565b611ccb61216b565b600180547fffffffffffffffffffffffff0000000000000000000000000000000000000000166001600160a01b0392909216919091179055565b611d0d61216b565b60015474010000000000000000000000000000000000000000900460ff16611d61576040517fe39a261100000000000000000000000000000000000000000000000000000000815260040160405180910390fd5b6040517ff2fde38b0000000000000000000000000000000000000000000000000000000081523360048201527f00000000000000000000000000000000000000000000000000000000000000006001600160a01b03169063f2fde38b90602401600060405180830381600087803b158015611ddb57600080fd5b505af1158015611def573d6000803e3d6000fd5b50506040517ff2fde38b0000000000000000000000000000000000000000000000000000000081523360048201527f00000000000000000000000000000000000000000000000000000000000000006001600160a01b0316925063f2fde38b9150602401600060405180830381600087803b15801561082657600080fd5b6000546001600160a01b03163314801590611e9357506001546001600160a01b03163314155b15611ecc576040517ffd0dd63f000000000000000000000000000000000000000000000000000000008152336004820152602401610461565b6040517f40c10f19000000000000000000000000000000000000000000000000000000008152306004820152602481018290527f00000000000000000000000000000000000000000000000000000000000000006001600160a01b0316906340c10f1990604401600060405180830381600087803b158015611f4d57600080fd5b505af1158015611f61573d6000803e3d6000fd5b50506040518381523092507fd1047bc8026fa4a02b8dd32699ba31d192091bc990c106ef59fba26462fc900791506020016111ec565b611f9f61216b565b6001600160a01b038116612035576040517f08c379a000000000000000000000000000000000000000000000000000000000815260206004820152602660248201527f4f776e61626c653a206e6577206f776e657220697320746865207a65726f206160448201527f64647265737300000000000000000000000000000000000000000000000000006064820152608401610461565b61203e81612264565b50565b6000546001600160a01b0316331480159061206757506001546001600160a01b03163314155b156120a0576040517ffd0dd63f000000000000000000000000000000000000000000000000000000008152336004820152602401610461565b6040517f40c10f19000000000000000000000000000000000000000000000000000000008152306004820152602481018290527f00000000000000000000000000000000000000000000000000000000000000006001600160a01b0316906340c10f1990604401600060405180830381600087803b15801561212157600080fd5b505af1158015612135573d6000803e3d6000fd5b50506040518381523092507f30a818d6a19cf148989e301a8dfac1b864e0fc8135cd3cb1cfe5cde5a745ef1491506020016111ec565b6000546001600160a01b03163314611209576040517f08c379a000000000000000000000000000000000000000000000000000000000815260206004820181905260248201527f4f776e61626c653a2063616c6c6572206973206e6f7420746865206f776e65726044820152606401610461565b604080516001600160a01b038416602482015260448082018490528251808303909101815260649091019091526020810180517bffffffffffffffffffffffffffffffffffffffffffffffffffffffff167fa9059cbb0000000000000000000000000000000000000000000000000000000017905261225f9084906122cc565b505050565b600080546001600160a01b038381167fffffffffffffffffffffffff0000000000000000000000000000000000000000831681178455604051919092169283917f8be0079c531659141344cd1fd0a4f28419497f9722a3daafe3b4186f6b6457e09190a35050565b6000612321826040518060400160405280602081526020017f5361666545524332303a206c6f772d6c6576656c2063616c6c206661696c6564815250856001600160a01b03166123cb9092919063ffffffff16565b80519091501561225f578080602001905181019061233f91906127d5565b61225f576040517f08c379a000000000000000000000000000000000000000000000000000000000815260206004820152602a60248201527f5361666545524332303a204552433230206f7065726174696f6e20646964206e60448201527f6f742073756363656564000000000000000000000000000000000000000000006064820152608401610461565b60606123da84846000856123e4565b90505b9392505050565b606082471015612476576040517f08c379a000000000000000000000000000000000000000000000000000000000815260206004820152602660248201527f416464726573733a20696e73756666696369656e742062616c616e636520666f60448201527f722063616c6c00000000000000000000000000000000000000000000000000006064820152608401610461565b6001600160a01b0385163b6124e7576040517f08c379a000000000000000000000000000000000000000000000000000000000815260206004820152601d60248201527f416464726573733a2063616c6c20746f206e6f6e2d636f6e74726163740000006044820152606401610461565b600080866001600160a01b03168587604051612503919061281b565b60006040518083038185875af1925050503d8060008114612540576040519150601f19603f3d011682016040523d82523d6000602084013e612545565b606091505b5091509150612555828286612560565b979650505050505050565b6060831561256f5750816123dd565b82511561257f5782518084602001fd5b816040517f08c379a00000000000000000000000000000000000000000000000000000000081526004016104619190612837565b60008083601f8401126125c557600080fd5b50813567ffffffffffffffff8111156125dd57600080fd5b6020830191508360208260051b85010111156125f857600080fd5b9250929050565b6000806000806040858703121561261557600080fd5b843567ffffffffffffffff8082111561262d57600080fd5b612639888389016125b3565b9096509450602087013591508082111561265257600080fd5b5061265f878288016125b3565b95989497509550505050565b6001600160a01b038116811461203e57600080fd5b6000806040838503121561269357600080fd5b823561269e8161266b565b946020939093013593505050565b6000602082840312156126be57600080fd5b81356123dd8161266b565b6000602082840312156126db57600080fd5b5035919050565b6000806000604084860312156126f757600080fd5b833567ffffffffffffffff81111561270e57600080fd5b61271a868287016125b3565b909790965060209590950135949350505050565b7f4e487b7100000000000000000000000000000000000000000000000000000000600052603260045260246000fd5b60006020828403121561276f57600080fd5b5051919050565b60007fffffffffffffffffffffffffffffffffffffffffffffffffffffffffffffffff82036127ce577f4e487b7100000000000000000000000000000000000000000000000000000000600052601160045260246000fd5b5060010190565b6000602082840312156127e757600080fd5b815180151581146123dd57600080fd5b60005b838110156128125781810151838201526020016127fa565b50506000910152565b6000825161282d8184602087016127f7565b9190910192915050565b60208152600082518060208401526128568160408501602087016127f7565b601f017fffffffffffffffffffffffffffffffffffffffffffffffffffffffffffffffe016919091016040019291505056fea2646970667358221220e4688fde6221fd2fd8587d96d13645d4cbd33639adb2714b1b1c44903a79996e64736f6c634300081100336101406040523480156200001257600080fd5b50604051620021263803806200212683398101604081905262000035916200037c565b60405180604001604052806006815260200165024536c6565760d41b81525080604051806040016040528060018152602001603160f81b81525060405180604001604052806006815260200165024536c6565760d41b815250604051806040016040528060038152602001620534c560ec1b8152508160039081620000bb91906200043a565b506004620000ca82826200043a565b505050620000e7620000e1620001b060201b60201c565b620001b4565b6005805460ff60a01b19169055815160209283012081519183019190912060e08290526101008190524660a0818152604080517f8b73c3c69bb8fe3d512ecc4cf759cc79239f7b179b0ffacaa9a75d522b39400f818801819052818301969096526060810194909452608080850193909352308483018190528151808603909301835260c0948501909152815191909501209052919091526101205250620001a933620001976012600a6200061b565b620001a3908462000633565b62000206565b5062000663565b3390565b600580546001600160a01b038381166001600160a01b0319831681179093556040519116919082907f8be0079c531659141344cd1fd0a4f28419497f9722a3daafe3b4186f6b6457e090600090a35050565b6001600160a01b038216620002625760405162461bcd60e51b815260206004820152601f60248201527f45524332303a206d696e7420746f20746865207a65726f20616464726573730060448201526064015b60405180910390fd5b6200027060008383620002fd565b80600260008282546200028491906200064d565b90915550506001600160a01b03821660009081526020819052604081208054839290620002b39084906200064d565b90915550506040518181526001600160a01b038316906000907fddf252ad1be2c89b69c2b068fc378daa952ba7f163c4a11628f55a4df523b3ef9060200160405180910390a35050565b6200030762000324565b6200031f8383836200031f60201b620008631760201c565b505050565b62000338600554600160a01b900460ff1690565b156200037a5760405162461bcd60e51b815260206004820152601060248201526f14185d5cd8589b194e881c185d5cd95960821b604482015260640162000259565b565b6000602082840312156200038f57600080fd5b5051919050565b634e487b7160e01b600052604160045260246000fd5b600181811c90821680620003c157607f821691505b602082108103620003e257634e487b7160e01b600052602260045260246000fd5b50919050565b601f8211156200031f57600081815260208120601f850160051c81016020861015620004115750805b601f850160051c820191505b8181101562000432578281556001016200041d565b505050505050565b81516001600160401b0381111562000456576200045662000396565b6200046e81620004678454620003ac565b84620003e8565b602080601f831160018114620004a657600084156200048d5750858301515b600019600386901b1c1916600185901b17855562000432565b600085815260208120601f198616915b82811015620004d757888601518255948401946001909101908401620004b6565b5085821015620004f65787850151600019600388901b60f8161c191681555b5050505050600190811b01905550565b634e487b7160e01b600052601160045260246000fd5b600181815b808511156200055d57816000190482111562000541576200054162000506565b808516156200054f57918102915b93841c939080029062000521565b509250929050565b600082620005765750600162000615565b81620005855750600062000615565b81600181146200059e5760028114620005a957620005c9565b600191505062000615565b60ff841115620005bd57620005bd62000506565b50506001821b62000615565b5060208310610133831016604e8410600b8410161715620005ee575081810a62000615565b620005fa83836200051c565b806000190482111562000611576200061162000506565b0290505b92915050565b60006200062c60ff84168362000565565b9392505050565b808202811582820484141762000615576200061562000506565b8082018082111562000615576200061562000506565b60805160a05160c05160e0516101005161012051611a73620006b36000396000610dab01526000610dfa01526000610dd501526000610d2e01526000610d5801526000610d820152611a736000f3fe608060405234801561001057600080fd5b506004361061018d5760003560e01c806370a08231116100e357806395d89b411161008c578063d505accf11610066578063d505accf14610337578063dd62ed3e1461034a578063f2fde38b1461039057600080fd5b806395d89b4114610309578063a457c2d714610311578063a9059cbb1461032457600080fd5b80637ecebe00116100bd5780637ecebe00146102c65780638456cb59146102d95780638da5cb5b146102e157600080fd5b806370a0823114610275578063715018a6146102ab57806379cc6790146102b357600080fd5b80633644e5151161014557806340c10f191161011f57806340c10f191461022c57806342966c681461023f5780635c975abb1461025257600080fd5b80633644e51514610207578063395093511461020f5780633f4ba83a1461022257600080fd5b806318160ddd1161017657806318160ddd146101d357806323b872dd146101e5578063313ce567146101f857600080fd5b806306fdde0314610192578063095ea7b3146101b0575b600080fd5b61019a6103a3565b6040516101a79190611790565b60405180910390f35b6101c36101be366004611825565b610435565b60405190151581526020016101a7565b6002545b6040519081526020016101a7565b6101c36101f336600461184f565b61044f565b604051601281526020016101a7565b6101d7610473565b6101c361021d366004611825565b610482565b61022a6104ce565b005b61022a61023a366004611825565b6104e0565b61022a61024d36600461188b565b6104f6565b60055474010000000000000000000000000000000000000000900460ff166101c3565b6101d76102833660046118a4565b73ffffffffffffffffffffffffffffffffffffffff1660009081526020819052604090205490565b61022a610503565b61022a6102c1366004611825565b610515565b6101d76102d43660046118a4565b61052a565b61022a610555565b60055460405173ffffffffffffffffffffffffffffffffffffffff90911681526020016101a7565b61019a610565565b6101c361031f366004611825565b610574565b6101c3610332366004611825565b610630565b61022a6103453660046118c6565b61063e565b6101d7610358366004611939565b73ffffffffffffffffffffffffffffffffffffffff918216600090815260016020908152604080832093909416825291909152205490565b61022a61039e3660046118a4565b6107c9565b6060600380546103b29061196c565b80601f01602080910402602001604051908101604052809291908181526020018280546103de9061196c565b801561042b5780601f106104005761010080835404028352916020019161042b565b820191906000526020600020905b81548152906001019060200180831161040e57829003601f168201915b5050505050905090565b600033610443818585610868565b60019150505b92915050565b60003361045d8582856109e7565b610468858585610aa4565b506001949350505050565b600061047d610d14565b905090565b33600081815260016020908152604080832073ffffffffffffffffffffffffffffffffffffffff8716845290915281205490919061044390829086906104c99087906119e8565b610868565b6104d6610e48565b6104de610eaf565b565b6104e8610e48565b6104f28282610f2c565b5050565b610500338261103e565b50565b61050b610e48565b6104de6000611203565b6105208233836109e7565b6104f2828261103e565b73ffffffffffffffffffffffffffffffffffffffff8116600090815260066020526040812054610449565b61055d610e48565b6104de61127a565b6060600480546103b29061196c565b33600081815260016020908152604080832073ffffffffffffffffffffffffffffffffffffffff87168452909152812054909190838110156106235760405162461bcd60e51b815260206004820152602560248201527f45524332303a2064656372656173656420616c6c6f77616e63652062656c6f7760448201527f207a65726f00000000000000000000000000000000000000000000000000000060648201526084015b60405180910390fd5b6104688286868403610868565b600033610443818585610aa4565b8342111561068e5760405162461bcd60e51b815260206004820152601d60248201527f45524332305065726d69743a206578706972656420646561646c696e65000000604482015260640161061a565b60007f6e71edae12b1b97f4d1f60370fef10105fa2faae0126114a169c64845d6126c98888886106bd8c6112e9565b60408051602081019690965273ffffffffffffffffffffffffffffffffffffffff94851690860152929091166060840152608083015260a082015260c0810186905260e00160405160208183030381529060405280519060200120905060006107258261131e565b9050600061073582878787611387565b90508973ffffffffffffffffffffffffffffffffffffffff168173ffffffffffffffffffffffffffffffffffffffff16146107b25760405162461bcd60e51b815260206004820152601e60248201527f45524332305065726d69743a20696e76616c6964207369676e61747572650000604482015260640161061a565b6107bd8a8a8a610868565b50505050505050505050565b6107d1610e48565b73ffffffffffffffffffffffffffffffffffffffff811661085a5760405162461bcd60e51b815260206004820152602660248201527f4f776e61626c653a206e6577206f776e657220697320746865207a65726f206160448201527f6464726573730000000000000000000000000000000000000000000000000000606482015260840161061a565b61050081611203565b505050565b73ffffffffffffffffffffffffffffffffffffffff83166108f05760405162461bcd60e51b8152602060048201526024808201527f45524332303a20617070726f76652066726f6d20746865207a65726f2061646460448201527f7265737300000000000000000000000000000000000000000000000000000000606482015260840161061a565b73ffffffffffffffffffffffffffffffffffffffff82166109795760405162461bcd60e51b815260206004820152602260248201527f45524332303a20617070726f766520746f20746865207a65726f20616464726560448201527f7373000000000000000000000000000000000000000000000000000000000000606482015260840161061a565b73ffffffffffffffffffffffffffffffffffffffff83811660008181526001602090815260408083209487168084529482529182902085905590518481527f8c5be1e5ebec7d5bd14f71427d1e84f3dd0314c0f7b2291e5b200ac8c7c3b925910160405180910390a3505050565b73ffffffffffffffffffffffffffffffffffffffff8381166000908152600160209081526040808320938616835292905220547fffffffffffffffffffffffffffffffffffffffffffffffffffffffffffffffff8114610a9e5781811015610a915760405162461bcd60e51b815260206004820152601d60248201527f45524332303a20696e73756666696369656e7420616c6c6f77616e6365000000604482015260640161061a565b610a9e8484848403610868565b50505050565b73ffffffffffffffffffffffffffffffffffffffff8316610b2d5760405162461bcd60e51b815260206004820152602560248201527f45524332303a207472616e736665722066726f6d20746865207a65726f20616460448201527f6472657373000000000000000000000000000000000000000000000000000000606482015260840161061a565b73ffffffffffffffffffffffffffffffffffffffff8216610bb65760405162461bcd60e51b815260206004820152602360248201527f45524332303a207472616e7366657220746f20746865207a65726f206164647260448201527f6573730000000000000000000000000000000000000000000000000000000000606482015260840161061a565b610bc18383836113af565b73ffffffffffffffffffffffffffffffffffffffff831660009081526020819052604090205481811015610c5d5760405162461bcd60e51b815260206004820152602660248201527f45524332303a207472616e7366657220616d6f756e742065786365656473206260448201527f616c616e63650000000000000000000000000000000000000000000000000000606482015260840161061a565b73ffffffffffffffffffffffffffffffffffffffff808516600090815260208190526040808220858503905591851681529081208054849290610ca19084906119e8565b925050819055508273ffffffffffffffffffffffffffffffffffffffff168473ffffffffffffffffffffffffffffffffffffffff167fddf252ad1be2c89b69c2b068fc378daa952ba7f163c4a11628f55a4df523b3ef84604051610d0791815260200190565b60405180910390a3610a9e565b60003073ffffffffffffffffffffffffffffffffffffffff7f000000000000000000000000000000000000000000000000000000000000000016148015610d7a57507f000000000000000000000000000000000000000000000000000000000000000046145b15610da457507f000000000000000000000000000000000000000000000000000000000000000090565b50604080517f00000000000000000000000000000000000000000000000000000000000000006020808301919091527f0000000000000000000000000000000000000000000000000000000000000000828401527f000000000000000000000000000000000000000000000000000000000000000060608301524660808301523060a0808401919091528351808403909101815260c0909201909252805191012090565b60055473ffffffffffffffffffffffffffffffffffffffff1633146104de5760405162461bcd60e51b815260206004820181905260248201527f4f776e61626c653a2063616c6c6572206973206e6f7420746865206f776e6572604482015260640161061a565b610eb76113b7565b600580547fffffffffffffffffffffff00ffffffffffffffffffffffffffffffffffffffff1690557f5db9ee0a495bf2e6ff9c91a7834c1ba4fdd244a5e8aa4e537bd38aeae4b073aa335b60405173ffffffffffffffffffffffffffffffffffffffff909116815260200160405180910390a1565b73ffffffffffffffffffffffffffffffffffffffff8216610f8f5760405162461bcd60e51b815260206004820152601f60248201527f45524332303a206d696e7420746f20746865207a65726f206164647265737300604482015260640161061a565b610f9b600083836113af565b8060026000828254610fad91906119e8565b909155505073ffffffffffffffffffffffffffffffffffffffff821660009081526020819052604081208054839290610fe79084906119e8565b909155505060405181815273ffffffffffffffffffffffffffffffffffffffff8316906000907fddf252ad1be2c89b69c2b068fc378daa952ba7f163c4a11628f55a4df523b3ef9060200160405180910390a35050565b73ffffffffffffffffffffffffffffffffffffffff82166110c75760405162461bcd60e51b815260206004820152602160248201527f45524332303a206275726e2066726f6d20746865207a65726f2061646472657360448201527f7300000000000000000000000000000000000000000000000000000000000000606482015260840161061a565b6110d3826000836113af565b73ffffffffffffffffffffffffffffffffffffffff82166000908152602081905260409020548181101561116f5760405162461bcd60e51b815260206004820152602260248201527f45524332303a206275726e20616d6f756e7420657863656564732062616c616e60448201527f6365000000000000000000000000000000000000000000000000000000000000606482015260840161061a565b73ffffffffffffffffffffffffffffffffffffffff831660009081526020819052604081208383039055600280548492906111ab9084906119fb565b909155505060405182815260009073ffffffffffffffffffffffffffffffffffffffff8516907fddf252ad1be2c89b69c2b068fc378daa952ba7f163c4a11628f55a4df523b3ef9060200160405180910390a3505050565b6005805473ffffffffffffffffffffffffffffffffffffffff8381167fffffffffffffffffffffffff0000000000000000000000000000000000000000831681179093556040519116919082907f8be0079c531659141344cd1fd0a4f28419497f9722a3daafe3b4186f6b6457e090600090a35050565b611282611421565b600580547fffffffffffffffffffffff00ffffffffffffffffffffffffffffffffffffffff16740100000000000000000000000000000000000000001790557f62e78cea01bee320cd4e420270b5ea74000d11b0c9f74754ebdbfc544b05a258610f023390565b73ffffffffffffffffffffffffffffffffffffffff811660009081526006602052604090208054600181018255905b50919050565b600061044961132b610d14565b836040517f19010000000000000000000000000000000000000000000000000000000000006020820152602281018390526042810182905260009060620160405160208183030381529060405280519060200120905092915050565b60008060006113988787878761148c565b915091506113a5816115a4565b5095945050505050565b610863611421565b60055474010000000000000000000000000000000000000000900460ff166104de5760405162461bcd60e51b815260206004820152601460248201527f5061757361626c653a206e6f7420706175736564000000000000000000000000604482015260640161061a565b60055474010000000000000000000000000000000000000000900460ff16156104de5760405162461bcd60e51b815260206004820152601060248201527f5061757361626c653a2070617573656400000000000000000000000000000000604482015260640161061a565b6000807f7fffffffffffffffffffffffffffffff5d576e7357a4501ddfe92f46681b20a08311156114c3575060009050600361159b565b8460ff16601b141580156114db57508460ff16601c14155b156114ec575060009050600461159b565b6040805160008082526020820180845289905260ff881692820192909252606081018690526080810185905260019060a0016020604051602081039080840390855afa158015611540573d6000803e3d6000fd5b50506040517fffffffffffffffffffffffffffffffffffffffffffffffffffffffffffffffe0015191505073ffffffffffffffffffffffffffffffffffffffff81166115945760006001925092505061159b565b9150600090505b94509492505050565b60008160048111156115b8576115b8611a0e565b036115c05750565b60018160048111156115d4576115d4611a0e565b036116215760405162461bcd60e51b815260206004820152601860248201527f45434453413a20696e76616c6964207369676e61747572650000000000000000604482015260640161061a565b600281600481111561163557611635611a0e565b036116825760405162461bcd60e51b815260206004820152601f60248201527f45434453413a20696e76616c6964207369676e6174757265206c656e67746800604482015260640161061a565b600381600481111561169657611696611a0e565b036117095760405162461bcd60e51b815260206004820152602260248201527f45434453413a20696e76616c6964207369676e6174757265202773272076616c60448201527f7565000000000000000000000000000000000000000000000000000000000000606482015260840161061a565b600481600481111561171d5761171d611a0e565b036105005760405162461bcd60e51b815260206004820152602260248201527f45434453413a20696e76616c6964207369676e6174757265202776272076616c60448201527f7565000000000000000000000000000000000000000000000000000000000000606482015260840161061a565b600060208083528351808285015260005b818110156117bd578581018301518582016040015282016117a1565b5060006040828601015260407fffffffffffffffffffffffffffffffffffffffffffffffffffffffffffffffe0601f8301168501019250505092915050565b803573ffffffffffffffffffffffffffffffffffffffff8116811461182057600080fd5b919050565b6000806040838503121561183857600080fd5b611841836117fc565b946020939093013593505050565b60008060006060848603121561186457600080fd5b61186d846117fc565b925061187b602085016117fc565b9150604084013590509250925092565b60006020828403121561189d57600080fd5b5035919050565b6000602082840312156118b657600080fd5b6118bf826117fc565b9392505050565b600080600080600080600060e0888a0312156118e157600080fd5b6118ea886117fc565b96506118f8602089016117fc565b95506040880135945060608801359350608088013560ff8116811461191c57600080fd5b9699959850939692959460a0840135945060c09093013592915050565b6000806040838503121561194c57600080fd5b611955836117fc565b9150611963602084016117fc565b90509250929050565b600181811c9082168061198057607f821691505b602082108103611318577f4e487b7100000000000000000000000000000000000000000000000000000000600052602260045260246000fd5b7f4e487b7100000000000000000000000000000000000000000000000000000000600052601160045260246000fd5b80820180821115610449576104496119b9565b81810381811115610449576104496119b9565b7f4e487b7100000000000000000000000000000000000000000000000000000000600052602160045260246000fdfea26469706673582212200e66ac133f1815510c50426b64aed34f4f8109e7be473f6bc0028a2d1734550b64736f6c634300081100336101606040523480156200001257600080fd5b50604051620032a4380380620032a48339810160408190526200003591620008c8565b6040518060400160405280600781526020016604890cac2d8e8d60cb1b81525080604051806040016040528060018152602001603160f81b8152506040518060400160405280600781526020016604890cac2d8e8d60cb1b8152506040518060400160405280600481526020016309098a8960e31b8152508160039081620000be919062000986565b506004620000cd828262000986565b505050620000ea620000e4620001ea60201b60201c565b620001ee565b6005805460ff60a01b19169055815160208084019190912082518383012060e08290526101008190524660a0818152604080517f8b73c3c69bb8fe3d512ecc4cf759cc79239f7b179b0ffacaa9a75d522b39400f81880181905281830187905260608201869052608082019490945230818401528151808203909301835260c00190528051940193909320919290916080523060c0526101205250506a084595161401484a0000006101405250505062989680811115620001be5760405163b44f0f2760e01b815260040160405180910390fd5b620001e333620001d16012600a62000b65565b620001dd908462000b76565b62000240565b5062000bd2565b3390565b600580546001600160a01b038381166001600160a01b0319831681179093556040519116919082907f8be0079c531659141344cd1fd0a4f28419497f9722a3daafe3b4186f6b6457e090600090a35050565b6200025782826200025b60201b62000d6d1760201c565b5050565b6200027282826200031260201b62000e1f1760201c565b6001600160e01b03620002866200040f8216565b1115620002f35760405162461bcd60e51b815260206004820152603060248201527f4552433230566f7465733a20746f74616c20737570706c79207269736b73206f60448201526f766572666c6f77696e6720766f74657360801b60648201526084015b60405180910390fd5b6200030c600a62000f126200041560201b17836200042c565b50505050565b6001600160a01b0382166200036a5760405162461bcd60e51b815260206004820152601f60248201527f45524332303a206d696e7420746f20746865207a65726f2061646472657373006044820152606401620002ea565b6200037860008383620005de565b80600260008282546200038c919062000b90565b90915550506001600160a01b03821660009081526020819052604081208054839290620003bb90849062000b90565b90915550506040518181526001600160a01b038316906000907fddf252ad1be2c89b69c2b068fc378daa952ba7f163c4a11628f55a4df523b3ef9060200160405180910390a3620002576000838362000605565b60025490565b600062000423828462000b90565b90505b92915050565b8254600090819080156200047e57856200044860018362000ba6565b815481106200045b576200045b62000bbc565b60009182526020909120015464010000000090046001600160e01b031662000481565b60005b6001600160e01b031692506200049883858760201c565b9150600081118015620004dc57504386620004b560018462000ba6565b81548110620004c857620004c862000bbc565b60009182526020909120015463ffffffff16145b156200055057620004f8826200061d60201b62000f1e1760201c565b866200050660018462000ba6565b8154811062000519576200051962000bbc565b9060005260206000200160000160046101000a8154816001600160e01b0302191690836001600160e01b03160217905550620005d5565b85604051806040016040528062000572436200068c60201b62000fb61760201c565b63ffffffff16815260200162000593856200061d60201b62000f1e1760201c565b6001600160e01b0390811690915282546001810184556000938452602093849020835194909301519091166401000000000263ffffffff909316929092179101555b50935093915050565b620005e8620006f3565b620006008383836200060060201b620010321760201c565b505050565b620006008383836200074b60201b620010371760201c565b60006001600160e01b03821115620006885760405162461bcd60e51b815260206004820152602760248201527f53616665436173743a2076616c756520646f65736e27742066697420696e20326044820152663234206269747360c81b6064820152608401620002ea565b5090565b600063ffffffff821115620006885760405162461bcd60e51b815260206004820152602660248201527f53616665436173743a2076616c756520646f65736e27742066697420696e203360448201526532206269747360d01b6064820152608401620002ea565b62000707600554600160a01b900460ff1690565b15620007495760405162461bcd60e51b815260206004820152601060248201526f14185d5cd8589b194e881c185d5cd95960821b6044820152606401620002ea565b565b620007638383836200060060201b620010321760201c565b6001600160a01b038381166000908152600860205260408082205485841683529120546200060092918216911683818314801590620007a25750600081115b1562000600576001600160a01b038316156200082f576001600160a01b038316600090815260096020908152604082208291620007ec9190620008ba901b6200106917856200042c565b91509150846001600160a01b031660008051602062003284833981519152838360405162000824929190918252602082015260400190565b60405180910390a250505b6001600160a01b0382161562000600576001600160a01b03821660009081526009602090815260408220829162000873919062000415901b62000f1217856200042c565b91509150836001600160a01b0316600080516020620032848339815191528383604051620008ab929190918252602082015260400190565b60405180910390a25050505050565b600062000423828462000ba6565b600060208284031215620008db57600080fd5b5051919050565b634e487b7160e01b600052604160045260246000fd5b600181811c908216806200090d57607f821691505b6020821081036200092e57634e487b7160e01b600052602260045260246000fd5b50919050565b601f8211156200060057600081815260208120601f850160051c810160208610156200095d5750805b601f850160051c820191505b818110156200097e5782815560010162000969565b505050505050565b81516001600160401b03811115620009a257620009a2620008e2565b620009ba81620009b38454620008f8565b8462000934565b602080601f831160018114620009f25760008415620009d95750858301515b600019600386901b1c1916600185901b1785556200097e565b600085815260208120601f198616915b8281101562000a235788860151825594840194600190910190840162000a02565b508582101562000a425787850151600019600388901b60f8161c191681555b5050505050600190811b01905550565b634e487b7160e01b600052601160045260246000fd5b600181815b8085111562000aa957816000190482111562000a8d5762000a8d62000a52565b8085161562000a9b57918102915b93841c939080029062000a6d565b509250929050565b60008262000ac25750600162000426565b8162000ad15750600062000426565b816001811462000aea576002811462000af55762000b15565b600191505062000426565b60ff84111562000b095762000b0962000a52565b50506001821b62000426565b5060208310610133831016604e8410600b841016171562000b3a575081810a62000426565b62000b46838362000a68565b806000190482111562000b5d5762000b5d62000a52565b029392505050565b60006200042360ff84168362000ab1565b808202811582820484141762000426576200042662000a52565b8082018082111562000426576200042662000a52565b8181038181111562000426576200042662000a52565b634e487b7160e01b600052603260045260246000fd5b60805160a05160c05160e05161010051610120516101405161265062000c346000396000818161045901526106d2015260006115290152600061157801526000611553015260006114ac015260006114d60152600061150001526126506000f3fe608060405234801561001057600080fd5b50600436106101f05760003560e01c8063715018a61161010f578063a457c2d7116100a2578063d5abeb0111610071578063d5abeb0114610454578063dd62ed3e1461047b578063f1127ed8146104b4578063f2fde38b1461050657600080fd5b8063a457c2d714610408578063a9059cbb1461041b578063c3cda5201461042e578063d505accf1461044157600080fd5b80638da5cb5b116100de5780638da5cb5b146103c95780638e539e8c146103da57806395d89b41146103ed5780639ab24eb0146103f557600080fd5b8063715018a61461039357806379cc67901461039b5780637ecebe00146103ae5780638456cb59146103c157600080fd5b80633f4ba83a116101875780635c19a95c116101565780635c19a95c1461030c5780635c975abb1461031f5780636fcfff451461034257806370a082311461036a57600080fd5b80633f4ba83a1461029857806340c10f19146102a257806342966c68146102b5578063587cde1e146102c857600080fd5b8063313ce567116101c3578063313ce5671461025b5780633644e5151461026a57806339509351146102725780633a46b1a81461028557600080fd5b806306fdde03146101f5578063095ea7b31461021357806318160ddd1461023657806323b872dd14610248575b600080fd5b6101fd610519565b60405161020a9190612277565b60405180910390f35b6102266102213660046122ff565b6105ab565b604051901515815260200161020a565b6002545b60405190815260200161020a565b610226610256366004612329565b6105c5565b6040516012815260200161020a565b61023a6105e9565b6102266102803660046122ff565b6105f8565b61023a6102933660046122ff565b610637565b6102a06106b6565b005b6102a06102b03660046122ff565b6106c8565b6102a06102c3366004612365565b61074b565b6102f46102d636600461237e565b6001600160a01b039081166000908152600860205260409020541690565b6040516001600160a01b03909116815260200161020a565b6102a061031a36600461237e565b610758565b60055474010000000000000000000000000000000000000000900460ff16610226565b61035561035036600461237e565b610762565b60405163ffffffff909116815260200161020a565b61023a61037836600461237e565b6001600160a01b031660009081526020819052604090205490565b6102a0610784565b6102a06103a93660046122ff565b610796565b61023a6103bc36600461237e565b6107ab565b6102a06107c9565b6005546001600160a01b03166102f4565b61023a6103e8366004612365565b6107d9565b6101fd610835565b61023a61040336600461237e565b610844565b6102266104163660046122ff565b6108f5565b6102266104293660046122ff565b61099f565b6102a061043c3660046123aa565b6109ad565b6102a061044f366004612402565b610ae3565b61023a7f000000000000000000000000000000000000000000000000000000000000000081565b61023a61048936600461246c565b6001600160a01b03918216600090815260016020908152604080832093909416825291909152205490565b6104c76104c236600461249f565b610c47565b60408051825163ffffffff1681526020928301517bffffffffffffffffffffffffffffffffffffffffffffffffffffffff16928101929092520161020a565b6102a061051436600461237e565b610ce0565b606060038054610528906124df565b80601f0160208091040260200160405190810160405280929190818152602001828054610554906124df565b80156105a15780601f10610576576101008083540402835291602001916105a1565b820191906000526020600020905b81548152906001019060200180831161058457829003601f168201915b5050505050905090565b6000336105b9818585611075565b60019150505b92915050565b6000336105d38582856111cd565b6105de858585611277565b506001949350505050565b60006105f361149f565b905090565b3360008181526001602090815260408083206001600160a01b03871684529091528120549091906105b9908290869061063290879061255b565b611075565b600043821061068d5760405162461bcd60e51b815260206004820152601f60248201527f4552433230566f7465733a20626c6f636b206e6f7420796574206d696e65640060448201526064015b60405180910390fd5b6001600160a01b03831660009081526009602052604090206106af90836115c6565b9392505050565b6106be6116ad565b6106c6611707565b565b6106d06116ad565b7f0000000000000000000000000000000000000000000000000000000000000000816106fb60025490565b610705919061255b565b111561073d576040517fb44f0f2700000000000000000000000000000000000000000000000000000000815260040160405180910390fd5b6107478282611777565b5050565b6107553382611781565b50565b610755338261178b565b6001600160a01b0381166000908152600960205260408120546105bf90610fb6565b61078c6116ad565b6106c6600061181c565b6107a18233836111cd565b6107478282611781565b6001600160a01b0381166000908152600660205260408120546105bf565b6107d16116ad565b6106c6611886565b600043821061082a5760405162461bcd60e51b815260206004820152601f60248201527f4552433230566f7465733a20626c6f636b206e6f7420796574206d696e6564006044820152606401610684565b6105bf600a836115c6565b606060048054610528906124df565b6001600160a01b03811660009081526009602052604081205480156108cd576001600160a01b038316600090815260096020526040902061088660018361256e565b8154811061089657610896612581565b60009182526020909120015464010000000090047bffffffffffffffffffffffffffffffffffffffffffffffffffffffff166108d0565b60005b7bffffffffffffffffffffffffffffffffffffffffffffffffffffffff169392505050565b3360008181526001602090815260408083206001600160a01b0387168452909152812054909190838110156109925760405162461bcd60e51b815260206004820152602560248201527f45524332303a2064656372656173656420616c6c6f77616e63652062656c6f7760448201527f207a65726f0000000000000000000000000000000000000000000000000000006064820152608401610684565b6105de8286868403611075565b6000336105b9818585611277565b834211156109fd5760405162461bcd60e51b815260206004820152601d60248201527f4552433230566f7465733a207369676e617475726520657870697265640000006044820152606401610684565b604080517fe48329057bfd03d55e49b547132e39cffd9c1820ad7b9d4c5307691425d15adf60208201526001600160a01b038816918101919091526060810186905260808101859052600090610a7790610a6f9060a001604051602081830303815290604052805190602001206118f5565b85858561195e565b9050610a8281611986565b8614610ad05760405162461bcd60e51b815260206004820152601960248201527f4552433230566f7465733a20696e76616c6964206e6f6e6365000000000000006044820152606401610684565b610ada818861178b565b50505050505050565b83421115610b335760405162461bcd60e51b815260206004820152601d60248201527f45524332305065726d69743a206578706972656420646561646c696e650000006044820152606401610684565b60007f6e71edae12b1b97f4d1f60370fef10105fa2faae0126114a169c64845d6126c9888888610b628c611986565b6040805160208101969096526001600160a01b0394851690860152929091166060840152608083015260a082015260c0810186905260e0016040516020818303038152906040528051906020012090506000610bbd826118f5565b90506000610bcd8287878761195e565b9050896001600160a01b0316816001600160a01b031614610c305760405162461bcd60e51b815260206004820152601e60248201527f45524332305065726d69743a20696e76616c6964207369676e617475726500006044820152606401610684565b610c3b8a8a8a611075565b50505050505050505050565b60408051808201909152600080825260208201526001600160a01b0383166000908152600960205260409020805463ffffffff8416908110610c8b57610c8b612581565b60009182526020918290206040805180820190915291015463ffffffff8116825264010000000090047bffffffffffffffffffffffffffffffffffffffffffffffffffffffff16918101919091529392505050565b610ce86116ad565b6001600160a01b038116610d645760405162461bcd60e51b815260206004820152602660248201527f4f776e61626c653a206e6577206f776e657220697320746865207a65726f206160448201527f64647265737300000000000000000000000000000000000000000000000000006064820152608401610684565b6107558161181c565b610d778282610e1f565b6002547bffffffffffffffffffffffffffffffffffffffffffffffffffffffff1015610e0b5760405162461bcd60e51b815260206004820152603060248201527f4552433230566f7465733a20746f74616c20737570706c79207269736b73206f60448201527f766572666c6f77696e6720766f746573000000000000000000000000000000006064820152608401610684565b610e19600a610f12836119ae565b50505050565b6001600160a01b038216610e755760405162461bcd60e51b815260206004820152601f60248201527f45524332303a206d696e7420746f20746865207a65726f2061646472657373006044820152606401610684565b610e8160008383611b90565b8060026000828254610e93919061255b565b90915550506001600160a01b03821660009081526020819052604081208054839290610ec090849061255b565b90915550506040518181526001600160a01b038316906000907fddf252ad1be2c89b69c2b068fc378daa952ba7f163c4a11628f55a4df523b3ef9060200160405180910390a361074760008383611b98565b60006106af828461255b565b60007bffffffffffffffffffffffffffffffffffffffffffffffffffffffff821115610fb25760405162461bcd60e51b815260206004820152602760248201527f53616665436173743a2076616c756520646f65736e27742066697420696e203260448201527f32342062697473000000000000000000000000000000000000000000000000006064820152608401610684565b5090565b600063ffffffff821115610fb25760405162461bcd60e51b815260206004820152602660248201527f53616665436173743a2076616c756520646f65736e27742066697420696e203360448201527f32206269747300000000000000000000000000000000000000000000000000006064820152608401610684565b505050565b6001600160a01b0383811660009081526008602052604080822054858416835291205461103292918216911683611ba3565b60006106af828461256e565b6001600160a01b0383166110f05760405162461bcd60e51b8152602060048201526024808201527f45524332303a20617070726f76652066726f6d20746865207a65726f2061646460448201527f72657373000000000000000000000000000000000000000000000000000000006064820152608401610684565b6001600160a01b03821661116c5760405162461bcd60e51b815260206004820152602260248201527f45524332303a20617070726f766520746f20746865207a65726f20616464726560448201527f73730000000000000000000000000000000000000000000000000000000000006064820152608401610684565b6001600160a01b0383811660008181526001602090815260408083209487168084529482529182902085905590518481527f8c5be1e5ebec7d5bd14f71427d1e84f3dd0314c0f7b2291e5b200ac8c7c3b925910160405180910390a3505050565b6001600160a01b038381166000908152600160209081526040808320938616835292905220547fffffffffffffffffffffffffffffffffffffffffffffffffffffffffffffffff8114610e19578181101561126a5760405162461bcd60e51b815260206004820152601d60248201527f45524332303a20696e73756666696369656e7420616c6c6f77616e63650000006044820152606401610684565b610e198484848403611075565b6001600160a01b0383166112f35760405162461bcd60e51b815260206004820152602560248201527f45524332303a207472616e736665722066726f6d20746865207a65726f20616460448201527f64726573730000000000000000000000000000000000000000000000000000006064820152608401610684565b6001600160a01b03821661136f5760405162461bcd60e51b815260206004820152602360248201527f45524332303a207472616e7366657220746f20746865207a65726f206164647260448201527f65737300000000000000000000000000000000000000000000000000000000006064820152608401610684565b61137a838383611b90565b6001600160a01b038316600090815260208190526040902054818110156114095760405162461bcd60e51b815260206004820152602660248201527f45524332303a207472616e7366657220616d6f756e742065786365656473206260448201527f616c616e636500000000000000000000000000000000000000000000000000006064820152608401610684565b6001600160a01b0380851660009081526020819052604080822085850390559185168152908120805484929061144090849061255b565b92505081905550826001600160a01b0316846001600160a01b03167fddf252ad1be2c89b69c2b068fc378daa952ba7f163c4a11628f55a4df523b3ef8460405161148c91815260200190565b60405180910390a3610e19848484611b98565b6000306001600160a01b037f0000000000000000000000000000000000000000000000000000000000000000161480156114f857507f000000000000000000000000000000000000000000000000000000000000000046145b1561152257507f000000000000000000000000000000000000000000000000000000000000000090565b50604080517f00000000000000000000000000000000000000000000000000000000000000006020808301919091527f0000000000000000000000000000000000000000000000000000000000000000828401527f000000000000000000000000000000000000000000000000000000000000000060608301524660808301523060a0808401919091528351808403909101815260c0909201909252805191012090565b8154600090815b8181101561162a5760006115e18284611ce0565b9050848682815481106115f6576115f6612581565b60009182526020909120015463ffffffff16111561161657809250611624565b61162181600161255b565b91505b506115cd565b8115611683578461163c60018461256e565b8154811061164c5761164c612581565b60009182526020909120015464010000000090047bffffffffffffffffffffffffffffffffffffffffffffffffffffffff16611686565b60005b7bffffffffffffffffffffffffffffffffffffffffffffffffffffffff1695945050505050565b6005546001600160a01b031633146106c65760405162461bcd60e51b815260206004820181905260248201527f4f776e61626c653a2063616c6c6572206973206e6f7420746865206f776e65726044820152606401610684565b61170f611cfb565b600580547fffffffffffffffffffffff00ffffffffffffffffffffffffffffffffffffffff1690557f5db9ee0a495bf2e6ff9c91a7834c1ba4fdd244a5e8aa4e537bd38aeae4b073aa335b6040516001600160a01b03909116815260200160405180910390a1565b6107478282610d6d565b6107478282611d65565b6001600160a01b038281166000818152600860208181526040808420805485845282862054949093528787167fffffffffffffffffffffffff00000000000000000000000000000000000000008416811790915590519190951694919391928592917f3134e8a2e6d97e929a7e54011ea5485d7d196dd5f0ba4d4ef95803e8e3fc257f9190a4610e19828483611ba3565b600580546001600160a01b038381167fffffffffffffffffffffffff0000000000000000000000000000000000000000831681179093556040519116919082907f8be0079c531659141344cd1fd0a4f28419497f9722a3daafe3b4186f6b6457e090600090a35050565b61188e611d7d565b600580547fffffffffffffffffffffff00ffffffffffffffffffffffffffffffffffffffff16740100000000000000000000000000000000000000001790557f62e78cea01bee320cd4e420270b5ea74000d11b0c9f74754ebdbfc544b05a25861175a3390565b60006105bf61190261149f565b836040517f19010000000000000000000000000000000000000000000000000000000000006020820152602281018390526042810182905260009060620160405160208183030381529060405280519060200120905092915050565b600080600061196f87878787611de8565b9150915061197c81611ef3565b5095945050505050565b6001600160a01b03811660009081526006602052604090208054600181018255905b50919050565b825460009081908015611a0e57856119c760018361256e565b815481106119d7576119d7612581565b60009182526020909120015464010000000090047bffffffffffffffffffffffffffffffffffffffffffffffffffffffff16611a11565b60005b7bffffffffffffffffffffffffffffffffffffffffffffffffffffffff169250611a3f83858763ffffffff16565b9150600081118015611a7d57504386611a5960018461256e565b81548110611a6957611a69612581565b60009182526020909120015463ffffffff16145b15611b0757611a8b82610f1e565b86611a9760018461256e565b81548110611aa757611aa7612581565b9060005260206000200160000160046101000a8154817bffffffffffffffffffffffffffffffffffffffffffffffffffffffff02191690837bffffffffffffffffffffffffffffffffffffffffffffffffffffffff160217905550611b87565b856040518060400160405280611b1c43610fb6565b63ffffffff168152602001611b3085610f1e565b7bffffffffffffffffffffffffffffffffffffffffffffffffffffffff90811690915282546001810184556000938452602093849020835194909301519091166401000000000263ffffffff909316929092179101555b50935093915050565b611032611d7d565b611032838383611037565b816001600160a01b0316836001600160a01b031614158015611bc55750600081115b15611032576001600160a01b03831615611c53576001600160a01b03831660009081526009602052604081208190611c0090611069856119ae565b91509150846001600160a01b03167fdec2bacdd2f05b59de34da9b523dff8be42e5e38e818c82fdb0bae774387a7248383604051611c48929190918252602082015260400190565b60405180910390a250505b6001600160a01b03821615611032576001600160a01b03821660009081526009602052604081208190611c8990610f12856119ae565b91509150836001600160a01b03167fdec2bacdd2f05b59de34da9b523dff8be42e5e38e818c82fdb0bae774387a7248383604051611cd1929190918252602082015260400190565b60405180910390a25050505050565b6000611cef60028484186125b0565b6106af9084841661255b565b60055474010000000000000000000000000000000000000000900460ff166106c65760405162461bcd60e51b815260206004820152601460248201527f5061757361626c653a206e6f74207061757365640000000000000000000000006044820152606401610684565b611d6f82826120df565b610e19600a611069836119ae565b60055474010000000000000000000000000000000000000000900460ff16156106c65760405162461bcd60e51b815260206004820152601060248201527f5061757361626c653a20706175736564000000000000000000000000000000006044820152606401610684565b6000807f7fffffffffffffffffffffffffffffff5d576e7357a4501ddfe92f46681b20a0831115611e1f5750600090506003611eea565b8460ff16601b14158015611e3757508460ff16601c14155b15611e485750600090506004611eea565b6040805160008082526020820180845289905260ff881692820192909252606081018690526080810185905260019060a0016020604051602081039080840390855afa158015611e9c573d6000803e3d6000fd5b50506040517fffffffffffffffffffffffffffffffffffffffffffffffffffffffffffffffe001519150506001600160a01b038116611ee357600060019250925050611eea565b9150600090505b94509492505050565b6000816004811115611f0757611f076125eb565b03611f0f5750565b6001816004811115611f2357611f236125eb565b03611f705760405162461bcd60e51b815260206004820152601860248201527f45434453413a20696e76616c6964207369676e617475726500000000000000006044820152606401610684565b6002816004811115611f8457611f846125eb565b03611fd15760405162461bcd60e51b815260206004820152601f60248201527f45434453413a20696e76616c6964207369676e6174757265206c656e677468006044820152606401610684565b6003816004811115611fe557611fe56125eb565b036120585760405162461bcd60e51b815260206004820152602260248201527f45434453413a20696e76616c6964207369676e6174757265202773272076616c60448201527f75650000000000000000000000000000000000000000000000000000000000006064820152608401610684565b600481600481111561206c5761206c6125eb565b036107555760405162461bcd60e51b815260206004820152602260248201527f45434453413a20696e76616c6964207369676e6174757265202776272076616c60448201527f75650000000000000000000000000000000000000000000000000000000000006064820152608401610684565b6001600160a01b03821661215b5760405162461bcd60e51b815260206004820152602160248201527f45524332303a206275726e2066726f6d20746865207a65726f2061646472657360448201527f73000000000000000000000000000000000000000000000000000000000000006064820152608401610684565b61216782600083611b90565b6001600160a01b038216600090815260208190526040902054818110156121f65760405162461bcd60e51b815260206004820152602260248201527f45524332303a206275726e20616d6f756e7420657863656564732062616c616e60448201527f63650000000000000000000000000000000000000000000000000000000000006064820152608401610684565b6001600160a01b038316600090815260208190526040812083830390556002805484929061222590849061256e565b90915550506040518281526000906001600160a01b038516907fddf252ad1be2c89b69c2b068fc378daa952ba7f163c4a11628f55a4df523b3ef9060200160405180910390a361103283600084611b98565b600060208083528351808285015260005b818110156122a457858101830151858201604001528201612288565b5060006040828601015260407fffffffffffffffffffffffffffffffffffffffffffffffffffffffffffffffe0601f8301168501019250505092915050565b80356001600160a01b03811681146122fa57600080fd5b919050565b6000806040838503121561231257600080fd5b61231b836122e3565b946020939093013593505050565b60008060006060848603121561233e57600080fd5b612347846122e3565b9250612355602085016122e3565b9150604084013590509250925092565b60006020828403121561237757600080fd5b5035919050565b60006020828403121561239057600080fd5b6106af826122e3565b803560ff811681146122fa57600080fd5b60008060008060008060c087890312156123c357600080fd5b6123cc876122e3565b955060208701359450604087013593506123e860608801612399565b92506080870135915060a087013590509295509295509295565b600080600080600080600060e0888a03121561241d57600080fd5b612426886122e3565b9650612434602089016122e3565b9550604088013594506060880135935061245060808901612399565b925060a0880135915060c0880135905092959891949750929550565b6000806040838503121561247f57600080fd5b612488836122e3565b9150612496602084016122e3565b90509250929050565b600080604083850312156124b257600080fd5b6124bb836122e3565b9150602083013563ffffffff811681146124d457600080fd5b809150509250929050565b600181811c908216806124f357607f821691505b6020821081036119a8577f4e487b7100000000000000000000000000000000000000000000000000000000600052602260045260246000fd5b7f4e487b7100000000000000000000000000000000000000000000000000000000600052601160045260246000fd5b808201808211156105bf576105bf61252c565b818103818111156105bf576105bf61252c565b7f4e487b7100000000000000000000000000000000000000000000000000000000600052603260045260246000fd5b6000826125e6577f4e487b7100000000000000000000000000000000000000000000000000000000600052601260045260246000fd5b500490565b7f4e487b7100000000000000000000000000000000000000000000000000000000600052602160045260246000fdfea2646970667358221220a2b81175f07f32fa8d4ec9e0a9483f8f78ab00bf7f00fe42b7fa25da309f3d4a64736f6c63430008110033dec2bacdd2f05b59de34da9b523dff8be42e5e38e818c82fdb0bae774387a724",
  "linkReferences": {},
  "deployedLinkReferences": {}
}