{
  "_format": "hh-sol-artifact-1",
  "contractName": "Sleep",
  "sourceName": "contracts/Tokens/Sleep.sol",
  "abi": [
    {
      "inputs": [
        {
          "internalType": "uint256",
          "name": "_totalSupply",
          "type": "uint256"
        }
      ],
      "stateMutability": "nonpayable",
      "type": "constructor"
    },
    {
      "anonymous": false,
      "inputs": [
        {
          "indexed": true,
          "internalType": "address",
          "name": "owner",
          "type": "address"
        },
        {
          "indexed": true,
          "internalType": "address",
          "name": "spender",
          "type": "address"
        },
        {
          "indexed": false,
          "internalType": "uint256",
          "name": "value",
          "type": "uint256"
        }
      ],
      "name": "Approval",
      "type": "event"
    },
    {
      "anonymous": false,
      "inputs": [
        {
          "indexed": true,
          "internalType": "address",
          "name": "previousOwner",
          "type": "address"
        },
        {
          "indexed": true,
          "internalType": "address",
          "name": "newOwner",
          "type": "address"
        }
      ],
      "name": "OwnershipTransferred",
      "type": "event"
    },
    {
      "anonymous": false,
      "inputs": [
        {
          "indexed": false,
          "internalType": "address",
          "name": "account",
          "type": "address"
        }
      ],
      "name": "Paused",
      "type": "event"
    },
    {
      "anonymous": false,
      "inputs": [
        {
          "indexed": true,
          "internalType": "address",
          "name": "from",
          "type": "address"
        },
        {
          "indexed": true,
          "internalType": "address",
          "name": "to",
          "type": "address"
        },
        {
          "indexed": false,
          "internalType": "uint256",
          "name": "value",
          "type": "uint256"
        }
      ],
      "name": "Transfer",
      "type": "event"
    },
    {
      "anonymous": false,
      "inputs": [
        {
          "indexed": false,
          "internalType": "address",
          "name": "account",
          "type": "address"
        }
      ],
      "name": "Unpaused",
      "type": "event"
    },
    {
      "inputs": [],
      "name": "DOMAIN_SEPARATOR",
      "outputs": [
        {
          "internalType": "bytes32",
          "name": "",
          "type": "bytes32"
        }
      ],
      "stateMutability": "view",
      "type": "function"
    },
    {
      "inputs": [
        {
          "internalType": "address",
          "name": "owner",
          "type": "address"
        },
        {
          "internalType": "address",
          "name": "spender",
          "type": "address"
        }
      ],
      "name": "allowance",
      "outputs": [
        {
          "internalType": "uint256",
          "name": "",
          "type": "uint256"
        }
      ],
      "stateMutability": "view",
      "type": "function"
    },
    {
      "inputs": [
        {
          "internalType": "address",
          "name": "spender",
          "type": "address"
        },
        {
          "internalType": "uint256",
          "name": "amount",
          "type": "uint256"
        }
      ],
      "name": "approve",
      "outputs": [
        {
          "internalType": "bool",
          "name": "",
          "type": "bool"
        }
      ],
      "stateMutability": "nonpayable",
      "type": "function"
    },
    {
      "inputs": [
        {
          "internalType": "address",
          "name": "account",
          "type": "address"
        }
      ],
      "name": "balanceOf",
      "outputs": [
        {
          "internalType": "uint256",
          "name": "",
          "type": "uint256"
        }
      ],
      "stateMutability": "view",
      "type": "function"
    },
    {
      "inputs": [
        {
          "internalType": "uint256",
          "name": "amount",
          "type": "uint256"
        }
      ],
      "name": "burn",
      "outputs": [],
      "stateMutability": "nonpayable",
      "type": "function"
    },
    {
      "inputs": [
        {
          "internalType": "address",
          "name": "account",
          "type": "address"
        },
        {
          "internalType": "uint256",
          "name": "amount",
          "type": "uint256"
        }
      ],
      "name": "burnFrom",
      "outputs": [],
      "stateMutability": "nonpayable",
      "type": "function"
    },
    {
      "inputs": [],
      "name": "decimals",
      "outputs": [
        {
          "internalType": "uint8",
          "name": "",
          "type": "uint8"
        }
      ],
      "stateMutability": "view",
      "type": "function"
    },
    {
      "inputs": [
        {
          "internalType": "address",
          "name": "spender",
          "type": "address"
        },
        {
          "internalType": "uint256",
          "name": "subtractedValue",
          "type": "uint256"
        }
      ],
      "name": "decreaseAllowance",
      "outputs": [
        {
          "internalType": "bool",
          "name": "",
          "type": "bool"
        }
      ],
      "stateMutability": "nonpayable",
      "type": "function"
    },
    {
      "inputs": [
        {
          "internalType": "address",
          "name": "spender",
          "type": "address"
        },
        {
          "internalType": "uint256",
          "name": "addedValue",
          "type": "uint256"
        }
      ],
      "name": "increaseAllowance",
      "outputs": [
        {
          "internalType": "bool",
          "name": "",
          "type": "bool"
        }
      ],
      "stateMutability": "nonpayable",
      "type": "function"
    },
    {
      "inputs": [
        {
          "internalType": "address",
          "name": "_to",
          "type": "address"
        },
        {
          "internalType": "uint256",
          "name": "_amount",
          "type": "uint256"
        }
      ],
      "name": "mint",
      "outputs": [],
      "stateMutability": "nonpayable",
      "type": "function"
    },
    {
      "inputs": [],
      "name": "name",
      "outputs": [
        {
          "internalType": "string",
          "name": "",
          "type": "string"
        }
      ],
      "stateMutability": "view",
      "type": "function"
    },
    {
      "inputs": [
        {
          "internalType": "address",
          "name": "owner",
          "type": "address"
        }
      ],
      "name": "nonces",
      "outputs": [
        {
          "internalType": "uint256",
          "name": "",
          "type": "uint256"
        }
      ],
      "stateMutability": "view",
      "type": "function"
    },
    {
      "inputs": [],
      "name": "owner",
      "outputs": [
        {
          "internalType": "address",
          "name": "",
          "type": "address"
        }
      ],
      "stateMutability": "view",
      "type": "function"
    },
    {
      "inputs": [],
      "name": "pause",
      "outputs": [],
      "stateMutability": "nonpayable",
      "type": "function"
    },
    {
      "inputs": [],
      "name": "paused",
      "outputs": [
        {
          "internalType": "bool",
          "name": "",
          "type": "bool"
        }
      ],
      "stateMutability": "view",
      "type": "function"
    },
    {
      "inputs": [
        {
          "internalType": "address",
          "name": "owner",
          "type": "address"
        },
        {
          "internalType": "address",
          "name": "spender",
          "type": "address"
        },
        {
          "internalType": "uint256",
          "name": "value",
          "type": "uint256"
        },
        {
          "internalType": "uint256",
          "name": "deadline",
          "type": "uint256"
        },
        {
          "internalType": "uint8",
          "name": "v",
          "type": "uint8"
        },
        {
          "internalType": "bytes32",
          "name": "r",
          "type": "bytes32"
        },
        {
          "internalType": "bytes32",
          "name": "s",
          "type": "bytes32"
        }
      ],
      "name": "permit",
      "outputs": [],
      "stateMutability": "nonpayable",
      "type": "function"
    },
    {
      "inputs": [],
      "name": "renounceOwnership",
      "outputs": [],
      "stateMutability": "nonpayable",
      "type": "function"
    },
    {
      "inputs": [],
      "name": "symbol",
      "outputs": [
        {
          "internalType": "string",
          "name": "",
          "type": "string"
        }
      ],
      "stateMutability": "view",
      "type": "function"
    },
    {
      "inputs": [],
      "name": "totalSupply",
      "outputs": [
        {
          "internalType": "uint256",
          "name": "",
          "type": "uint256"
        }
      ],
      "stateMutability": "view",
      "type": "function"
    },
    {
      "inputs": [
        {
          "internalType": "address",
          "name": "to",
          "type": "address"
        },
        {
          "internalType": "uint256",
          "name": "amount",
          "type": "uint256"
        }
      ],
      "name": "transfer",
      "outputs": [
        {
          "internalType": "bool",
          "name": "",
          "type": "bool"
        }
      ],
      "stateMutability": "nonpayable",
      "type": "function"
    },
    {
      "inputs": [
        {
          "internalType": "address",
          "name": "from",
          "type": "address"
        },
        {
          "internalType": "address",
          "name": "to",
          "type": "address"
        },
        {
          "internalType": "uint256",
          "name": "amount",
          "type": "uint256"
        }
      ],
      "name": "transferFrom",
      "outputs": [
        {
          "internalType": "bool",
          "name": "",
          "type": "bool"
        }
      ],
      "stateMutability": "nonpayable",
      "type": "function"
    },
    {
      "inputs": [
        {
          "internalType": "address",
          "name": "newOwner",
          "type": "address"
        }
      ],
      "name": "transferOwnership",
      "outputs": [],
      "stateMutability": "nonpayable",
      "type": "function"
    },
    {
      "inputs": [],
      "name": "unpause",
      "outputs": [],
      "stateMutability": "nonpayable",
      "type": "function"
    }
  ],
  "bytecode": "0x6101406040523480156200001257600080fd5b50604051620021263803806200212683398101604081905262000035916200037c565b60405180604001604052806006815260200165024536c6565760d41b81525080604051806040016040528060018152602001603160f81b81525060405180604001604052806006815260200165024536c6565760d41b815250604051806040016040528060038152602001620534c560ec1b8152508160039081620000bb91906200043a565b506004620000ca82826200043a565b505050620000e7620000e1620001b060201b60201c565b620001b4565b6005805460ff60a01b19169055815160209283012081519183019190912060e08290526101008190524660a0818152604080517f8b73c3c69bb8fe3d512ecc4cf759cc79239f7b179b0ffacaa9a75d522b39400f818801819052818301969096526060810194909452608080850193909352308483018190528151808603909301835260c0948501909152815191909501209052919091526101205250620001a933620001976012600a6200061b565b620001a3908462000633565b62000206565b5062000663565b3390565b600580546001600160a01b038381166001600160a01b0319831681179093556040519116919082907f8be0079c531659141344cd1fd0a4f28419497f9722a3daafe3b4186f6b6457e090600090a35050565b6001600160a01b038216620002625760405162461bcd60e51b815260206004820152601f60248201527f45524332303a206d696e7420746f20746865207a65726f20616464726573730060448201526064015b60405180910390fd5b6200027060008383620002fd565b80600260008282546200028491906200064d565b90915550506001600160a01b03821660009081526020819052604081208054839290620002b39084906200064d565b90915550506040518181526001600160a01b038316906000907fddf252ad1be2c89b69c2b068fc378daa952ba7f163c4a11628f55a4df523b3ef9060200160405180910390a35050565b6200030762000324565b6200031f8383836200031f60201b620008631760201c565b505050565b62000338600554600160a01b900460ff1690565b156200037a5760405162461bcd60e51b815260206004820152601060248201526f14185d5cd8589b194e881c185d5cd95960821b604482015260640162000259565b565b6000602082840312156200038f57600080fd5b5051919050565b634e487b7160e01b600052604160045260246000fd5b600181811c90821680620003c157607f821691505b602082108103620003e257634e487b7160e01b600052602260045260246000fd5b50919050565b601f8211156200031f57600081815260208120601f850160051c81016020861015620004115750805b601f850160051c820191505b8181101562000432578281556001016200041d565b505050505050565b81516001600160401b0381111562000456576200045662000396565b6200046e81620004678454620003ac565b84620003e8565b602080601f831160018114620004a657600084156200048d5750858301515b600019600386901b1c1916600185901b17855562000432565b600085815260208120601f198616915b82811015620004d757888601518255948401946001909101908401620004b6565b5085821015620004f65787850151600019600388901b60f8161c191681555b5050505050600190811b01905550565b634e487b7160e01b600052601160045260246000fd5b600181815b808511156200055d57816000190482111562000541576200054162000506565b808516156200054f57918102915b93841c939080029062000521565b509250929050565b600082620005765750600162000615565b81620005855750600062000615565b81600181146200059e5760028114620005a957620005c9565b600191505062000615565b60ff841115620005bd57620005bd62000506565b50506001821b62000615565b5060208310610133831016604e8410600b8410161715620005ee575081810a62000615565b620005fa83836200051c565b806000190482111562000611576200061162000506565b0290505b92915050565b60006200062c60ff84168362000565565b9392505050565b808202811582820484141762000615576200061562000506565b8082018082111562000615576200061562000506565b60805160a05160c05160e0516101005161012051611a73620006b36000396000610dab01526000610dfa01526000610dd501526000610d2e01526000610d5801526000610d820152611a736000f3fe608060405234801561001057600080fd5b506004361061018d5760003560e01c806370a08231116100e357806395d89b411161008c578063d505accf11610066578063d505accf14610337578063dd62ed3e1461034a578063f2fde38b1461039057600080fd5b806395d89b4114610309578063a457c2d714610311578063a9059cbb1461032457600080fd5b80637ecebe00116100bd5780637ecebe00146102c65780638456cb59146102d95780638da5cb5b146102e157600080fd5b806370a0823114610275578063715018a6146102ab57806379cc6790146102b357600080fd5b80633644e5151161014557806340c10f191161011f57806340c10f191461022c57806342966c681461023f5780635c975abb1461025257600080fd5b80633644e51514610207578063395093511461020f5780633f4ba83a1461022257600080fd5b806318160ddd1161017657806318160ddd146101d357806323b872dd146101e5578063313ce567146101f857600080fd5b806306fdde0314610192578063095ea7b3146101b0575b600080fd5b61019a6103a3565b6040516101a79190611790565b60405180910390f35b6101c36101be366004611825565b610435565b60405190151581526020016101a7565b6002545b6040519081526020016101a7565b6101c36101f336600461184f565b61044f565b604051601281526020016101a7565b6101d7610473565b6101c361021d366004611825565b610482565b61022a6104ce565b005b61022a61023a366004611825565b6104e0565b61022a61024d36600461188b565b6104f6565b60055474010000000000000000000000000000000000000000900460ff166101c3565b6101d76102833660046118a4565b73ffffffffffffffffffffffffffffffffffffffff1660009081526020819052604090205490565b61022a610503565b61022a6102c1366004611825565b610515565b6101d76102d43660046118a4565b61052a565b61022a610555565b60055460405173ffffffffffffffffffffffffffffffffffffffff90911681526020016101a7565b61019a610565565b6101c361031f366004611825565b610574565b6101c3610332366004611825565b610630565b61022a6103453660046118c6565b61063e565b6101d7610358366004611939565b73ffffffffffffffffffffffffffffffffffffffff918216600090815260016020908152604080832093909416825291909152205490565b61022a61039e3660046118a4565b6107c9565b6060600380546103b29061196c565b80601f01602080910402602001604051908101604052809291908181526020018280546103de9061196c565b801561042b5780601f106104005761010080835404028352916020019161042b565b820191906000526020600020905b81548152906001019060200180831161040e57829003601f168201915b5050505050905090565b600033610443818585610868565b60019150505b92915050565b60003361045d8582856109e7565b610468858585610aa4565b506001949350505050565b600061047d610d14565b905090565b33600081815260016020908152604080832073ffffffffffffffffffffffffffffffffffffffff8716845290915281205490919061044390829086906104c99087906119e8565b610868565b6104d6610e48565b6104de610eaf565b565b6104e8610e48565b6104f28282610f2c565b5050565b610500338261103e565b50565b61050b610e48565b6104de6000611203565b6105208233836109e7565b6104f2828261103e565b73ffffffffffffffffffffffffffffffffffffffff8116600090815260066020526040812054610449565b61055d610e48565b6104de61127a565b6060600480546103b29061196c565b33600081815260016020908152604080832073ffffffffffffffffffffffffffffffffffffffff87168452909152812054909190838110156106235760405162461bcd60e51b815260206004820152602560248201527f45524332303a2064656372656173656420616c6c6f77616e63652062656c6f7760448201527f207a65726f00000000000000000000000000000000000000000000000000000060648201526084015b60405180910390fd5b6104688286868403610868565b600033610443818585610aa4565b8342111561068e5760405162461bcd60e51b815260206004820152601d60248201527f45524332305065726d69743a206578706972656420646561646c696e65000000604482015260640161061a565b60007f6e71edae12b1b97f4d1f60370fef10105fa2faae0126114a169c64845d6126c98888886106bd8c6112e9565b60408051602081019690965273ffffffffffffffffffffffffffffffffffffffff94851690860152929091166060840152608083015260a082015260c0810186905260e00160405160208183030381529060405280519060200120905060006107258261131e565b9050600061073582878787611387565b90508973ffffffffffffffffffffffffffffffffffffffff168173ffffffffffffffffffffffffffffffffffffffff16146107b25760405162461bcd60e51b815260206004820152601e60248201527f45524332305065726d69743a20696e76616c6964207369676e61747572650000604482015260640161061a565b6107bd8a8a8a610868565b50505050505050505050565b6107d1610e48565b73ffffffffffffffffffffffffffffffffffffffff811661085a5760405162461bcd60e51b815260206004820152602660248201527f4f776e61626c653a206e6577206f776e657220697320746865207a65726f206160448201527f6464726573730000000000000000000000000000000000000000000000000000606482015260840161061a565b61050081611203565b505050565b73ffffffffffffffffffffffffffffffffffffffff83166108f05760405162461bcd60e51b8152602060048201526024808201527f45524332303a20617070726f76652066726f6d20746865207a65726f2061646460448201527f7265737300000000000000000000000000000000000000000000000000000000606482015260840161061a565b73ffffffffffffffffffffffffffffffffffffffff82166109795760405162461bcd60e51b815260206004820152602260248201527f45524332303a20617070726f766520746f20746865207a65726f20616464726560448201527f7373000000000000000000000000000000000000000000000000000000000000606482015260840161061a565b73ffffffffffffffffffffffffffffffffffffffff83811660008181526001602090815260408083209487168084529482529182902085905590518481527f8c5be1e5ebec7d5bd14f71427d1e84f3dd0314c0f7b2291e5b200ac8c7c3b925910160405180910390a3505050565b73ffffffffffffffffffffffffffffffffffffffff8381166000908152600160209081526040808320938616835292905220547fffffffffffffffffffffffffffffffffffffffffffffffffffffffffffffffff8114610a9e5781811015610a915760405162461bcd60e51b815260206004820152601d60248201527f45524332303a20696e73756666696369656e7420616c6c6f77616e6365000000604482015260640161061a565b610a9e8484848403610868565b50505050565b73ffffffffffffffffffffffffffffffffffffffff8316610b2d5760405162461bcd60e51b815260206004820152602560248201527f45524332303a207472616e736665722066726f6d20746865207a65726f20616460448201527f6472657373000000000000000000000000000000000000000000000000000000606482015260840161061a565b73ffffffffffffffffffffffffffffffffffffffff8216610bb65760405162461bcd60e51b815260206004820152602360248201527f45524332303a207472616e7366657220746f20746865207a65726f206164647260448201527f6573730000000000000000000000000000000000000000000000000000000000606482015260840161061a565b610bc18383836113af565b73ffffffffffffffffffffffffffffffffffffffff831660009081526020819052604090205481811015610c5d5760405162461bcd60e51b815260206004820152602660248201527f45524332303a207472616e7366657220616d6f756e742065786365656473206260448201527f616c616e63650000000000000000000000000000000000000000000000000000606482015260840161061a565b73ffffffffffffffffffffffffffffffffffffffff808516600090815260208190526040808220858503905591851681529081208054849290610ca19084906119e8565b925050819055508273ffffffffffffffffffffffffffffffffffffffff168473ffffffffffffffffffffffffffffffffffffffff167fddf252ad1be2c89b69c2b068fc378daa952ba7f163c4a11628f55a4df523b3ef84604051610d0791815260200190565b60405180910390a3610a9e565b60003073ffffffffffffffffffffffffffffffffffffffff7f000000000000000000000000000000000000000000000000000000000000000016148015610d7a57507f000000000000000000000000000000000000000000000000000000000000000046145b15610da457507f000000000000000000000000000000000000000000000000000000000000000090565b50604080517f00000000000000000000000000000000000000000000000000000000000000006020808301919091527f0000000000000000000000000000000000000000000000000000000000000000828401527f000000000000000000000000000000000000000000000000000000000000000060608301524660808301523060a0808401919091528351808403909101815260c0909201909252805191012090565b60055473ffffffffffffffffffffffffffffffffffffffff1633146104de5760405162461bcd60e51b815260206004820181905260248201527f4f776e61626c653a2063616c6c6572206973206e6f7420746865206f776e6572604482015260640161061a565b610eb76113b7565b600580547fffffffffffffffffffffff00ffffffffffffffffffffffffffffffffffffffff1690557f5db9ee0a495bf2e6ff9c91a7834c1ba4fdd244a5e8aa4e537bd38aeae4b073aa335b60405173ffffffffffffffffffffffffffffffffffffffff909116815260200160405180910390a1565b73ffffffffffffffffffffffffffffffffffffffff8216610f8f5760405162461bcd60e51b815260206004820152601f60248201527f45524332303a206d696e7420746f20746865207a65726f206164647265737300604482015260640161061a565b610f9b600083836113af565b8060026000828254610fad91906119e8565b909155505073ffffffffffffffffffffffffffffffffffffffff821660009081526020819052604081208054839290610fe79084906119e8565b909155505060405181815273ffffffffffffffffffffffffffffffffffffffff8316906000907fddf252ad1be2c89b69c2b068fc378daa952ba7f163c4a11628f55a4df523b3ef9060200160405180910390a35050565b73ffffffffffffffffffffffffffffffffffffffff82166110c75760405162461bcd60e51b815260206004820152602160248201527f45524332303a206275726e2066726f6d20746865207a65726f2061646472657360448201527f7300000000000000000000000000000000000000000000000000000000000000606482015260840161061a565b6110d3826000836113af565b73ffffffffffffffffffffffffffffffffffffffff82166000908152602081905260409020548181101561116f5760405162461bcd60e51b815260206004820152602260248201527f45524332303a206275726e20616d6f756e7420657863656564732062616c616e60448201527f6365000000000000000000000000000000000000000000000000000000000000606482015260840161061a565b73ffffffffffffffffffffffffffffffffffffffff831660009081526020819052604081208383039055600280548492906111ab9084906119fb565b909155505060405182815260009073ffffffffffffffffffffffffffffffffffffffff8516907fddf252ad1be2c89b69c2b068fc378daa952ba7f163c4a11628f55a4df523b3ef9060200160405180910390a3505050565b6005805473ffffffffffffffffffffffffffffffffffffffff8381167fffffffffffffffffffffffff0000000000000000000000000000000000000000831681179093556040519116919082907f8be0079c531659141344cd1fd0a4f28419497f9722a3daafe3b4186f6b6457e090600090a35050565b611282611421565b600580547fffffffffffffffffffffff00ffffffffffffffffffffffffffffffffffffffff16740100000000000000000000000000000000000000001790557f62e78cea01bee320cd4e420270b5ea74000d11b0c9f74754ebdbfc544b05a258610f023390565b73ffffffffffffffffffffffffffffffffffffffff811660009081526006602052604090208054600181018255905b50919050565b600061044961132b610d14565b836040517f19010000000000000000000000000000000000000000000000000000000000006020820152602281018390526042810182905260009060620160405160208183030381529060405280519060200120905092915050565b60008060006113988787878761148c565b915091506113a5816115a4565b5095945050505050565b610863611421565b60055474010000000000000000000000000000000000000000900460ff166104de5760405162461bcd60e51b815260206004820152601460248201527f5061757361626c653a206e6f7420706175736564000000000000000000000000604482015260640161061a565b60055474010000000000000000000000000000000000000000900460ff16156104de5760405162461bcd60e51b815260206004820152601060248201527f5061757361626c653a2070617573656400000000000000000000000000000000604482015260640161061a565b6000807f7fffffffffffffffffffffffffffffff5d576e7357a4501ddfe92f46681b20a08311156114c3575060009050600361159b565b8460ff16601b141580156114db57508460ff16601c14155b156114ec575060009050600461159b565b6040805160008082526020820180845289905260ff881692820192909252606081018690526080810185905260019060a0016020604051602081039080840390855afa158015611540573d6000803e3d6000fd5b50506040517fffffffffffffffffffffffffffffffffffffffffffffffffffffffffffffffe0015191505073ffffffffffffffffffffffffffffffffffffffff81166115945760006001925092505061159b565b9150600090505b94509492505050565b60008160048111156115b8576115b8611a0e565b036115c05750565b60018160048111156115d4576115d4611a0e565b036116215760405162461bcd60e51b815260206004820152601860248201527f45434453413a20696e76616c6964207369676e61747572650000000000000000604482015260640161061a565b600281600481111561163557611635611a0e565b036116825760405162461bcd60e51b815260206004820152601f60248201527f45434453413a20696e76616c6964207369676e6174757265206c656e67746800604482015260640161061a565b600381600481111561169657611696611a0e565b036117095760405162461bcd60e51b815260206004820152602260248201527f45434453413a20696e76616c6964207369676e6174757265202773272076616c60448201527f7565000000000000000000000000000000000000000000000000000000000000606482015260840161061a565b600481600481111561171d5761171d611a0e565b036105005760405162461bcd60e51b815260206004820152602260248201527f45434453413a20696e76616c6964207369676e6174757265202776272076616c60448201527f7565000000000000000000000000000000000000000000000000000000000000606482015260840161061a565b600060208083528351808285015260005b818110156117bd578581018301518582016040015282016117a1565b5060006040828601015260407fffffffffffffffffffffffffffffffffffffffffffffffffffffffffffffffe0601f8301168501019250505092915050565b803573ffffffffffffffffffffffffffffffffffffffff8116811461182057600080fd5b919050565b6000806040838503121561183857600080fd5b611841836117fc565b946020939093013593505050565b60008060006060848603121561186457600080fd5b61186d846117fc565b925061187b602085016117fc565b9150604084013590509250925092565b60006020828403121561189d57600080fd5b5035919050565b6000602082840312156118b657600080fd5b6118bf826117fc565b9392505050565b600080600080600080600060e0888a0312156118e157600080fd5b6118ea886117fc565b96506118f8602089016117fc565b95506040880135945060608801359350608088013560ff8116811461191c57600080fd5b9699959850939692959460a0840135945060c09093013592915050565b6000806040838503121561194c57600080fd5b611955836117fc565b9150611963602084016117fc565b90509250929050565b600181811c9082168061198057607f821691505b602082108103611318577f4e487b7100000000000000000000000000000000000000000000000000000000600052602260045260246000fd5b7f4e487b7100000000000000000000000000000000000000000000000000000000600052601160045260246000fd5b80820180821115610449576104496119b9565b81810381811115610449576104496119b9565b7f4e487b7100000000000000000000000000000000000000000000000000000000600052602160045260246000fdfea26469706673582212200e66ac133f1815510c50426b64aed34f4f8109e7be473f6bc0028a2d1734550b64736f6c63430008110033",
  "linkReferences": {},
  "deployedLinkReferences": {}
}