{
  "_format": "hh-sol-artifact-1",
  "contractName": "Tracker",
  "sourceName": "contracts/Utils/Tracker.sol",
  "abi": [
    {
      "inputs": [
        {
          "internalType": "address",
          "name": "_bedroomNftAddress",
          "type": "address"
        },
        {
          "internalType": "address",
          "name": "_upgradeNftAddress",
          "type": "address"
        }
      ],
      "stateMutability": "nonpayable",
      "type": "constructor"
    },
    {
      "inputs": [
        {
          "internalType": "uint256",
          "name": "tokenId",
          "type": "uint256"
        }
      ],
      "name": "IdAlreadyUsed",
      "type": "error"
    },
    {
      "inputs": [
        {
          "internalType": "address",
          "name": "caller",
          "type": "address"
        }
      ],
      "name": "RestrictedAccess",
      "type": "error"
    },
    {
      "anonymous": false,
      "inputs": [
        {
          "indexed": true,
          "internalType": "uint256",
          "name": "bedroomNftId",
          "type": "uint256"
        },
        {
          "indexed": true,
          "internalType": "address",
          "name": "owner",
          "type": "address"
        }
      ],
      "name": "BedroomNftLinkedToWallet",
      "type": "event"
    },
    {
      "anonymous": false,
      "inputs": [
        {
          "indexed": true,
          "internalType": "uint256",
          "name": "bedroomNftId",
          "type": "uint256"
        },
        {
          "indexed": true,
          "internalType": "address",
          "name": "owner",
          "type": "address"
        }
      ],
      "name": "BedroomNftUnlinkedFromWallet",
      "type": "event"
    },
    {
      "anonymous": false,
      "inputs": [
        {
          "indexed": true,
          "internalType": "uint256",
          "name": "upgradeNftId",
          "type": "uint256"
        },
        {
          "indexed": true,
          "internalType": "uint256",
          "name": "bedroomNftId",
          "type": "uint256"
        },
        {
          "indexed": false,
          "internalType": "uint256",
          "name": "amount",
          "type": "uint256"
        }
      ],
      "name": "UpgradeNftLinkedToBedroomNft",
      "type": "event"
    },
    {
      "anonymous": false,
      "inputs": [
        {
          "indexed": true,
          "internalType": "address",
          "name": "owner",
          "type": "address"
        },
        {
          "indexed": true,
          "internalType": "uint256",
          "name": "upgradeNftId",
          "type": "uint256"
        },
        {
          "indexed": false,
          "internalType": "uint256",
          "name": "amount",
          "type": "uint256"
        }
      ],
      "name": "UpgradeNftLinkedToWallet",
      "type": "event"
    },
    {
      "anonymous": false,
      "inputs": [
        {
          "indexed": true,
          "internalType": "uint256",
          "name": "upgradeNftId",
          "type": "uint256"
        },
        {
          "indexed": true,
          "internalType": "uint256",
          "name": "bedroomNftId",
          "type": "uint256"
        },
        {
          "indexed": false,
          "internalType": "uint256",
          "name": "amount",
          "type": "uint256"
        }
      ],
      "name": "UpgradeNftUnlinkedFromBedroomNft",
      "type": "event"
    },
    {
      "anonymous": false,
      "inputs": [
        {
          "indexed": true,
          "internalType": "address",
          "name": "owner",
          "type": "address"
        },
        {
          "indexed": true,
          "internalType": "uint256",
          "name": "upgradeNftId",
          "type": "uint256"
        },
        {
          "indexed": false,
          "internalType": "uint256",
          "name": "amount",
          "type": "uint256"
        }
      ],
      "name": "UpgradeNftUnlinkedFromWallet",
      "type": "event"
    },
    {
      "inputs": [
        {
          "internalType": "address",
          "name": "_owner",
          "type": "address"
        },
        {
          "internalType": "uint256",
          "name": "_tokenId",
          "type": "uint256"
        }
      ],
      "name": "addBedroomNft",
      "outputs": [
        {
          "internalType": "bool",
          "name": "",
          "type": "bool"
        }
      ],
      "stateMutability": "nonpayable",
      "type": "function"
    },
    {
      "inputs": [
        {
          "internalType": "address",
          "name": "_owner",
          "type": "address"
        },
        {
          "internalType": "uint256",
          "name": "_tokenId",
          "type": "uint256"
        },
        {
          "internalType": "uint256",
          "name": "_amount",
          "type": "uint256"
        }
      ],
      "name": "addUpgradeNft",
      "outputs": [
        {
          "internalType": "bool",
          "name": "",
          "type": "bool"
        }
      ],
      "stateMutability": "nonpayable",
      "type": "function"
    },
    {
      "inputs": [],
      "name": "bedroomNftContract",
      "outputs": [
        {
          "internalType": "address",
          "name": "",
          "type": "address"
        }
      ],
      "stateMutability": "view",
      "type": "function"
    },
    {
      "inputs": [
        {
          "internalType": "address",
          "name": "_owner",
          "type": "address"
        }
      ],
      "name": "getBedroomNftsAmount",
      "outputs": [
        {
          "internalType": "uint256",
          "name": "nftsAmount",
          "type": "uint256"
        }
      ],
      "stateMutability": "view",
      "type": "function"
    },
    {
      "inputs": [
        {
          "internalType": "address",
          "name": "_owner",
          "type": "address"
        }
      ],
      "name": "getNftsID",
      "outputs": [
        {
          "internalType": "uint256[]",
          "name": "_bedroomNfts",
          "type": "uint256[]"
        },
        {
          "internalType": "uint256[]",
          "name": "_upgradeNfts",
          "type": "uint256[]"
        }
      ],
      "stateMutability": "view",
      "type": "function"
    },
    {
      "inputs": [
        {
          "internalType": "address",
          "name": "_owner",
          "type": "address"
        },
        {
          "internalType": "uint256",
          "name": "_tokenId",
          "type": "uint256"
        }
      ],
      "name": "getUpgradeNftAmounts",
      "outputs": [
        {
          "internalType": "uint256",
          "name": "amountOwned",
          "type": "uint256"
        },
        {
          "internalType": "uint256",
          "name": "amountUsed",
          "type": "uint256"
        }
      ],
      "stateMutability": "view",
      "type": "function"
    },
    {
      "inputs": [
        {
          "internalType": "uint256",
          "name": "_tokenId",
          "type": "uint256"
        }
      ],
      "name": "getUpgradeNftOwners",
      "outputs": [
        {
          "internalType": "address[]",
          "name": "owners",
          "type": "address[]"
        }
      ],
      "stateMutability": "view",
      "type": "function"
    },
    {
      "inputs": [],
      "name": "getUpgradeNftSettled",
      "outputs": [
        {
          "internalType": "uint256[]",
          "name": "nftIdsSettled",
          "type": "uint256[]"
        }
      ],
      "stateMutability": "view",
      "type": "function"
    },
    {
      "inputs": [
        {
          "internalType": "uint256",
          "name": "_bedroomNftId",
          "type": "uint256"
        }
      ],
      "name": "getUpgradeNfts",
      "outputs": [
        {
          "internalType": "uint256[]",
          "name": "upgradeNfts",
          "type": "uint256[]"
        }
      ],
      "stateMutability": "view",
      "type": "function"
    },
    {
      "inputs": [
        {
          "internalType": "address",
          "name": "_owner",
          "type": "address"
        }
      ],
      "name": "getUpgradeNftsAmount",
      "outputs": [
        {
          "internalType": "uint256",
          "name": "nftsAmount",
          "type": "uint256"
        }
      ],
      "stateMutability": "view",
      "type": "function"
    },
    {
      "inputs": [
        {
          "internalType": "uint256",
          "name": "_tokenId",
          "type": "uint256"
        },
        {
          "internalType": "address",
          "name": "_wallet",
          "type": "address"
        }
      ],
      "name": "isBedroomNftOwner",
      "outputs": [
        {
          "internalType": "bool",
          "name": "isOwner",
          "type": "bool"
        }
      ],
      "stateMutability": "view",
      "type": "function"
    },
    {
      "inputs": [
        {
          "internalType": "uint256",
          "name": "_tokenId",
          "type": "uint256"
        }
      ],
      "name": "isIdSettled",
      "outputs": [
        {
          "internalType": "bool",
          "name": "isSettled",
          "type": "bool"
        }
      ],
      "stateMutability": "view",
      "type": "function"
    },
    {
      "inputs": [
        {
          "internalType": "uint256",
          "name": "_tokenId",
          "type": "uint256"
        },
        {
          "internalType": "address",
          "name": "_wallet",
          "type": "address"
        }
      ],
      "name": "isUpgradeNftOwner",
      "outputs": [
        {
          "internalType": "bool",
          "name": "isOwner",
          "type": "bool"
        }
      ],
      "stateMutability": "view",
      "type": "function"
    },
    {
      "inputs": [
        {
          "internalType": "address",
          "name": "_owner",
          "type": "address"
        },
        {
          "internalType": "uint256",
          "name": "_bedroomNftId",
          "type": "uint256"
        },
        {
          "internalType": "uint256",
          "name": "_upgradeNftId",
          "type": "uint256"
        },
        {
          "internalType": "uint256",
          "name": "_amount",
          "type": "uint256"
        }
      ],
      "name": "linkUpgradeNft",
      "outputs": [
        {
          "internalType": "bool",
          "name": "",
          "type": "bool"
        }
      ],
      "stateMutability": "nonpayable",
      "type": "function"
    },
    {
      "inputs": [
        {
          "internalType": "address",
          "name": "_owner",
          "type": "address"
        },
        {
          "internalType": "address",
          "name": "_newOwner",
          "type": "address"
        },
        {
          "internalType": "uint256",
          "name": "_tokenId",
          "type": "uint256"
        }
      ],
      "name": "removeBedroomNft",
      "outputs": [
        {
          "internalType": "bool",
          "name": "",
          "type": "bool"
        }
      ],
      "stateMutability": "nonpayable",
      "type": "function"
    },
    {
      "inputs": [
        {
          "internalType": "address",
          "name": "_owner",
          "type": "address"
        },
        {
          "internalType": "uint256",
          "name": "_tokenId",
          "type": "uint256"
        },
        {
          "internalType": "uint256",
          "name": "_amount",
          "type": "uint256"
        }
      ],
      "name": "removeUpgradeNft",
      "outputs": [
        {
          "internalType": "bool",
          "name": "",
          "type": "bool"
        }
      ],
      "stateMutability": "nonpayable",
      "type": "function"
    },
    {
      "inputs": [
        {
          "internalType": "uint256",
          "name": "_tokenId",
          "type": "uint256"
        }
      ],
      "name": "settleUpgradeNftData",
      "outputs": [],
      "stateMutability": "nonpayable",
      "type": "function"
    },
    {
      "inputs": [
        {
          "internalType": "address",
          "name": "_owner",
          "type": "address"
        },
        {
          "internalType": "uint256",
          "name": "_bedroomNftId",
          "type": "uint256"
        },
        {
          "internalType": "uint256",
          "name": "_upgradeNftId",
          "type": "uint256"
        },
        {
          "internalType": "uint256",
          "name": "_amount",
          "type": "uint256"
        }
      ],
      "name": "unlinkUpgradeNft",
      "outputs": [
        {
          "internalType": "bool",
          "name": "",
          "type": "bool"
        }
      ],
      "stateMutability": "nonpayable",
      "type": "function"
    },
    {
      "inputs": [],
      "name": "upgradeNftContract",
      "outputs": [
        {
          "internalType": "address",
          "name": "",
          "type": "address"
        }
      ],
      "stateMutability": "view",
      "type": "function"
    },
    {
      "inputs": [],
      "name": "upgraderContract",
      "outputs": [
        {
          "internalType": "address",
          "name": "",
          "type": "address"
        }
      ],
      "stateMutability": "view",
      "type": "function"
    }
  ],
  "bytecode": "0x60e060405234801561001057600080fd5b506040516115da3803806115da83398101604081905261002f91610066565b6001600160a01b039182166080521660a0523360c052610099565b80516001600160a01b038116811461006157600080fd5b919050565b6000806040838503121561007957600080fd5b6100828361004a565b91506100906020840161004a565b90509250929050565b60805160a05160c0516114d36101076000396000818161033701528181610c120152610d290152600081816102eb0152818161042a0152818161090d0152610b190152600081816103910152818161046b0152818161066e01528181610828015261094e01526114d36000f3fe608060405234801561001057600080fd5b506004361061016c5760003560e01c80639120f6e2116100cd578063cc201dcd11610081578063d1539b2411610066578063d1539b241461038c578063e60f6e2c146103b3578063f0bf1ac3146103d457600080fd5b8063cc201dcd14610359578063cd845cdd1461036c57600080fd5b8063afd6dce7116100b2578063afd6dce7146102d3578063c4ceb24b146102e6578063c6d908f11461033257600080fd5b80639120f6e2146102ad578063a9c290c3146102c057600080fd5b80636508b1b7116101245780637886cbc2116101095780637886cbc2146102655780638819b54d1461028557806388c536271461029857600080fd5b80636508b1b71461023f5780636bd870031461025257600080fd5b8063309c22cd11610155578063309c22cd146101f657806339b1ac62146102195780635ce7eacd1461022c57600080fd5b80632630c5e11461017157806329fbc3c414610197575b600080fd5b61018461017f3660046111aa565b6103dc565b6040519081526020015b60405180910390f35b6101e16101a53660046111c5565b600090815260036020908152604080832073ffffffffffffffffffffffffffffffffffffffff9490941683529290522080546001909101549091565b6040805192835260208301919091520161018e565b6102096102043660046111ef565b610410565b604051901515815260200161018e565b6101846102273660046111aa565b6105b6565b61020961023a366004611222565b610654565b61020961024d3660046111c5565b61080e565b6102096102603660046111ef565b6108f3565b61027861027336600461125e565b610adb565b60405161018e91906112b2565b61020961029336600461125e565b610af5565b6102ab6102a636600461125e565b610b01565b005b6102096102bb3660046112c5565b610bc6565b6102096102ce3660046112f1565b610bf8565b6102096102e13660046112f1565b610d0f565b61030d7f000000000000000000000000000000000000000000000000000000000000000081565b60405173ffffffffffffffffffffffffffffffffffffffff909116815260200161018e565b61030d7f000000000000000000000000000000000000000000000000000000000000000081565b6102096103673660046112c5565b610e59565b61037f61037a36600461125e565b610e88565b60405161018e919061132a565b61030d7f000000000000000000000000000000000000000000000000000000000000000081565b6103c66103c13660046111aa565b610ea2565b60405161018e929190611384565b610278610f11565b73ffffffffffffffffffffffffffffffffffffffff8116600090815260026020526040812061040a90610f22565b92915050565b60003373ffffffffffffffffffffffffffffffffffffffff7f0000000000000000000000000000000000000000000000000000000000000000161480159061048e57503373ffffffffffffffffffffffffffffffffffffffff7f00000000000000000000000000000000000000000000000000000000000000001614155b156104cc576040517ffd0dd63f0000000000000000000000000000000000000000000000000000000081523360048201526024015b60405180910390fd5b73ffffffffffffffffffffffffffffffffffffffff841660009081526002602081905260409091206104ff910184610f2c565b5060008381526004602052604090206105189085610f38565b50600083815260036020908152604080832073ffffffffffffffffffffffffffffffffffffffff88168452909152812080548492906105589084906113e1565b9091555050604051828152839073ffffffffffffffffffffffffffffffffffffffff8616907fa982a55c48430a4bd21cf79bc3ce27560d518389912a86f5e9afc4d61c78e91a906020015b60405180910390a35060015b9392505050565b73ffffffffffffffffffffffffffffffffffffffff81166000908152600260208190526040822001815b6105e982610f22565b81101561064d5760006105fc8383610f5a565b600081815260036020908152604080832073ffffffffffffffffffffffffffffffffffffffff8a16845290915290205490915061063990856113e1565b93505080610646906113f4565b90506105e0565b5050919050565b60003373ffffffffffffffffffffffffffffffffffffffff7f000000000000000000000000000000000000000000000000000000000000000016146106c7576040517ffd0dd63f0000000000000000000000000000000000000000000000000000000081523360048201526024016104c3565b60005b60008381526005602052604090206106e190610f22565b8110156107845760008381526005602052604081206107009083610f5a565b600081815260036020908152604080832073ffffffffffffffffffffffffffffffffffffffff8b16845290915281205491925061073e8884846108f3565b9050600061074d888585610410565b905081158061075a575080155b1561076d576000955050505050506105af565b50505050808061077c906113f4565b9150506106ca565b5073ffffffffffffffffffffffffffffffffffffffff841660009081526002602052604090206107b49083610f66565b156108045760405173ffffffffffffffffffffffffffffffffffffffff85169083907fd27a243fb83f7fe93074f6c6be292d5ee838bdf958ee1e2b7d6f855108c6dad790600090a35060016105af565b5060009392505050565b60003373ffffffffffffffffffffffffffffffffffffffff7f00000000000000000000000000000000000000000000000000000000000000001614610881576040517ffd0dd63f0000000000000000000000000000000000000000000000000000000081523360048201526024016104c3565b60405173ffffffffffffffffffffffffffffffffffffffff84169083907f25ecfb9f7091dd39c2805cabdb0676d77fb099bc4e0253b8a4a57bb3b7cd442390600090a373ffffffffffffffffffffffffffffffffffffffff831660009081526002602052604090206105af9083610f2c565b60003373ffffffffffffffffffffffffffffffffffffffff7f0000000000000000000000000000000000000000000000000000000000000000161480159061097157503373ffffffffffffffffffffffffffffffffffffffff7f00000000000000000000000000000000000000000000000000000000000000001614155b156109aa576040517ffd0dd63f0000000000000000000000000000000000000000000000000000000081523360048201526024016104c3565b600083815260036020908152604080832073ffffffffffffffffffffffffffffffffffffffff88168452909152812080548492906109e990849061142c565b9091555050600083815260036020908152604080832073ffffffffffffffffffffffffffffffffffffffff881684529091528120549003610a925773ffffffffffffffffffffffffffffffffffffffff841660009081526002602081905260408220610a56910185610f66565b600085815260046020526040812091925090610a729087610f72565b9050811580610a7f575080155b15610a8f576000925050506105af565b50505b828473ffffffffffffffffffffffffffffffffffffffff167f66c3e671c6fc6f8a6dae2b1d2b6e6ea14bc681bd9a356b81fd584fb099d9bed8846040516105a391815260200190565b600081815260056020526040902060609061040a90610f94565b600061040a8183610fa1565b3373ffffffffffffffffffffffffffffffffffffffff7f00000000000000000000000000000000000000000000000000000000000000001614610b72576040517ffd0dd63f0000000000000000000000000000000000000000000000000000000081523360048201526024016104c3565b610b7d600082610fa1565b15610bb7576040517f285373ed000000000000000000000000000000000000000000000000000000008152600481018290526024016104c3565b610bc2600082610f2c565b5050565b73ffffffffffffffffffffffffffffffffffffffff8116600090815260026020819052604082206105af910184610fa1565b60003373ffffffffffffffffffffffffffffffffffffffff7f00000000000000000000000000000000000000000000000000000000000000001614610c6b576040517ffd0dd63f0000000000000000000000000000000000000000000000000000000081523360048201526024016104c3565b6000848152600560205260409020610c839084610f2c565b50600083815260036020908152604080832073ffffffffffffffffffffffffffffffffffffffff8916845290915281206001018054849290610cc69084906113e1565b9091555050604051828152849084907f8676c6cf9b231256bd1636849e78909bdd6bda888998709f3accdba803bf7065906020015b60405180910390a35060015b949350505050565b60003373ffffffffffffffffffffffffffffffffffffffff7f00000000000000000000000000000000000000000000000000000000000000001614610d82576040517ffd0dd63f0000000000000000000000000000000000000000000000000000000081523360048201526024016104c3565b600083815260036020908152604080832073ffffffffffffffffffffffffffffffffffffffff8916845290915281206001018054849290610dc490849061142c565b9091555050600083815260036020908152604080832073ffffffffffffffffffffffffffffffffffffffff891684529091528120600101549003610e26576000848152600560205260409020610e1a9084610f66565b610e2657506000610d07565b83837f92d8a5cbb3dd722e25d2da9798e5981f2451abada9ef8433ec7f95a445bb0d6284604051610cfb91815260200190565b73ffffffffffffffffffffffffffffffffffffffff811660009081526002602052604081206105af9084610fa1565b600081815260046020526040902060609061040a90610f94565b73ffffffffffffffffffffffffffffffffffffffff811660009081526002602052604090206060908190610ed590610f94565b73ffffffffffffffffffffffffffffffffffffffff84166000908152600260208190526040909120919350610f0a9101610f94565b9050915091565b6060610f1d6000610f94565b905090565b600061040a825490565b60006105af8383610fb9565b60006105af8373ffffffffffffffffffffffffffffffffffffffff8416610fb9565b60006105af8383611008565b60006105af8383611032565b60006105af8373ffffffffffffffffffffffffffffffffffffffff8416611032565b606060006105af83611125565b600081815260018301602052604081205415156105af565b60008181526001830160205260408120546110005750815460018181018455600084815260208082209093018490558454848252828601909352604090209190915561040a565b50600061040a565b600082600001828154811061101f5761101f61143f565b9060005260206000200154905092915050565b6000818152600183016020526040812054801561111b57600061105660018361142c565b855490915060009061106a9060019061142c565b90508181146110cf57600086600001828154811061108a5761108a61143f565b90600052602060002001549050808760000184815481106110ad576110ad61143f565b6000918252602080832090910192909255918252600188019052604090208390555b85548690806110e0576110e061146e565b60019003818190600052602060002001600090559055856001016000868152602001908152602001600020600090556001935050505061040a565b600091505061040a565b60608160000180548060200260200160405190810160405280929190818152602001828054801561117557602002820191906000526020600020905b815481526020019060010190808311611161575b50505050509050919050565b803573ffffffffffffffffffffffffffffffffffffffff811681146111a557600080fd5b919050565b6000602082840312156111bc57600080fd5b6105af82611181565b600080604083850312156111d857600080fd5b6111e183611181565b946020939093013593505050565b60008060006060848603121561120457600080fd5b61120d84611181565b95602085013595506040909401359392505050565b60008060006060848603121561123757600080fd5b61124084611181565b925061124e60208501611181565b9150604084013590509250925092565b60006020828403121561127057600080fd5b5035919050565b600081518084526020808501945080840160005b838110156112a75781518752958201959082019060010161128b565b509495945050505050565b6020815260006105af6020830184611277565b600080604083850312156112d857600080fd5b823591506112e860208401611181565b90509250929050565b6000806000806080858703121561130757600080fd5b61131085611181565b966020860135965060408601359560600135945092505050565b6020808252825182820181905260009190848201906040850190845b8181101561137857835173ffffffffffffffffffffffffffffffffffffffff1683529284019291840191600101611346565b50909695505050505050565b6040815260006113976040830185611277565b82810360208401526113a98185611277565b95945050505050565b7f4e487b7100000000000000000000000000000000000000000000000000000000600052601160045260246000fd5b8082018082111561040a5761040a6113b2565b60007fffffffffffffffffffffffffffffffffffffffffffffffffffffffffffffffff8203611425576114256113b2565b5060010190565b8181038181111561040a5761040a6113b2565b7f4e487b7100000000000000000000000000000000000000000000000000000000600052603260045260246000fd5b7f4e487b7100000000000000000000000000000000000000000000000000000000600052603160045260246000fdfea2646970667358221220d5391eada97bddc0055c20e56ab368a29b6b563758bf4d414e92f24f6477e16464736f6c63430008110033",
  "linkReferences": {},
  "deployedLinkReferences": {}
}