{
  "_format": "hh-sol-artifact-1",
  "contractName": "Upgrader",
  "sourceName": "contracts/Utils/Upgrader.sol",
  "abi": [
    {
      "inputs": [
        {
          "internalType": "address",
          "name": "_bedroomNftContractAddr",
          "type": "address"
        },
        {
          "internalType": "address",
          "name": "_dexAddress",
          "type": "address"
        }
      ],
      "stateMutability": "nonpayable",
      "type": "constructor"
    },
    {
      "inputs": [
        {
          "internalType": "uint256",
          "name": "tokenId",
          "type": "uint256"
        }
      ],
      "name": "IsAlreadyLinked",
      "type": "error"
    },
    {
      "inputs": [
        {
          "internalType": "uint256",
          "name": "tokenId",
          "type": "uint256"
        }
      ],
      "name": "IsNotLinked",
      "type": "error"
    },
    {
      "inputs": [
        {
          "internalType": "uint16",
          "name": "levelMin",
          "type": "uint16"
        },
        {
          "internalType": "uint256",
          "name": "bedroomNftLevel",
          "type": "uint256"
        }
      ],
      "name": "LevelTooLow",
      "type": "error"
    },
    {
      "inputs": [
        {
          "internalType": "uint256",
          "name": "tokenId",
          "type": "uint256"
        },
        {
          "internalType": "address",
          "name": "caller",
          "type": "address"
        }
      ],
      "name": "NftNotOwned",
      "type": "error"
    },
    {
      "inputs": [
        {
          "internalType": "address",
          "name": "caller",
          "type": "address"
        }
      ],
      "name": "RestrictedAccess",
      "type": "error"
    },
    {
      "inputs": [],
      "name": "StateNotUpdated",
      "type": "error"
    },
    {
      "inputs": [
        {
          "internalType": "uint256",
          "name": "upgradeNftId",
          "type": "uint256"
        },
        {
          "internalType": "uint256",
          "name": "amount",
          "type": "uint256"
        }
      ],
      "name": "WrongAmount",
      "type": "error"
    },
    {
      "anonymous": false,
      "inputs": [
        {
          "indexed": true,
          "internalType": "uint256",
          "name": "bedroomNftId",
          "type": "uint256"
        },
        {
          "indexed": true,
          "internalType": "uint256",
          "name": "upgradeNftId",
          "type": "uint256"
        },
        {
          "indexed": false,
          "internalType": "address",
          "name": "owner",
          "type": "address"
        }
      ],
      "name": "UpgradeNftLinked",
      "type": "event"
    },
    {
      "anonymous": false,
      "inputs": [
        {
          "indexed": true,
          "internalType": "uint256",
          "name": "bedroomNftId",
          "type": "uint256"
        },
        {
          "indexed": true,
          "internalType": "uint256",
          "name": "upgradeNftId",
          "type": "uint256"
        },
        {
          "indexed": false,
          "internalType": "address",
          "name": "owner",
          "type": "address"
        }
      ],
      "name": "UpgradeNftUnlinked",
      "type": "event"
    },
    {
      "inputs": [],
      "name": "bedroomNftContract",
      "outputs": [
        {
          "internalType": "contract IBedroomNft",
          "name": "",
          "type": "address"
        }
      ],
      "stateMutability": "view",
      "type": "function"
    },
    {
      "inputs": [],
      "name": "dexAddress",
      "outputs": [
        {
          "internalType": "address",
          "name": "",
          "type": "address"
        }
      ],
      "stateMutability": "view",
      "type": "function"
    },
    {
      "inputs": [
        {
          "internalType": "address",
          "name": "_owner",
          "type": "address"
        },
        {
          "internalType": "uint256",
          "name": "_bedroomNftId",
          "type": "uint256"
        },
        {
          "internalType": "uint256",
          "name": "_upgradeNftId",
          "type": "uint256"
        },
        {
          "internalType": "uint256",
          "name": "_amount",
          "type": "uint256"
        },
        {
          "internalType": "string",
          "name": "_designURI",
          "type": "string"
        }
      ],
      "name": "linkUpgradeNft",
      "outputs": [],
      "stateMutability": "nonpayable",
      "type": "function"
    },
    {
      "inputs": [],
      "name": "trackerInstance",
      "outputs": [
        {
          "internalType": "contract Tracker",
          "name": "",
          "type": "address"
        }
      ],
      "stateMutability": "view",
      "type": "function"
    },
    {
      "inputs": [
        {
          "internalType": "address",
          "name": "_owner",
          "type": "address"
        },
        {
          "internalType": "uint256",
          "name": "_bedroomNftId",
          "type": "uint256"
        },
        {
          "internalType": "uint256",
          "name": "_upgradeNftId",
          "type": "uint256"
        },
        {
          "internalType": "uint256",
          "name": "_amount",
          "type": "uint256"
        },
        {
          "internalType": "string",
          "name": "_designURI",
          "type": "string"
        }
      ],
      "name": "unlinkUpgradeNft",
      "outputs": [],
      "stateMutability": "nonpayable",
      "type": "function"
    },
    {
      "inputs": [],
      "name": "upgradeNftContract",
      "outputs": [
        {
          "internalType": "contract IUpgradeNft",
          "name": "",
          "type": "address"
        }
      ],
      "stateMutability": "view",
      "type": "function"
    }
  ],
  "bytecode": "0x6101006040523480156200001257600080fd5b5060405162002dd138038062002dd18339810160408190526200003591620000d2565b3360a08190526001600160a01b0383166080526040518391906200005990620000a7565b6001600160a01b03928316815291166020820152604001604051809103906000f0801580156200008d573d6000803e3d6000fd5b506001600160a01b0390811660c0521660e052506200010a565b6115da80620017f783390190565b80516001600160a01b0381168114620000cd57600080fd5b919050565b60008060408385031215620000e657600080fd5b620000f183620000b5565b91506200010160208401620000b5565b90509250929050565b60805160a05160c05160e051611653620001a46000396000818160910152818161017c01526109c701526000818160e1015281816101bd0152818161026a015281816103b3015281816108b601528181610be501526110bc01526000818161011b015281816105910152610cd1015260008181610142015281816104df015281816107ef01528181610a520152610ff501526116536000f3fe608060405234801561001057600080fd5b50600436106100725760003560e01c806384c8c3741161005057806384c8c37414610103578063c4ceb24b14610116578063d1539b241461013d57600080fd5b8063722c4d2f14610077578063745fba841461008c578063753c3755146100dc575b600080fd5b61008a61008536600461124c565b610164565b005b6100b37f000000000000000000000000000000000000000000000000000000000000000081565b60405173ffffffffffffffffffffffffffffffffffffffff909116815260200160405180910390f35b6100b37f000000000000000000000000000000000000000000000000000000000000000081565b61008a61011136600461124c565b6109af565b6100b37f000000000000000000000000000000000000000000000000000000000000000081565b6100b37f000000000000000000000000000000000000000000000000000000000000000081565b3373ffffffffffffffffffffffffffffffffffffffff7f000000000000000000000000000000000000000000000000000000000000000016148015906101e057503373ffffffffffffffffffffffffffffffffffffffff7f00000000000000000000000000000000000000000000000000000000000000001614155b1561021e576040517ffd0dd63f0000000000000000000000000000000000000000000000000000000081523360048201526024015b60405180910390fd5b6040517f9120f6e20000000000000000000000000000000000000000000000000000000081526004810184905273ffffffffffffffffffffffffffffffffffffffff86811660248301527f00000000000000000000000000000000000000000000000000000000000000001690639120f6e290604401602060405180830381865afa1580156102b1573d6000803e3d6000fd5b505050506040513d601f19601f820116820180604052508101906102d5919061132f565b61032a576040517f6a528d360000000000000000000000000000000000000000000000000000000081526004810184905273ffffffffffffffffffffffffffffffffffffffff86166024820152604401610215565b6040805161010081018252600080825260208201819052818301819052606082018190526080820181905260a0820181905260c0820181905260e082015290517f29fbc3c400000000000000000000000000000000000000000000000000000000815273ffffffffffffffffffffffffffffffffffffffff8781166004830152602482018690527f000000000000000000000000000000000000000000000000000000000000000016906329fbc3c4906044016040805180830381865afa1580156103f9573d6000803e3d6000fd5b505050506040513d601f19601f8201168201806040525081019061041d9190611358565b60e083015260c0820181905283111561046c576040517f312b00330000000000000000000000000000000000000000000000000000000081526004810185905260248101849052604401610215565b8060e001518311156104ad576040517f22576d7800000000000000000000000000000000000000000000000000000000815260048101859052602401610215565b6040517f866cc99e000000000000000000000000000000000000000000000000000000008152600481018690526000907f000000000000000000000000000000000000000000000000000000000000000073ffffffffffffffffffffffffffffffffffffffff169063866cc99e90602401608060405180830381865afa15801561053b573d6000803e3d6000fd5b505050506040513d601f19601f8201168201806040525081019061055f919061137c565b6040517f0178fe3f000000000000000000000000000000000000000000000000000000008152600481018790529091507f000000000000000000000000000000000000000000000000000000000000000073ffffffffffffffffffffffffffffffffffffffff1690630178fe3f9060240160e060405180830381865afa1580156105ed573d6000803e3d6000fd5b505050506040513d601f19601f820116820180604052508101906106119190611425565b60ff90811660408a0181905291811660208a0152909116875261ffff91821660a0880152921660608601525060041115905061085c57606082015161ffff1615610672578160600151816040015161066991906114e4565b61ffff16610678565b80604001515b604082015260a082015161ffff16156106a8578160a00151816060015161069f91906114e4565b61ffff166106ae565b80606001515b6060820152604082015160ff166002036107a357604080516080810182526020808401805161ffff9081168452815160101c8116838501528151831c8116948401949094525160301c909216606082015290830151835160ff918216918391166004811061071e5761071e611506565b6020020181815161072f91906114e4565b61ffff16905250606081015160301b67ffff000000000000166020826002602002015161ffff16901b6010836001602002015161ffff16901b836000602002015161ffff1661077e9190611535565b6107889190611535565b6107929190611535565b67ffffffffffffffff166020830152505b6060810151604080830151602084015191517f04e8d61b00000000000000000000000000000000000000000000000000000000815273ffffffffffffffffffffffffffffffffffffffff7f000000000000000000000000000000000000000000000000000000000000000016936304e8d61b93610829938c939091908a90600401611556565b600060405180830381600087803b15801561084357600080fd5b505af1158015610857573d6000803e3d6000fd5b505050505b6040517fafd6dce700000000000000000000000000000000000000000000000000000000815273ffffffffffffffffffffffffffffffffffffffff88811660048301526024820188905260448201879052606482018690527f0000000000000000000000000000000000000000000000000000000000000000169063afd6dce7906084016020604051808303816000875af11580156108ff573d6000803e3d6000fd5b505050506040513d601f19601f82011682018060405250810190610923919061132f565b610959576040517f98c03fbf00000000000000000000000000000000000000000000000000000000815260040160405180910390fd5b60405173ffffffffffffffffffffffffffffffffffffffff88168152859087907ebffb44d1013125e9210b5aebe684893dea5b3fde84ccc2cb40c332165c5bbf906020015b60405180910390a350505050505050565b3373ffffffffffffffffffffffffffffffffffffffff7f00000000000000000000000000000000000000000000000000000000000000001614610a20576040517ffd0dd63f000000000000000000000000000000000000000000000000000000008152336004820152602401610215565b6040517f866cc99e000000000000000000000000000000000000000000000000000000008152600481018590526000907f000000000000000000000000000000000000000000000000000000000000000073ffffffffffffffffffffffffffffffffffffffff169063866cc99e90602401608060405180830381865afa158015610aae573d6000803e3d6000fd5b505050506040513d601f19601f82011682018060405250810190610ad2919061137c565b90508573ffffffffffffffffffffffffffffffffffffffff16816000015173ffffffffffffffffffffffffffffffffffffffff1614610b5c576040517f6a528d360000000000000000000000000000000000000000000000000000000081526004810185905273ffffffffffffffffffffffffffffffffffffffff87166024820152604401610215565b6040805161010081018252600080825260208201819052818301819052606082018190526080820181905260a0820181905260c0820181905260e082015290517f29fbc3c400000000000000000000000000000000000000000000000000000000815273ffffffffffffffffffffffffffffffffffffffff8881166004830152602482018790527f000000000000000000000000000000000000000000000000000000000000000016906329fbc3c4906044016040805180830381865afa158015610c2b573d6000803e3d6000fd5b505050506040513d601f19601f82011682018060405250810190610c4f9190611358565b60e0830181905260c08301829052610c66916115e9565b841115610ca2576040517f18b9fd9b00000000000000000000000000000000000000000000000000000000815260048101869052602401610215565b6040517f0178fe3f000000000000000000000000000000000000000000000000000000008152600481018690527f000000000000000000000000000000000000000000000000000000000000000073ffffffffffffffffffffffffffffffffffffffff1690630178fe3f9060240160e060405180830381865afa158015610d2d573d6000803e3d6000fd5b505050506040513d601f19601f82011682018060405250810190610d519190611425565b60ff9081166040808a01919091529181166020890152909116865261ffff91821660a0870152918116608086018190529216606085015284015110159050610ddb57608081015160408084015190517fdc4bb53400000000000000000000000000000000000000000000000000000000815261ffff90921660048301526024820152604401610215565b6004816040015160ff16101561106257606081015161ffff1615610e165781604001518160600151610e0d9190611602565b61ffff16610e1c565b81604001515b604083015260a081015161ffff1615610e4c5781606001518160a00151610e439190611602565b61ffff16610e52565b81606001515b6060830152604081015160ff16600203610fa957604080516080810182526020808501805161ffff9081168452815160101c8116838501528151831c8116948401949094525160301c909216606082015290820151825160649160ff9081169184911660048110610ec557610ec5611506565b6020020151610ed49190611602565b61ffff1611610f1257816020015160ff1681836000015160ff1660048110610efe57610efe611506565b6020020151610f0d9190611602565b610f15565b60645b8251829060ff1660048110610f2c57610f2c611506565b61ffff9290921660209283029190910152606082015160301b67ffff0000000000001690826002602002015161ffff16901b6010836001602002015161ffff16901b836000602002015161ffff16610f849190611535565b610f8e9190611535565b610f989190611535565b67ffffffffffffffff166020840152505b6060820151604080840151602085015191517f04e8d61b00000000000000000000000000000000000000000000000000000000815273ffffffffffffffffffffffffffffffffffffffff7f000000000000000000000000000000000000000000000000000000000000000016936304e8d61b9361102f938c939091908a90600401611556565b600060405180830381600087803b15801561104957600080fd5b505af115801561105d573d6000803e3d6000fd5b505050505b6040517fa9c290c300000000000000000000000000000000000000000000000000000000815273ffffffffffffffffffffffffffffffffffffffff88811660048301526024820188905260448201879052606482018690527f0000000000000000000000000000000000000000000000000000000000000000169063a9c290c3906084016020604051808303816000875af1158015611105573d6000803e3d6000fd5b505050506040513d601f19601f82011682018060405250810190611129919061132f565b61115f576040517f98c03fbf00000000000000000000000000000000000000000000000000000000815260040160405180910390fd5b60405173ffffffffffffffffffffffffffffffffffffffff88168152859087907fe680b1d06467a2fb56df38631fbd1115d14fac27a8d03871c2c955576d295fbe9060200161099e565b73ffffffffffffffffffffffffffffffffffffffff811681146111cb57600080fd5b50565b7f4e487b7100000000000000000000000000000000000000000000000000000000600052604160045260246000fd5b604051601f82017fffffffffffffffffffffffffffffffffffffffffffffffffffffffffffffffe016810167ffffffffffffffff81118282101715611244576112446111ce565b604052919050565b600080600080600060a0868803121561126457600080fd5b853561126f816111a9565b945060208681013594506040870135935060608701359250608087013567ffffffffffffffff808211156112a257600080fd5b818901915089601f8301126112b657600080fd5b8135818111156112c8576112c86111ce565b6112f8847fffffffffffffffffffffffffffffffffffffffffffffffffffffffffffffffe0601f840116016111fd565b91508082528a8482850101111561130e57600080fd5b80848401858401376000848284010152508093505050509295509295909350565b60006020828403121561134157600080fd5b8151801515811461135157600080fd5b9392505050565b6000806040838503121561136b57600080fd5b505080516020909101519092909150565b60006080828403121561138e57600080fd5b6040516080810167ffffffffffffffff82821081831117156113b2576113b26111ce565b81604052845191506113c3826111a9565b90825260208401519080821682146113da57600080fd5b506020820152604083810151908201526060928301519281019290925250919050565b805161ffff8116811461140f57600080fd5b919050565b805160ff8116811461140f57600080fd5b600080600080600080600060e0888a03121561144057600080fd5b875162ffffff8116811461145357600080fd5b9650611461602089016113fd565b955061146f604089016113fd565b945061147d606089016113fd565b935061148b60808901611414565b925061149960a08901611414565b91506114a760c08901611414565b905092959891949750929550565b7f4e487b7100000000000000000000000000000000000000000000000000000000600052601160045260246000fd5b61ffff8281168282160390808211156114ff576114ff6114b5565b5092915050565b7f4e487b7100000000000000000000000000000000000000000000000000000000600052603260045260246000fd5b67ffffffffffffffff8181168382160190808211156114ff576114ff6114b5565b85815260006020868184015285604084015267ffffffffffffffff8516606084015260a0608084015283518060a085015260005b818110156115a65785810183015185820160c00152820161158a565b50600060c0828601015260c07fffffffffffffffffffffffffffffffffffffffffffffffffffffffffffffffe0601f830116850101925050509695505050505050565b818103818111156115fc576115fc6114b5565b92915050565b61ffff8181168382160190808211156114ff576114ff6114b556fea2646970667358221220a35fbab3b60c26945fed6271cd6224c50afe57199c5eebc78430a0655a667c9164736f6c6343000811003360e060405234801561001057600080fd5b506040516115da3803806115da83398101604081905261002f91610066565b6001600160a01b039182166080521660a0523360c052610099565b80516001600160a01b038116811461006157600080fd5b919050565b6000806040838503121561007957600080fd5b6100828361004a565b91506100906020840161004a565b90509250929050565b60805160a05160c0516114d36101076000396000818161033701528181610c120152610d290152600081816102eb0152818161042a0152818161090d0152610b190152600081816103910152818161046b0152818161066e01528181610828015261094e01526114d36000f3fe608060405234801561001057600080fd5b506004361061016c5760003560e01c80639120f6e2116100cd578063cc201dcd11610081578063d1539b2411610066578063d1539b241461038c578063e60f6e2c146103b3578063f0bf1ac3146103d457600080fd5b8063cc201dcd14610359578063cd845cdd1461036c57600080fd5b8063afd6dce7116100b2578063afd6dce7146102d3578063c4ceb24b146102e6578063c6d908f11461033257600080fd5b80639120f6e2146102ad578063a9c290c3146102c057600080fd5b80636508b1b7116101245780637886cbc2116101095780637886cbc2146102655780638819b54d1461028557806388c536271461029857600080fd5b80636508b1b71461023f5780636bd870031461025257600080fd5b8063309c22cd11610155578063309c22cd146101f657806339b1ac62146102195780635ce7eacd1461022c57600080fd5b80632630c5e11461017157806329fbc3c414610197575b600080fd5b61018461017f3660046111aa565b6103dc565b6040519081526020015b60405180910390f35b6101e16101a53660046111c5565b600090815260036020908152604080832073ffffffffffffffffffffffffffffffffffffffff9490941683529290522080546001909101549091565b6040805192835260208301919091520161018e565b6102096102043660046111ef565b610410565b604051901515815260200161018e565b6101846102273660046111aa565b6105b6565b61020961023a366004611222565b610654565b61020961024d3660046111c5565b61080e565b6102096102603660046111ef565b6108f3565b61027861027336600461125e565b610adb565b60405161018e91906112b2565b61020961029336600461125e565b610af5565b6102ab6102a636600461125e565b610b01565b005b6102096102bb3660046112c5565b610bc6565b6102096102ce3660046112f1565b610bf8565b6102096102e13660046112f1565b610d0f565b61030d7f000000000000000000000000000000000000000000000000000000000000000081565b60405173ffffffffffffffffffffffffffffffffffffffff909116815260200161018e565b61030d7f000000000000000000000000000000000000000000000000000000000000000081565b6102096103673660046112c5565b610e59565b61037f61037a36600461125e565b610e88565b60405161018e919061132a565b61030d7f000000000000000000000000000000000000000000000000000000000000000081565b6103c66103c13660046111aa565b610ea2565b60405161018e929190611384565b610278610f11565b73ffffffffffffffffffffffffffffffffffffffff8116600090815260026020526040812061040a90610f22565b92915050565b60003373ffffffffffffffffffffffffffffffffffffffff7f0000000000000000000000000000000000000000000000000000000000000000161480159061048e57503373ffffffffffffffffffffffffffffffffffffffff7f00000000000000000000000000000000000000000000000000000000000000001614155b156104cc576040517ffd0dd63f0000000000000000000000000000000000000000000000000000000081523360048201526024015b60405180910390fd5b73ffffffffffffffffffffffffffffffffffffffff841660009081526002602081905260409091206104ff910184610f2c565b5060008381526004602052604090206105189085610f38565b50600083815260036020908152604080832073ffffffffffffffffffffffffffffffffffffffff88168452909152812080548492906105589084906113e1565b9091555050604051828152839073ffffffffffffffffffffffffffffffffffffffff8616907fa982a55c48430a4bd21cf79bc3ce27560d518389912a86f5e9afc4d61c78e91a906020015b60405180910390a35060015b9392505050565b73ffffffffffffffffffffffffffffffffffffffff81166000908152600260208190526040822001815b6105e982610f22565b81101561064d5760006105fc8383610f5a565b600081815260036020908152604080832073ffffffffffffffffffffffffffffffffffffffff8a16845290915290205490915061063990856113e1565b93505080610646906113f4565b90506105e0565b5050919050565b60003373ffffffffffffffffffffffffffffffffffffffff7f000000000000000000000000000000000000000000000000000000000000000016146106c7576040517ffd0dd63f0000000000000000000000000000000000000000000000000000000081523360048201526024016104c3565b60005b60008381526005602052604090206106e190610f22565b8110156107845760008381526005602052604081206107009083610f5a565b600081815260036020908152604080832073ffffffffffffffffffffffffffffffffffffffff8b16845290915281205491925061073e8884846108f3565b9050600061074d888585610410565b905081158061075a575080155b1561076d576000955050505050506105af565b50505050808061077c906113f4565b9150506106ca565b5073ffffffffffffffffffffffffffffffffffffffff841660009081526002602052604090206107b49083610f66565b156108045760405173ffffffffffffffffffffffffffffffffffffffff85169083907fd27a243fb83f7fe93074f6c6be292d5ee838bdf958ee1e2b7d6f855108c6dad790600090a35060016105af565b5060009392505050565b60003373ffffffffffffffffffffffffffffffffffffffff7f00000000000000000000000000000000000000000000000000000000000000001614610881576040517ffd0dd63f0000000000000000000000000000000000000000000000000000000081523360048201526024016104c3565b60405173ffffffffffffffffffffffffffffffffffffffff84169083907f25ecfb9f7091dd39c2805cabdb0676d77fb099bc4e0253b8a4a57bb3b7cd442390600090a373ffffffffffffffffffffffffffffffffffffffff831660009081526002602052604090206105af9083610f2c565b60003373ffffffffffffffffffffffffffffffffffffffff7f0000000000000000000000000000000000000000000000000000000000000000161480159061097157503373ffffffffffffffffffffffffffffffffffffffff7f00000000000000000000000000000000000000000000000000000000000000001614155b156109aa576040517ffd0dd63f0000000000000000000000000000000000000000000000000000000081523360048201526024016104c3565b600083815260036020908152604080832073ffffffffffffffffffffffffffffffffffffffff88168452909152812080548492906109e990849061142c565b9091555050600083815260036020908152604080832073ffffffffffffffffffffffffffffffffffffffff881684529091528120549003610a925773ffffffffffffffffffffffffffffffffffffffff841660009081526002602081905260408220610a56910185610f66565b600085815260046020526040812091925090610a729087610f72565b9050811580610a7f575080155b15610a8f576000925050506105af565b50505b828473ffffffffffffffffffffffffffffffffffffffff167f66c3e671c6fc6f8a6dae2b1d2b6e6ea14bc681bd9a356b81fd584fb099d9bed8846040516105a391815260200190565b600081815260056020526040902060609061040a90610f94565b600061040a8183610fa1565b3373ffffffffffffffffffffffffffffffffffffffff7f00000000000000000000000000000000000000000000000000000000000000001614610b72576040517ffd0dd63f0000000000000000000000000000000000000000000000000000000081523360048201526024016104c3565b610b7d600082610fa1565b15610bb7576040517f285373ed000000000000000000000000000000000000000000000000000000008152600481018290526024016104c3565b610bc2600082610f2c565b5050565b73ffffffffffffffffffffffffffffffffffffffff8116600090815260026020819052604082206105af910184610fa1565b60003373ffffffffffffffffffffffffffffffffffffffff7f00000000000000000000000000000000000000000000000000000000000000001614610c6b576040517ffd0dd63f0000000000000000000000000000000000000000000000000000000081523360048201526024016104c3565b6000848152600560205260409020610c839084610f2c565b50600083815260036020908152604080832073ffffffffffffffffffffffffffffffffffffffff8916845290915281206001018054849290610cc69084906113e1565b9091555050604051828152849084907f8676c6cf9b231256bd1636849e78909bdd6bda888998709f3accdba803bf7065906020015b60405180910390a35060015b949350505050565b60003373ffffffffffffffffffffffffffffffffffffffff7f00000000000000000000000000000000000000000000000000000000000000001614610d82576040517ffd0dd63f0000000000000000000000000000000000000000000000000000000081523360048201526024016104c3565b600083815260036020908152604080832073ffffffffffffffffffffffffffffffffffffffff8916845290915281206001018054849290610dc490849061142c565b9091555050600083815260036020908152604080832073ffffffffffffffffffffffffffffffffffffffff891684529091528120600101549003610e26576000848152600560205260409020610e1a9084610f66565b610e2657506000610d07565b83837f92d8a5cbb3dd722e25d2da9798e5981f2451abada9ef8433ec7f95a445bb0d6284604051610cfb91815260200190565b73ffffffffffffffffffffffffffffffffffffffff811660009081526002602052604081206105af9084610fa1565b600081815260046020526040902060609061040a90610f94565b73ffffffffffffffffffffffffffffffffffffffff811660009081526002602052604090206060908190610ed590610f94565b73ffffffffffffffffffffffffffffffffffffffff84166000908152600260208190526040909120919350610f0a9101610f94565b9050915091565b6060610f1d6000610f94565b905090565b600061040a825490565b60006105af8383610fb9565b60006105af8373ffffffffffffffffffffffffffffffffffffffff8416610fb9565b60006105af8383611008565b60006105af8383611032565b60006105af8373ffffffffffffffffffffffffffffffffffffffff8416611032565b606060006105af83611125565b600081815260018301602052604081205415156105af565b60008181526001830160205260408120546110005750815460018181018455600084815260208082209093018490558454848252828601909352604090209190915561040a565b50600061040a565b600082600001828154811061101f5761101f61143f565b9060005260206000200154905092915050565b6000818152600183016020526040812054801561111b57600061105660018361142c565b855490915060009061106a9060019061142c565b90508181146110cf57600086600001828154811061108a5761108a61143f565b90600052602060002001549050808760000184815481106110ad576110ad61143f565b6000918252602080832090910192909255918252600188019052604090208390555b85548690806110e0576110e061146e565b60019003818190600052602060002001600090559055856001016000868152602001908152602001600020600090556001935050505061040a565b600091505061040a565b60608160000180548060200260200160405190810160405280929190818152602001828054801561117557602002820191906000526020600020905b815481526020019060010190808311611161575b50505050509050919050565b803573ffffffffffffffffffffffffffffffffffffffff811681146111a557600080fd5b919050565b6000602082840312156111bc57600080fd5b6105af82611181565b600080604083850312156111d857600080fd5b6111e183611181565b946020939093013593505050565b60008060006060848603121561120457600080fd5b61120d84611181565b95602085013595506040909401359392505050565b60008060006060848603121561123757600080fd5b61124084611181565b925061124e60208501611181565b9150604084013590509250925092565b60006020828403121561127057600080fd5b5035919050565b600081518084526020808501945080840160005b838110156112a75781518752958201959082019060010161128b565b509495945050505050565b6020815260006105af6020830184611277565b600080604083850312156112d857600080fd5b823591506112e860208401611181565b90509250929050565b6000806000806080858703121561130757600080fd5b61131085611181565b966020860135965060408601359560600135945092505050565b6020808252825182820181905260009190848201906040850190845b8181101561137857835173ffffffffffffffffffffffffffffffffffffffff1683529284019291840191600101611346565b50909695505050505050565b6040815260006113976040830185611277565b82810360208401526113a98185611277565b95945050505050565b7f4e487b7100000000000000000000000000000000000000000000000000000000600052601160045260246000fd5b8082018082111561040a5761040a6113b2565b60007fffffffffffffffffffffffffffffffffffffffffffffffffffffffffffffffff8203611425576114256113b2565b5060010190565b8181038181111561040a5761040a6113b2565b7f4e487b7100000000000000000000000000000000000000000000000000000000600052603260045260246000fd5b7f4e487b7100000000000000000000000000000000000000000000000000000000600052603160045260246000fdfea2646970667358221220d5391eada97bddc0055c20e56ab368a29b6b563758bf4d414e92f24f6477e16464736f6c63430008110033",
  "linkReferences": {},
  "deployedLinkReferences": {}
}